:020000040800F2
:1000000060310020C1020008E163000805550008C6
:10001000DD6300087D080008719A000800000000F8
:10002000000000000000000000000000D166000891
:10003000AD0D00080000000061660008FD660008C4
:10004000DB020008DB020008DB020008DB0200081C
:10005000DB020008DB020008DB020008DB0200080C
:10006000DB020008DB020008DB020008810D00084B
:100070008D0D0008990D0008A50D0008A90D0008B8
:10008000DB02000800000000DB020008DB020008C1
:100090002D990008DB020008DB020008DB020008E3
:1000A000DB020008DB020008DB020008DB020008BC
:1000B000DB020008DB020008DB020008DB020008AC
:1000C000DB020008DB020008DB020008DB0200089C
:1000D000DB020008DB020008DB020008DB0200088C
:1000E000DB020008DB020008DB020008DB0200087C
:1000F000DB020008DB020008DB0200080000000051
:1001000000000000DB02000800000000DB02000825
:10011000DB02000800000000DB020008B1670008F5
:10012000DB020008DB020008DB020008DB0200083B
:10013000DB02000800000000000000000D71000854
:10014000DB020008DB0200080000000000000000E5
:10015000000000000000000000000000000000009F
:10016000000000000000000000000000DB020008AA
:10017000DB0200080000000000000000000000009A
:1001800000000000DB02000800000000000000008A
:10019000000000000000000000000000000000005F
:1001A0000000000000000000DB020008DB02000885
:1001B000DB020008DB020008DB0200080000000090
:1001C00000000000DB02000800000000000000004A
:1001D000DB020008DB02000800F002F800F060F823
:1001E0000AA090E8000C82448344AAF10107DA4592
:1001F00001D100F055F8AFF2090EBAE80F0013F084
:10020000010F18BFFB1A43F00103184760030100F8
:10021000800301000A444FF0000C10F8013B13F07A
:10022000070408BF10F8014B1D1108BF10F8015B4F
:10023000641E05D010F8016B641E01F8016BF9D142
:1002400013F0080F1EBF10F8014BAD1C0C1B09D199
:100250006D1E58BF01F801CBFAD505E014F8016B0B
:1002600001F8016B6D1EF9D59142D6D3704700009D
:100270000023002400250026103A28BF78C1FBD8AF
:10028000520728BF30C148BF0B6070471FB510F040
:10029000E3F89DE8030000F0C9F91FBD10B510BDDB
:1002A00000F048FA1146FFF7F1FF09F02BFC00F0CF
:1002B00066FA03B4FFF7F2FF03BC00F097FA000000
:1002C0000948804709480047FEE7FEE7FEE7FEE7EA
:1002D000FEE7FEE7FEE7FEE7FEE7FEE70448054926
:1002E000054A064B704700009D670008D9010008C9
:1002F000602B002060310020602D0020602D002048
:1003000070B5064600F076F9056806F10B0020F09E
:100310000704B4429CBF002070BD2B466A68BAB186
:100320001068A04210D304F1080188423CBF506815
:10033000586007D35168101941601168091B0160AA
:1003400058601460101D70BD13465268002AE7D132
:100350002146284600F056F90028DED170BD53EA48
:10036000020C00F069802DE9F04B4FF00006002BE5
:100370001FBFB3FA83F503FA05F424FA05F65E40CD
:1003800012BF1643B2FA82F502FA05F4C5F1200550
:100390001EBF22FA05FC44EA0C04203556EA044C40
:1003A0004FEA144418BF641C4FF000084FF00009D6
:1003B000904271EB030C39D3002919BFB1FA81F7D0
:1003C00001FA07F6B0FA80F700FA07F6C7F120073E
:1003D0001EBF20FA07FC46EA0C062037B6FBF4FCE9
:1003E000A7EB0507103F07F01F0BCBF120062CFAF7
:1003F00006F60CFA0BFB44BFB3460026202FA4BF21
:100400005E464FF0000B5BEA060C08BF4FF0010B95
:1004100019EB0B0948EB0608ABFB027C06FB02CC90
:100420000BFB03CCC01B71EB0C01C1E70B46024672
:1004300041464846BDE8F08B13B5084318BF4FF05E
:10044000FF300146AFF30080BDE81C407047032A2F
:1004500040F2308010F0030C00F0158011F8013BE1
:10046000BCF1020F624498BF11F801CB00F8013BC8
:1004700038BF11F8013BA2F1040298BF00F801CB8C
:1004800038BF00F8013B11F0030300F02580083A63
:10049000C0F0088051F8043B083A51F804CBA0E8BA
:1004A0000810F5E7121D5CBF51F8043B40F8043B0F
:1004B000AFF30080D20724BF11F8013B11F801CB44
:1004C00048BF11F8012B24BF00F8013B00F801CB15
:1004D00048BF00F8012B704710B5203AC0F00B80E0
:1004E000B1E81850A0E81850B1E81850A0E818502A
:1004F000203ABFF4F5AF5FEA027C24BFB1E81850A0
:10050000A0E8185044BF18C918C0BDE810405FEA01
:10051000827C24BF51F8043B40F8043B08BF70477D
:10052000D20728BF31F8023B48BF11F8012B28BF82
:1005300020F8023B48BF00F8012B704702F0FF0390
:1005400043EA032242EA024200F00AB802F0FF0343
:1005500043EA032242EA024200F024B84FF00002CC
:100560000429C0F0128010F0030C00F01B80CCF1C5
:10057000040CBCF1020F18BF00F8012BA8BF20F833
:10058000022BA1EB0C0100F00DB85FEAC17C24BF87
:1005900000F8012B00F8012B48BF00F8012B704731
:1005A0004FF0000200B5134694469646203922BF0C
:1005B000A0E80C50A0E80C50B1F12001BFF4F7AF57
:1005C000090728BFA0E80C5048BF0CC05DF804EB39
:1005D000890028BF40F8042B08BF704748BF20F8A7
:1005E000022B11F0804F18BF00F8012B70477047A5
:1005F00070477047004870474C02002070477047B2
:100600007047704738B504460A4600206946AFF384
:100610000080002808BF38BD02460099204600F03F
:1006200067F8012038BD012000F07CB8F8B5AFF3C1
:100630000080054600200C46102000BF0646A81981
:10064000A0420DD9324669460020AFF30080070072
:1006500008BF00F067F80098A04218BF0546C4190B
:10066000FFF7C8FF05600746F01D20F00700461998
:10067000284600F00AF8B44208BFF8BDA21B314674
:100680003868BDE8F84000F033B800210160C0E9E7
:10069000011070471020704770B50446051FFFF722
:1006A000A9FF0068002C14BF446870BD002C18BF5F
:1006B000AC423CBF20466468F8D301680A18AA42DD
:1006C00018BF456003D12A680546114401602868B7
:1006D0004119A1421CBF6C6070BD616869602168EE
:1006E0000844286070BD00000048704744020020A4
:1006F000034640688C46002818BF88423CBF03462A
:100700004068F8D318681844884207D00CF10300F9
:1007100020F00700001D411A521A0146081D0A6008
:10072000FFF7BABF10B500F039F8BDE8104000F08F
:100730002FB870477546FFF7D7FFAE4605006946EC
:10074000534620F00700854618B020B5FFF7C6FDD8
:10075000BDE820404FF000064FF000074FF00008C2
:100760004FF0000BAC46ACE8C009ACE8C009ACE8FF
:10077000C009ACE8C00921F007018D46704710B5EB
:100780000446AFF300802046BDE81040FFF791BD5E
:10079000002801D000F02AB87047000010B50128E9
:1007A00005D0002103A000F027F8012010BD09A109
:1007B000F8E7000053494752544D454D3A204F75D4
:1007C00074206F662068656170206D656D6F727949
:1007D000000000003A2048656170206D656D6F7201
:1007E0007920636F72727570746564000149182016
:1007F000ABBEFEE72600020070B505460C460A2097
:1008000000E06D1C00F011F835B128780028F8D10F
:1008100002E0641C00F009F814B120780028F8D137
:10082000BDE870400A20AFF3008008B569468DF836
:1008300000000320ABBE08BD002818BF6FF0010008
:10084000704700006FF00101002808BF6FF00A0137
:10085000084670476FF00A02002908BF6FF00102D6
:10086000002818BF6FF00102002310460B6070478C
:10087000002818BF6FF0010070470000FEE700007D
:1008800010B5044607F008FC40F21C4140F2384322
:1008900004EB4400C2F20001C4EB0412C2F20003F4
:1008A00003EB820211F82030D26A43F0800301F892
:1008B0002030BDE8104010472DE9F04385B00446D4
:1008C00040F23849C4EB0415C2F2000909EB850671
:1008D000C6E903125788497927F0030747EA9111BF
:1008E0005180316940F21C4C4A8800EB400022F0F4
:1008F0000C02C2F2000C4A8000210CEB80074CF87D
:1009000020102046C7E90111F36207F061FEE846B6
:1009100049F82500404604F0E1FE59F8250041461B
:1009200004F0ACFE59F825001F22016862F31C5147
:100930000160C16841F44061C16047F20800C4F23F
:100940000000016841F48041016041F24C00C4F2B2
:100950000200016841F002010160006800F002003D
:100960000490049840F20040C4F60000016841F48D
:1009700040510160016841F440710160C16821F497
:100980004051C160C16821F44071C1602046FFF749
:1009900053FF59F82500016841F0004101602046ED
:1009A00007F040FB40F6D920C0F60000F168B860BF
:1009B0004879797800F0100001F07F0141EAC00029
:1009C000787005B0BDE8F0832DE9F04381B00546AD
:1009D00000200C46087040F23841C5EB0510C2F209
:1009E000000101EB800630690078C0064CD440F26B
:1009F0001C4105EB4500C2F2000101EB800797F9AD
:100A000000009146002821D47878C0F344000D28D6
:100A100007F1010828D00C283AD0002854D13068BA
:100A2000016941F400410161016941F480410161C2
:100A30004EF23F40CEF20000402101704EF2041011
:100A4000CEF200004FF00041016016E000F07F00A0
:100A5000387078780C2161F345007870C0F3440059
:100A60000D2807F10108D6D101F0D8F97968401AAC
:100A70001B2809D3284607F0D5FA98F8000000F0A3
:100A8000C100023088F80000022001B0BDE8F08308
:100A9000284607F001FB00207063C9F80000387891
:100AA00000F0FC0038700120207001F0B7F998F8D0
:100AB0000010786001F0C1001A3088F800001A2098
:100AC00001B0BDE8F08300BFBB68284621464A4616
:100AD00001B0BDE8F04318472DE9F04F83B040F274
:100AE0001C4B00EB4006C2F2000B0BEB8607B9462D
:100AF000824619F8010F1546C0F3440003280C463E
:100B000024D0022846D0012840F09C8040F2384191
:100B1000CAEB0A10C2F2000151F8203001EB800844
:100B20005A6958691BF8263012F4403200F440210B
:100B300003F0E0000BF8260000F08880002940F068
:100B4000858040F005003870900B85E040F2384118
:100B5000CAEB0A10C2F2000101EB800251F820003A
:100B6000516BD0F814804FF44027012950464FF0C4
:100B7000020108BF4FF4403707F03AFF01284FF059
:100B80000A0008BF18EA070100F0A68003B0BDE81C
:100B9000F08F00BF019501F041F93D4640F2384E1B
:100BA000CAEB0A1CC2F2000E55F8042F5EF82C1096
:100BB00002924B6949691BF8262013F4403301F473
:100BC000402102F0E0080BF8268005D021B948F05A
:100BD00005013970990B05E073B969B148F0060257
:100BE000090C3A700EEB8C021269538823F00C0347
:100BF0001943518097F8008008F01C01042957D14F
:100C00000299401A792819D35046012107F0F0FEC5
:100C1000012813D1387800F00301504604F0CAFBD4
:100C200099F80000019900F0C100063089F8000031
:100C300002202070387800F003000860387800F057
:100C4000DF003870022003B0BDE8F08F62B959B1FF
:100C500040F006003870080CD8F810104A8822F0CE
:100C60000C0210434880387810F01C0F2ED001F091
:100C7000D5F899F80010786001F0C100043089F8C7
:100C80000000012000F0DAFFD8F800004169406957
:100C90003B7811F4403200F4402103F0E00038705A
:100CA00032D089BB40F005003870900B32E000BFB5
:100CB00001F0B4F85FEA88613ED43978286041F0E9
:100CC000200038700C2003B0BDE8F08F4FF0FF30EB
:100CD00003B0BDE8F08F00BF504604F0D3FB1BF813
:100CE000260099F8001000F0E3000BF8260001F050
:100CF000C100023089F80000012020700020286027
:100D000003B0BDE8F08F00BF62B959B140F00600F2
:100D10003870080CD8F810104A8822F00C021043E2
:100D20004880387810F01C0F1ED05046FFF7A0FD09
:100D3000022003B0BDE8F08F2968401A0D28FFF4A7
:100D400081AF387899F8001000F0DF00387001F0BA
:100D5000C100023089F800005046FFF773FD022001
:100D600003B0BDE8F08F00BF99F8000000F0C100AB
:100D7000023089F80000022003B0BDE8F08F0000C7
:100D800040F62C30C2F2000000F06CBE40F2A82009
:100D9000C2F2000000F066BE40F6CC20C2F20000B5
:100DA00000F060BE70470000704700007047000010
:100DB000EFF3108072B600BFFEE7000070B582B09E
:100DC00090F85820012A03D10221084602B070BDD4
:100DD0000022019200920268B2F1A04F30D140F29D
:100DE00008324FF6006C4FF60055C5F20002CFF600
:100DF000FF7CCFF6FF7552F80C40535923435B0735
:100E00001ED4D1F800E01368BEF1000F23F4604453
:100E100022D04B6890F8386043EA4633234313608E
:100E2000535952F80C603343DB0723D1136840F663
:100E30001F768968B343194341EA0E0117E000BFEA
:100E4000C16D41F02001C1650121002280F85820C8
:100E5000084602B070BD00BF1460515952F80C3002
:100E60001943C90708D1116840F61F7399431160EF
:100E70000021EAE70021E8E70021E6E7F0B581B0CC
:100E80000022009290F85820012A03D1022108463E
:100E900001B0F0BD0123076880F85830BB685B07DC
:100EA00036D4D1E900531F26C3F3012407EB840491
:100EB000226B03F01F039E40B243C5F3846606FA1B
:100EC00003F31A432263BA68BB6802F0040203F01A
:100ED0000803D21840F0BD800A6807F11403042605
:100EE000C2F34064D1F808E006EAD25C53F824501B
:100EF000C2F304540722A240BEF1004F25EA0205C6
:100F00000CD143F80C501A6842F000430EE000BFC9
:100F1000C16D41F02001C165012182E10EFA04F2A8
:100F20002A4343F80C201A6822F000437B61D1E980
:100F30000434FD68042B5FD13A6E3A6E0B68C2F33D
:100F4000846293FAA3F6C3F3846C6FF3DF43B6FABB
:100F500086F5002B2C464FF6FF7E08BF6446A24262
:100F6000C0F2070E0CD13A6E22F000423A660A68CF
:100F700002EA0E03C2F3846C92FAA2F2B2FA82F58C
:100F80007A6E7A6E002BC2F384622C4608BF6446E8
:100F9000A2420CD17A6E22F000427A660A6802EA16
:100FA0000E03C2F3846C92FAA2F2B2FA82F5BA6E20
:100FB000BA6E002BC2F384622C4608BF6446A2427C
:100FC0000CD1BA6E22F00042BA660A6802EA0E0339
:100FD000C2F3846C92FAA2F2B2FA82F5FA6EFA6E59
:100FE000002BC2F3846208BF6546AA4231D1FA6E73
:100FF00022F00042FA662CE0062202EA95020E6810
:1010000007F1600504FA02FC55F823404FF2000294
:10101000C0F2FF3206F0F846224046EA0C063243A0
:1010200042F0004245F823200A698B6955F8226096
:1010300026F08076334345F822300A690B7F55F855
:101040002260012B26F0007608BF06F1007645F8F5
:101050002260BA68D20750D10C68CA68D7F8B0606D
:1010600023466FF3DF4326EA030C4FF6FF7602F0C8
:101070001805C0F20706EE4000252640C4F27F05A1
:1010800046EA0C06AA42C7F8B06036D193B194FA8A
:10109000A4F2B2FA82F2013202F01E03092B02F02E
:1010A0001F0310D801229A4003EB430342EA035383
:1010B00015E000BF012202EB946202F01E030A2B2E
:1010C00002F01F03EED3012200269A4003EB4303F4
:1010D000CFF6206606EB03531A4342F00073C3F3C6
:1010E000406607EB86068A687569C3F304530724D4
:1010F0009C40A5439A402A43726109680022C8F2C5
:101100000802114254D040F2083CC5F2000CDCF851
:1011100000300022CCF22132914203F0E07404D07E
:101120001022C9F2C002914244D119024FF00001CD
:1011300077D4B7F1A04F74D1DCF8001042F66352B7
:1011400021F0E071214341F40001CCF8001040F29D
:101150003411C2F200010968C0F23E528909A1FBB4
:101160000212910901EB41010C2202EB8101009175
:10117000009900293CD000BF0099013900910099E5
:10118000002947D00099013900910099002943D0E6
:10119000009901390091009900293FD00099013947
:1011A0000091009900294FF00001E5D139E000BF1E
:1011B000002136E00022CCF25272914208BF13F0B7
:1011C000807217D00022CCF6843291424FF0000199
:1011D00008BF13F4800224D1ACF50272974220D0EC
:1011E000DCF8001021F0E071214341F480010CE0B3
:1011F000002116E0ACF502718F4211D0DCF800102E
:1012000021F0E071214341F08071CCF80010002101
:1012100007E000BF002104E0002102E0002100E01F
:101220000021002280F85820084601B0F0BD0000DF
:10123000B0B582B00446002001904CB1E06D58B1C9
:1012400021688868800012D48868C00019D54CE0F5
:10125000012002B0B0BD00BF204600F009F9002017
:10126000206684F85800216888688000ECD588687A
:101270004FF6C072C5F6FF72104088608868C000E3
:1012800033D44FF6C0728868C5F6FF7202F18052FF
:10129000104000F18050886040F23410C2F200002B
:1012A000006842F663528009C0F23E52A0FB02027F
:1012B0009009022202EB400001900198A8B100BF02
:1012C000019801380190019878B101980138019096
:1012D000019850B1019801380190019828B1019806
:1012E0000138019001980028EAD18868C00009D42B
:1012F000E06D40F01000E065206E40F001002066D7
:10130000012000E000208A68E36D02F0040203F08F
:101310001003D218E26D71D122F481720232E265BB
:101320008A68D2071AD140F2083C4FF600534FF6B4
:101330000062C5F2000CCFF6FF73CFF6FF725CF8C7
:1013400003305CF802201A43D20707D16268DCF848
:10135000003023F47C131A43CCF80020627FE36B47
:1013600043EA4232D4E902C31A4394F8243042EAF1
:101370000C02012B42EA034207D1D4F828C0002313
:10138000CFF6FE7303EB4C431A43E36A33B1D4F850
:1013900030C003F4787343EA0C031A43D1F80CC04D
:1013A00044F20703CFF6F07303EA0C031A43CA6052
:1013B0000A69636B22F040621A430A618A68120765
:1013C00045D494F83820237F520042EA833CCB680E
:1013D00044F2020223EA020242EA0C02CA602269D3
:1013E0000B698AB143F480330B61D1F8C0C043F676
:1013F000FF732CEA03031A430EE000BF42F0100112
:101400000120E16502B0B0BD23F480320A61D1F859
:10141000C02043F6FF739A43C1F8C02094F84030CF
:101420000A69012B10D140F2FD7322EA030CD4E9C2
:101430001132D4E913E543EA0C031A4342EA0E02DF
:101440002A4342F0010201E022F001020A616269CE
:101450000B6B012A23F00F0202D1236A013B1A43CE
:101460000A63E16D012262F30101E16502B0B0BDE2
:101470002DE9F04198B0044600201790CDE9150001
:10148000CDE9130002A84421FFF78AF8206840F252
:101490000011C5F2000188424CD0B0F1A04F40F0DD
:1014A000A2804FF4004002904FF00050119002A82B
:1014B00001F0C2FF002818BFFFF77AFC40F2A42514
:1014C000C2F20005296841F24C00C4F202004A1C35
:1014D0002A6041B9016841F400510160016801F4DA
:1014E0000051019101990168052641F00101016057
:1014F0000068002700F0010001900198032014907B
:1015000013A94FF090401396159700F0ABFB1C20E9
:10151000C4F2020045F8040F80204FF48071C5E941
:10152000037005F114004FF480622023C5E90167C0
:101530000EC04DE04FF4004002904FF0005011906B
:1015400002A801F079FF002818BFFFF731FC40F234
:10155000A421C2F200010A6841F24C00C4F2020068
:10156000531C0B6042B9016841F4005101600168ED
:1015700001F400510191019901684FF0200841F0F8
:10158000010101600068002700F00100019001984E
:101590000320149013A94FF09040CDF84C8015977C
:1015A00000F060FB1C20C4F2020040F6CC25143091
:1015B000C2F20005242180224FF4807385E8830065
:1015C00005F114004FF48066C5E9037280E8480114
:1015D00028462F6200F09CFA05F1280608B1FFF7B3
:1015E000E7FB6565346018B0BDE8F081B0B582B046
:1015F00004460020002C019068D02168086800286B
:1016000064D4607F30B9002020772062204600F04B
:101610009DF82168D1F800C0D4E901236569D4E9B7
:10162000030E1A432A4310430A6847F60F63CFF6A6
:10163000007340EA0E001A40104308600868000278
:101640002DD51CF400002AD140F23410C2F2000063
:10165000006842F663528009C0F23E52A0FB0202CB
:10166000900900EB8000142202EB800001900198A9
:10167000A8B100BF019801380190019878B1019894
:1016800001380190019850B10198013801900198FA
:1016900028B101980138019001980028EAD140F260
:1016A0000020C4F20100814240F20440C4F2010073
:1016B00010D040F20422C4F2010291422AD14FF428
:1016C0008002A1695FEA817C0AD12FE0012002B08B
:1016D000B0BD00BF4FF40012A1695FEA817C25D044
:1016E000CB06436854BF93431343436083688D061E
:1016F00054BF9343134383600261BCF1000F03683E
:1017000054BF93431343C907036012D050F8041C1D
:10171000114311E0A0F5FE734FF08042994208BFDB
:101720004FF00052A1695FEA817CD9D101689143F1
:10173000016050F8041C914340F8041C607F0028AD
:1017400004BF01206077002002B0B0BD80B586B034
:10175000006840F20C21C4F2010188424FF0000100
:101760000591CDE90311CDE901111BD040F204210F
:10177000C4F20101884229D040F20021C4F20101E3
:1017800088423BD141F24C00C4F20200016841F0B2
:1017900001010160006800F0010000900098022043
:1017A00022E000BF41F24C00C4F20200016841F0A7
:1017B00002010160006800F0020000900098012022
:1017C000019040F20040C4F6000010E041F24C00ED
:1017D000C4F20200016841F001010160006800F0FC
:1017E000010000900098082001904FF090400321E4
:1017F00002910021039101A900F034FA06B080BDE6
:101800002DE9F041044600284FF0010000F0E68089
:101810000D46002900F0E280607901284FF00200B7
:1018200008BFBDE8F081012161712071A8681646EA
:10183000042831D100F0F2FA21684A6B07469EB1C4
:10184000B2F1FF3F05DD686A486411E0486B00288B
:10185000F9D500F0E3FAC01B21680228F6D3486BE3
:10186000B0F1FF3FF2DC3DE0100432D4686A086456
:10187000886C06F0100240F2FF3393409843D5E99C
:101880000A37934018438864C86CFF2393409843F9
:1018900007FA02F21043C864E9692068012929D1D6
:1018A000816B06F010081F222B6A02FA08F291439E
:1018B00003FA08F211438163D0F83CC0A9690129F9
:1018C0001FD0022920D14FF0010E22E0486B000406
:1018D000CCD500F0A3FAC01B21680228F6D3486BD0
:1018E0000004F3D5206940F0080020610320207136
:1018F000BDE8F08106F01008D0F83CC0A9690129C4
:10190000DFD14FF0000E04E06969B1FA81F14FEACE
:10191000511EAA686B692E7940F2073742EA0E021F
:1019200007FA08F0697942EA0307012E08BF47F475
:101930008077012908BF47F400776FF44042296897
:101940005040022900EA0C060AD102F063F846F67C
:101950000101C0F68911884204D346F4004609E02B
:101960000E4307E04BF20041C0F2C441884288BFF9
:1019700046F4804607FA08F120683143C1634FF40A
:101980008041026801FA08F122EA01010160016860
:1019900040F6FE7202FA08F29143D5E9032302FAF7
:1019A00008F739430160C021076801FA08F127EA06
:1019B00001010160C2F3830103F03C0241EA82119C
:1019C000026E40F60F7303FA08F39A4301FA08F126
:1019D000114301660120207100206071BDE8F08193
:1019E000002804BF0120704710B50446007920B9D3
:1019F00000206071204600F007F8022020710020CE
:101A000001212061217110BD82B0006841F2000106
:101A1000C5F20001884215D040F60001C5F2000170
:101A200088421CD141F24C00C4F20200016841F42A
:101A300080310160006800F480300190019802B0AC
:101A4000704700BF41F24C00C4F20200016841F44B
:101A500080210160006800F480200090009802B0AE
:101A600070470000B0B5D0E910C30268DCF8001080
:101A700003F01F030424D2F800E09C400C4218BF7E
:101A80001EF0040522D102249C400C4218BF1EF017
:101A9000020529D1D940090724D51EF0080108BF45
:101AA000B0BD116821F00E011160012101FA03F2AD
:101AB000CCF80420C16380F82510416B002280F827
:101AC000242079B1BDE8B040084700BF11688906FD
:101AD00003D4116821F004011160CCF80440016BBB
:101AE0000029EFD1B0BD00BF1168890606D4116886
:101AF00021F00A011160012180F82510CCF8044082
:101B0000C16A0022002980F82420DBD1EAE7000026
:101B100000284FF0010100F08E802DE9F04740F2DF
:101B2000000CC4F2020C03684FF6F8320CF5816E1B
:101B3000CBF6FD72734538BF02F580624CF6CD449A
:101B40001A44CCF6CC44A2FB042803F0FC02A2F118
:101B50000802A2FB04290CF580656FF00304D0E9AC
:101B60000262D0F810A03CBF0025C4F2020504EACE
:101B70009804C0E91054022580F825501D6847F6E6
:101B8000F07725EA07073A43476942EA0A0285697E
:101B90003A43C7692A43056A3A432A4332431A60E3
:101BA0000CF50262734538BF0CF50062A3180CF502
:101BB0000862C264C9F3041240F6840C01FA02F20E
:101BC000B6F5804FC4F2020C8364026506D1002191
:101BD00041601960CCF800201EE000BF41685FFA48
:101BE00081FE013903294FF00001C3F800E0CCF871
:101BF000002011D8AEF101020CEB820747F87C1FE0
:101C000002F01F01012202FA01F30CF1BC02394675
:101C1000CCF8C03002E000BF0022002300F1540CD9
:101C20008CE80E0000210122C16380F8252080F895
:101C30002410BDE8F047084670470000B0B50446E0
:101C400000F0ECF8054640F24C00C2F2000040689B
:101C5000611C18BF044400BF00F0E0F8401BA04224
:101C6000FAD3B0BD2DE9F04F82B00D68002D00F021
:101C7000CB8041F2004400F13847C4F6000406224C
:101C80004FEAB726A04208BF0522052E38BF4FEA0B
:101C9000B722002401274FF0000E0026009209E031
:101CA0000D68013635FA06F20EF1040E04F1020455
:101CB00000F0AA8007FA06FB15EA0B08F0D0D1F86D
:101CC00004A003220AF0030CACF10105A240012D8F
:101CD0006FEA020910D88268CD6802EA0902A540BD
:101CE0002A4382604268CAF3001522EA0B02B5401B
:101CF0002A43426006E000BFBCF1030F02D14FF05F
:101D0000030C21E0C2688D6802EA0902A5402A435B
:101D1000BCF1020FC26017D16FF0030202EA560253
:101D200002440EF01C030F25D2F820C005FA03FA76
:101D30000D692CEA0A0C05FA03F343EA0C0313625B
:101D4000D1F804A00AF0030C02680CFA04F302EACA
:101D500009021A431AF4403F0260A1D041F2600325
:101D6000C4F202031A6840F2004942F001021A600C
:101D70001A68C4F2010902F001020192019A26F0E8
:101D800003024FF6084A4A44CFF6FF7A52F80AC0D7
:101D90000EF00C050F23009FAB402CEA030307FA5B
:101DA00005F52B4342F80A30D9F808C04B684CEAD5
:101DB0000805DA0258BF2CEA080540F20C4CC9F8B5
:101DC0000850C4F2010CDCF800209F0242EA08052A
:101DD00058BF22EA0805CCF80050D9F804209D032A
:101DE00042EA080758BF22EA0807C9F80470D9F880
:101DF0000020DB0342EA080758BF22EA0807C9F8B7
:101E0000007001274CE700BF02B0BDE8F08F000072
:101E10001823002A08BF2823C150704742F26440AB
:101E2000C2F200000068704790F84120202A03D1D8
:101E300090F84020012A01D102207047242280F826
:101E400041200268136823F001031360136823F430
:101E500080531360136819431160116841F0010148
:101E60001160202180F84110002180F840100846C0
:101E70007047000090F84120202A03D190F84020BC
:101E8000012A01D102207047242280F841200268F3
:101E9000136823F001031360136823F4706343EAAB
:101EA00001211160116841F001011160202180F8C9
:101EB0004110002180F8401008467047002804BFF8
:101EC0000120704710B5044690F8410028B9002061
:101ED00084F84000204600F049F8242084F84100AE
:101EE00094E80910E2680168012A21F0010101600B
:101EF00023F070610161816821F40041816003D1A8
:101F00004CF40041816009E04CF40441022A8160F4
:101F100004D1416841F4006103E000BF416821F44D
:101F200000614160416804F1100C41F0007141F41E
:101F300000414160C16821F40041C1609CE80E107D
:101F4000114341EA0321C160216A41EA0C010160A9
:101F5000016841F00101016000202021606484F8E3
:101F60004110206384F8420010BD000010B598B005
:101F7000044602A804304021FEF712FB206847F611
:101F80000001C4F20001884202D018B010BD00BFA9
:101F90004FF48070029002A801F04EFA002818BF9A
:101FA000FEF706FF41F24C04C4F20204206813A9B4
:101FB00040F004002060206800F0040013901398A3
:101FC0004FF440701390122014900020CDE91500BA
:101FD0000820179040F60000C4F60000FFF742FE0C
:101FE000E06840F08040E060E06800F080400190F0
:101FF000019818B010BD000040F24C0042F264415C
:10200000C2F20000C2F2000140680A681044086091
:102010007047000080B5032000F0C2F80F2000F0E8
:1020200009F800281CBF012080BD00F05BF80020EB
:1020300080BD0000B0B586B041F25801C4F2020183
:102040000A68044642F020020A60096801A801F00B
:10205000200101910199694601F0BAFC01F0E0FC10
:102060004DF68361C4F21B31A0FB01014FF0FF303C
:1020700000EB914141F2501041F20042C2F20000E7
:10208000C4F2000240F2E7330025C0E90021C0E9B4
:102090000253056102F004F9054618B1284606B05E
:1020A000B0BD00BF41F25010C2F2000002F044F98E
:1020B00005460028F2D1372000F032F80F2C0DD859
:1020C000372021460022002500F03EF840F24C0067
:1020D000C2F200000460284606B0B0BD01252846C3
:1020E00006B0B0BD82B041F25800C4F2020081686F
:1020F000002241F001018160816801F0010101913C
:102100000199016841F08051016000680F2100F0E1
:102110008050009000986FF0010002B000F014B8F9
:10212000002848BF7047C1B200F01F00012202FA28
:1021300000F04EF20012CEF2000242EAD10121F08C
:10214000030108607047000010B54EF60C5CCEF23B
:10215000000CDCF80030C3F3022E8EF00704042CD0
:1021600028BF0424BEF103034FF0FF3E0EFA04F42F
:1021700038BF0023A14399400EFA03F39A43114359
:1021800000F00F0200F160430901043A03F56443D3
:102190006244002848BF02F10C03197010BD000012
:1021A0004EF60C51CEF200010A684FF6FF031A40BA
:1021B00060F30A2242F0806040F0FD7008607047D2
:1021C0002DE9F04381B040B1044690F83A0005286B
:1021D00003D094F83A00022804D1012001B0BDE8F0
:1021E000F08300BF41F26000C4F20200016843F6D0
:1021F000116741F0010101600068CEF2000700F0B4
:1022000001000090009894F83A00002804BF0020D4
:1022100084F83900204600F059F8D4F808C04CF092
:102220002000602816D1D4E9000ED4F8108005688B
:10223000E66A25F010052E4306600668D4E90951C8
:102240003740267DD4E90C2347EA0E0747EA080702
:1022500017E000BFD4E9000ED4E903890668E56AF7
:1022600026F010062E4306600668D4E9095137406F
:1022700047EA0E07267DD4E90C2347EA080747EA18
:1022800009072F43012E08BF47F48077394341EAFD
:10229000C24141EA036242EA0C01016081690029FE
:1022A00009D4816904F118078CCF21F03F01114353
:1022B00019433943816194F83A00002804BF012092
:1022C00084F83A00002001B0BDE8F08380B586B004
:1022D000006840F20831C4F2010188424FF0000169
:1022E0000591CDE90311CDE901111BD040F2043174
:1022F000C4F20101884227D040F20031C4F201014A
:1023000088423BD141F24C00C4F20200016841F026
:1023100001010160006800F00100009000980820B1
:102320000EE000BF41F24C00C4F20200016841F02F
:1023300001010160006800F0010000900098022097
:1023400001904FF0904012E041F24C00C4F20200C4
:10235000016841F002010160006800F00200009095
:1023600000980120019040F20040C4F600000321D3
:1023700002910021039101A9FFF774FC06B080BD12
:1023800001220168C0F8D022002280F8C822B1F8EA
:10239000540040F00100A1F85400B1F8540040F09E
:1023A00002020020A1F854207047000010B5012956
:1023B000044613D011BB607A48B104F0AFF94EF671
:1023C0001050CEF20000016821F006010160D4F83F
:1023D000D802BDE8104005F0B1BA00BFD4F8D80269
:1023E00005F032FB607A002808BF10BD4EF6105091
:1023F000CEF20000016841F00601016010BD00004E
:1024000080B501F0070C0CEB8C0C00EBCC0C01EB55
:10241000810E0CF1100C00EBCE00090658BF00F540
:10242000A87C0020002A19BFCCF808300121ACF8A4
:10243000063000218CF80C1080BD000001EB8102F9
:10244000D0F8D83200EBC200426A184605F04AB90B
:1024500001EB8102D0F8D83200EBC200D0F8642141
:10246000184605F093B9000010B5044648B2B0F123
:10247000FF3F01F0070000EB800104EBC10205DD26
:1024800002F5A871002382F8513103E0012302F123
:102490001001537494F890220870012A04BF02209E
:1024A00010BD2068012284F8902206F019FD00205A
:1024B00084F8900210BD0000B0B50446007901F028
:1024C0000F02824284BF0120B0BD48B2B0F1FF3F8D
:1024D00001F0070000EB800104EBC10206DD02F50C
:1024E000A871002382F8513104E000BF012302F1FA
:1024F0001001537494F890220025012A8D70087001
:1025000004BF0220B0BD2068012284F8902206F0AA
:102510007BFD284684F89052B0BD000070B5064699
:1025200048B2B0F1FF3F01F0070000EB800107DD8A
:1025300006EBC10404F5A871002584F8515106E0AA
:1025400006EBC10C01240CF110018CF8114008704D
:102550000A61022BCB7004BF0020087196F890022C
:10256000012804BF022070BD3068012286F8902245
:1025700006F090FB002086F8900270BD10B501F0C7
:10258000070C0CEB8C0100EBC10E00680EF5A87176
:102590000024CEF86421CEF86831CEF86C418EF874
:1025A00051418EF850C106F087FD002010BD00009B
:1025B00010B50279044601F00700904284BF012063
:1025C00010BD4AB2B2F1FF3F0ADD01EB810104EB1D
:1025D000C10202F5A871002382F8513108E000BF62
:1025E00000EB800104EBC102012302F110015374DE
:1025F00094F890320122012B8A70087004BF0220E7
:1026000010BD206884F8902206F03CFD002084F87C
:10261000900210BD80B501F0070C0CEB8C0100EBB3
:10262000C10101F810CF00684FF0010C01F114074F
:1026300081F824C04FF0000E87E80C400B6281F84F
:1026400001C006F039FD002080BD00002DE9F04FEB
:1026500081B00446006807F06FF9010420D44105F9
:1026600000F1FA83410400F10984810400F11E8421
:10267000C10400F12584010500F14884010600F140
:102680005B84810500F16884C00540F1F383206814
:10269000B0F8441021F48071A0F84410EAE300BFC0
:1026A0002068B0F94410B1F1FF3F00F3E38304F573
:1026B000267140F60F7B009123E000BFB0F8501068
:1026C00094F85021014401EBC201B1F80634B4F88A
:1026D000562100996FF39F23C4F86C3107F030F94D
:1026E0002068018801EA0B0180310180204600F05A
:1026F000DDFD00BF2068B0F94410B1F1FF3F00F3E9
:10270000B983B0F8442012F00F090DD030F9291028
:102710004FEA490AB1F1FF3F1FFA81F82EDD5FEA67
:102720000860E7D560E100BF0188D2066AD401EAFB
:102730000B0101F500410180B0F85010227C0844E3
:1027400000EBC200B0F80204616A6FF39F20E06200
:102750000844606220460021FFF770FE207B0028BD
:10276000C8D0A06A0028C5D1207B216840F0800035
:10277000C0B2A1F84C0000202073BBE730F81A105B
:1027800040F60F7C01EA0B01803120F81A1009EBAA
:10279000890104EBC10B9BF85C110BF5A8760029AD
:1027A00000F082809BF85311022940F08F80B0F82E
:1027B00050703178DBF8683107440BF5B4725FEA8A
:1027C000484507EBC10700F19B80B7F80674002568
:1027D0006FF39F27DB1B38BF2B46136040F2A680A8
:1027E0005FEA486200F1B28030F8212048F2C0036D
:1027F00002EA0C021A4320F82120002F40F0A780A3
:10280000CCE000BF0A053FF559AF09B2B1F1FF3F77
:102810003FF770AF018801EA0B0180310180B0F809
:10282000501094F85021014401EBC201B1F8063474
:102830006FF39F23C4F86C3193B1D4F8641179B16C
:10284000B4F8562107F07CF8D4F86401D4F86C1180
:102850000844C4F8640120460021FFF7F9FD206810
:1028600001880A053FF546AF01F44051B1F5405FDC
:102870003FF440AFB0F8501000F20642535A6FF3E5
:102880009F235352D4F860313F2BC0F00782DE06FD
:102890008E5A4FEA53174FF0FF3508BF05EB531719
:1028A00046EA87237DE200BFB0F850103278014439
:1028B00001EBC201B1F806746FF39F27002F6DD0B2
:1028C000DBF86411BBF8562163E000BF327848F2B0
:1028D000C00330F8221001EA0C01194320F822103D
:1028E00030F82230B0F8501000EBC2025B04114403
:1028F00016D4B1F806746FF39F2747BB4EE000BFB4
:10290000B7F8027400256FF39F27DB1B38BF2B46F7
:10291000136021D95FEA48622DD4B7BB3EE000BF07
:10292000B1F802746FF39F277FBB37E030F82120A6
:1029300043F60F731A404CF28003A3F500535A403C
:1029400020F821205FEA48627FF54EAF37B3DBF80D
:102950006411BBF85A211CE030F8212043F60F73B4
:102960001A404CF28003A3F500535A4020F821206E
:102970005FEA4862D1D530F8212048F2C00302EA6C
:102980000C021A4320F8212047B1DBF86411BBF890
:1029900058213B4606F0D4FF01E000BF0027DBF8DA
:1029A0006C11DBE9590239443844CBF86C11CBF88F
:1029B00064011AB1DBF86001B8420BD931782046C6
:1029C000FFF746FD40F60F7B5FEA08607FF592AEA9
:1029D0000AE000BF2068314606F06EFB40F60F7B30
:1029E0005FEA08607FF586AE206809EB890130F860
:1029F0001A2004EBC10502EA0B0101F5004120F8A1
:102A00001A10E97C05F11009012923D1297F002939
:102A10004FF00001A96200F03B815FEA486100F1DC
:102A20008780697C012900F01D81002940F03081F8
:102A3000B0F8501099F80020084400EBC200B0F83C
:102A400006146FF39F21A0F80614B0F8061441F4A1
:102A500000410FE15FEAC8511ED4B0F8502099F848
:102A60000010024402EBC102B2F80224AB6A6FF319
:102A70009F229B1A4FF0000738BF3B46AB6240F2E3
:102A80000981696AEB6A114469629918E9624946E9
:102A900006F012FB2EE600BFB0F8507099F8001057
:102AA0002A4652F8286F5FEA486300EBC10C59D4FC
:102AB0000CF2064E3EF8077000236FF39F27F61BBB
:102AC00038BF1E46166040F285805FEA484208D44F
:102AD00030F821204CF2800302EA0B021A4320F85E
:102AE00021202A4612F8341F012940F0A4812B46E8
:102AF00053F8308F53E904C153F8046C39443E4411
:102B0000E04543F80C1C43F8046C80F00381B8F1F5
:102B1000000F00F05D810027C4461F6017706A7CBB
:102B2000012A40F0FE80B0F850202EF802C075E176
:102B3000697C012900F0A280002940F0A980B0F84A
:102B4000501099F80020084400EBC200B0F80214BD
:102B50006FF39F21A0F80214B0F8021441F4004171
:102B600094E000BF0CF2024E3EF8077000236FF3B2
:102B70009F27F61B38BF1E4616604FD95FEA4842B2
:102B800008D530F821204CF2800302EA0B021A43E8
:102B900020F821202B4613F8341F012940F04B81E7
:102BA0002A4652F830CF52E9046152F8048C394475
:102BB000B844B44542F80C1C42F8048C80F0CC8038
:102BC0004FF00008BCF1000F83F8008040F0C78090
:102BD000BC46C6E06A7C012A6CD0002A74D1B0F8E9
:102BE00050206244B2F802346FF39F23A2F80234FB
:102BF000B2F8023443F40043A2F80234B0F85000B3
:102C00003EF800206FF39F222EF800203EF80020AF
:102C100042F400422EF8002056E000BF6A7C012AF0
:102C20005AD0002A62D1B0F850203EF802706FF3FB
:102C30009F272EF802703EF8027047F400472EF8E6
:102C40000270B0F850006044B0F806246FF39F2281
:102C5000A0F80624B0F8062442F40042A0F80624A6
:102C600044E000BFB0F8501099F80020084400EB91
:102C7000C2000021A0F806140AE000BFB0F850100E
:102C800099F80020084400EBC2000021A0F80214CB
:102C900099F800102046FFF7D1FB2BE5002B00F040
:102CA0007F8003F001078E5A07EB530346EA832324
:102CB0007CE000BFB0F8502000236244A2F8023448
:102CC000B0F850002EF800302046FFF7B7FB5FEA5F
:102CD000484012D5AFE000BFB0F8502000232EF8D6
:102CE0000230B0F850006044A0F806342046FFF7E8
:102CF000A5FB5FEA484040F19E80206899F80010EB
:102D00004CF2800330F8212002EA0B021A4320F82B
:102D1000212090E0A8EB0C021A606A7C012A3FF4A3
:102D200002AF002A7AD1B0F85070BCF13F0F3EF8E4
:102D300007206FF39F222EF8072051D35FEACC6360
:102D40004FEA5C1237F80E304FF0FF3608BF06EB43
:102D50005C1243EA82225DE0ACEB0608B446C2F89E
:102D600000806A7C012A2DD0002A5FD1B0F8507013
:102D7000BCF13F0F3EF807206FF39F222EF807208B
:102D80003AD35FEACC634FEA5C1237F80E304FF06B
:102D9000FF3608BF06EB5C1243EA822242E000BF26
:102DA0008B5A48F20007CFF6FF773B438B520188DE
:102DB00043F60F7211404CF28002A2F5805251404E
:102DC000018097E4B0F850202EF802C02EE000BF3A
:102DD00000231370BC466A7C012AA2D1A3E600BF7F
:102DE000BCF1000F14D00CF0010237F80E3002EBEA
:102DF0005C0243EA82220FE0BCF1000F10D00CF01D
:102E0000010237F80E3002EB5C0243EA82220BE04B
:102E100037F80E2042F4004227F80E206A8B06E0B5
:102E200037F80E2042F4004227F80E202A8B1FFAB2
:102E30008CF306F0DBFD206899F8001040F63F7334
:102E400030F821201A4048F2C003103B5A4020F8C5
:102E50002120FFF74FBC00BF2068B0F8441021F4D8
:102E60008061A0F84410204600F0E2F994F8900246
:102E700001280DD101B0BDE8F08F00BF2068B0F887
:102E8000441021F48041A0F8441001B0BDE8F08F57
:102E90000120002584F8900225732068002106F0A7
:102EA0009DFD84F8905201B0BDE8F08F2068B0F825
:102EB000441021F40051A0F8441001B0BDE8F08F97
:102EC0002068B0F8401021F00401A0F84010B0F8DC
:102ED000401021F00801A0F8401094F8C802012821
:102EE00006D1002084F8C80220460021FFF75EFAD0
:102EF000204600F0AFF92068B0F8441021F480516A
:102F0000A0F8441001B0BDE8F08F00BF2168B1F80F
:102F1000400040F00800A1F84000B1F8440020F45F
:102F20000060A1F84400B1F8400040F004022046DF
:102F3000A1F840200BE000BF2068B0F8441021F059
:102F40008001A0F8441094F8C81299B1204601B04D
:102F5000BDE8F04F00F0C8B92168B1F8440020F492
:102F600000722046A1F8442001B0BDE8F04F00F007
:102F700085B900BFB0F8401041F00401A0F840103E
:102F8000B0F8401041F00801A0F84010012184F889
:102F9000C812B0F854003C2101EA900220460121F9
:102FA000C4F8CC2201B0BDE8F04FFFF7FFB9000034
:102FB000F0B581B0002800F00381044690F891023A
:102FC00028B9002084F89002204600F0FDF8032084
:102FD00084F89102206806F00DF82179002900F0AC
:102FE000DD80A1F1010E01F0030CBEF1030F4FF0E3
:102FF000000334D301F0FC0004F1A00201260025F7
:103000006F1C02F8687CAF1C02F8905C02F8407CF0
:10301000EF1C043502F88F6C02F88D3C42E9203336
:1030200042F8783C02F8676C02F8653C42E91633D6
:1030300042F8503C02F83F6C02F83D3C42E90C3348
:1030400042F8283C02F8176C02F8187C02F8153C8C
:1030500042E9023342F8A03B8542D1D12B46BCF174
:10306000000F29D003EB830004EBC00501220020F0
:10307000BCF1010F6A742B74E874C5E90800A862FA
:103080001AD05D1C05EB850604EBC606BCF1020FE9
:1030900072743574F074C6E90800B0620CD0981CE4
:1030A00000EB800204EBC202012310740020537471
:1030B000D074C2E90800906200296FD0BEF1030FFE
:1030C0004FF0000233D301F0FC0004F5F07100234F
:1030D0005F1C01F8687C9F1C01F8903C01F8407C63
:1030E000DF1C043301F88F2C01F88D2C41E92022DC
:1030F00041F8782C01F8672C01F8652C41E916227B
:1031000041F8502C01F83F2C01F83D2C41E90C22EC
:1031100041F8282C01F8172C01F8187C01F8152C1F
:1031200041E9022241F8A02B8342D1D11A46BCF1D9
:10313000000F33D002EB820004EBC0010020BCF191
:10314000010F81F8510181F8502181F85301C1E943
:103150005800C1F8680121D0511C01EB810304EB38
:10316000C303BCF1020F83F8510183F8501183F8B7
:103170005301C3E95800C3F868010FD0901C00EB5D
:10318000800104EBC101002281F8512181F8500136
:1031900081F85321C1E95822C1F8682194E8070059
:1031A00005F01AFF00200121207384F89112A17A02
:1031B000012903D12046FFF7E3F8002001B0F0BD5C
:1031C000012001B0F0BD000010B592B0044601A886
:1031D00004304021FDF7E4F9206845F60041C4F2CF
:1031E0000001884202D012B010BD00BF4FF4005061
:1031F000019001A800F020F9002818BFFDF7D8FDC4
:1032000041F25800C4F202000168002241F40001BA
:1032100001600068052100F400000090009814206F
:10322000FEF792FF1420FEF77BFF12B010BD0000E6
:1032300010B504464079022818BFFDF7B9FDD4F84F
:10324000D802012104F094FBD4F8D802BDE8104064
:1032500004F040BB10B50446407A48B14EF6105019
:10326000CEF20000016821F00601016003F056FA79
:10327000D4F8D802BDE8104004F060BBD0F8D80202
:1032800004F066BB10B5044690F89002012804BF14
:10329000022010BD012084F890022173206806F0FE
:1032A0009DFB002084F8900210BD0000D0F8D822C9
:1032B00000F52671104604F071BB000010B50446FD
:1032C00090F89002012804BF022010BD206801215F
:1032D00084F8901206F020FB206805F073FE0020B1
:1032E00084F8900210BD000010B50446D0F8D80252
:1032F00004F0AAFB607A002808BF10BD4EF61050FB
:10330000CEF20000016841F00601016010BD00002E
:10331000B0F5007F42D0002840F0808047F21400D2
:10332000C4F2000050F8141CC26E01F4C06122F413
:103330008072B1F5806FC2662ED150F8141C012244
:1033400062F34A2140F8141C40F23411C2F2000129
:103350000968322251434DF68362C4F21B32A1FB4D
:103360000212910C0268520511D54A1C0FD0026856
:1033700052050CD559B10268520508D5012906D06D
:103380000268520503D50229A1F10401EAD10068BF
:10339000400544BF032070470020704747F21400E7
:1033A000C4F2000050F8141CC26E01F4C06142F473
:1033B0008072B1F5806FC266EED150F8141C012204
:1033C00062F34A2140F8141C40F23411C2F20001A9
:1033D0000968322251434DF68362C4F21B32A1FBCD
:1033E0000212910C0268520511D54A1C0FD00268D6
:1033F00052050CD559B10268520508D5012906D0ED
:103400000268520503D50229A1F10401EAD100683E
:10341000400544BF03207047BEE700BF47F21400D9
:10342000C4F2000050F8141C022262F34A2140F852
:10343000141C0020704700002DE9F04182B00446C2
:10344000807841F288060007C4F2020602D4002008
:103450002FE000BF56F8300C10F080580BD156F812
:10346000300C40F0805046F8300C56F8300C00F02C
:1034700080500190019847F20007C4F200073868B5
:1034800040F480703860FEF7C9FC05463868C00516
:1034900000F1D680FEF7C2FC401B0228F6D90320BB
:1034A000B8F1000F05D156F8301C21F0805146F8D4
:1034B000301C2168CA0713D18A0719D44A071FD4C0
:1034C0000A0725D48A062BD44A0631D40A0637D4F3
:1034D000CA053DD48A0543D44A0549D457E000BF04
:1034E0003268636822F003021A4332608A07E5D526
:1034F0003268A36822F00C021A4332604A07DFD513
:103500003268E36822F030021A4332600A07D9D5E4
:103510003268236922F0C0021A4332608A06D3D58A
:103520003268636922F440621A4332604A06CDD59C
:103530003268A36922F440521A4332600A06C7D5A2
:103540003268E36922F440421A433260CA05C1D5A9
:103550003268236A22F440321A4332608A05BBD5AE
:103560003268636A22F440221A4332604A050ED55B
:103570003268A36A22F440121A43B3F5801F326006
:1035800005D156F87C2C42F4801246F87C2C0A05B2
:103590000ED53268E36A22F440021A43B3F5800F75
:1035A000326005D156F87C2C42F4801246F87C2C0F
:1035B000CA040ED53268236B22F040721A43B3F16D
:1035C000807F326005D156F87C2C42F4801246F898
:1035D0007C2C8A040ED53268636B22F040621A4359
:1035E000B3F1006F326005D156F87C2C42F48012A2
:1035F00046F87C2C4A040ED53268A36B22F0406258
:103600001A43B3F1006F326005D156F87C2C42F4B6
:10361000801246F87C2C09040ED53168E26B21F04B
:1036200040511143B2F1805F316005D156F87C1CE6
:1036300041F4803146F87C1C02B0BDE8F08100BF47
:10364000B06810F4407010D0216C88420BD0B06884
:10365000B16820F4407041F48031B160B16821F468
:103660008031B160B060C0070CD1B068216C20F42B
:1036700040700843B0600020B8F1000F7FF419AF2C
:1036800011E700BFFEF7CAFB054641F2883700BFCD
:10369000B0688007E9D4FEF7C1FB401BB842F7D9F8
:1036A000FDE60000704700002DE9F04700286DD0CE
:1036B00042F2000AC4F2020A0446DAF800000D469B
:1036C00000F00F0088420CD2DAF8000020F00F0062
:1036D0002843CAF80000DAF8000000F00F00A84202
:1036E00054D1216841F20808C807C4F2020803D186
:1036F000880740F1D880BDE0606802283AD00328EE
:1037000040D158F8082C920140D5D8F80420D8F8B8
:10371000043042F20046C3F3031302F00302D8F868
:1037200004700133C0F2F406032A04BF43F20066BA
:10373000C0F26E16B6FBF3F2D8F80430C7F30627D2
:103740007A43C3F34163022707EB4303B2FBF3F26F
:103750004BF20043C0F2C4439A4261D9D8F800202A
:1037600012F0F00F51D089075AD5A168002957D11E
:103770004BE000BF58F8081C89035CBF0120BDE87E
:10378000F08707E058F8081C490503D40120BDE87C
:10379000F08700BFD8F8001001F00C0104293FD0D9
:1037A000D8F8001001F00C01082939D0D8F8001021
:1037B00001F00C010C2933D1D8F80410D8F80420FA
:1037C00042F20047C2F3031201F00301D8F80430BB
:1037D0000132C0F2F407032904BF43F20067C0F2CC
:1037E0006E17B7FBF2F1D8F80420C3F30623594350
:1037F000C2F34162022303EB4202B1FBF2F14BF24E
:103800000042C0F2C44291420AD9D8F800100822FE
:1038100062F307114FF00109C8F8001002E000BF81
:103820004FF00009D8F8001021F003010843C8F850
:103830000000FEF7F3FA064641F28837D8F8000098
:10384000616800F00C00B0EB810F07D0FEF7E6FADC
:10385000801BB842F2D90320BDE8F08721688807B1
:1038600008D4B9F1000F1ED0D8F8000020F0F00005
:1038700017E000BF480705D5D8F8000040F4E06025
:10388000C8F80000080706D5D8F80000072262F340
:103890000D20C8F80000D8F80000A26820F0F00061
:1038A0001043C8F80000DAF8000000F00F00A8424A
:1038B0001BD9DAF8000020F00F002843CAF80000F6
:1038C000FEF7ACFA064641F2883700BFDAF800008E
:1038D00000F00F00A84207D0FEF7A0FA801BB84204
:1038E000F4D90320BDE8F0872168480707D5D8F848
:1038F0000000E26820F4E0601043C8F80000080708
:1039000008D5D8F80000216920F4605040EAC100D1
:10391000C8F80000D8F8000042F20041C0F2F401FB
:1039200000F00C00042808462DD0D8F8000000F064
:103930000C00082843F20060C0F26E1023D0D8F8C3
:10394000002002F00C020C2A1CD1D8F80420D8F870
:10395000043002F00302C3F30313D8F804700133F8
:10396000032A08BF0146B1FBF3F0D8F80410C7F3EF
:103970000627C1F341610222784302EB4101B0FB0B
:10398000F1F000E00020D8F8001040F29042C1F3BE
:103990000311C0F60102515C40F2341201F01F0124
:1039A00020FA01F140F24C00C2F200000068C2F2BD
:1039B00000021160BDE8F047FEF73CBB41F2000099
:1039C000C4F20200016841F4002101607047000068
:1039D0000F22026041F20802C4F20202136803F0EF
:1039E00003034360136803F0F0038360136803F478
:1039F000E063C36012684FF4E06303EAD20202613D
:103A000042F20000C4F20200006800F00F000860FB
:103A10007047000040F23410C2F2000000687047A6
:103A200040F2341041F20801C2F20000C4F2020177
:103A30000068096840F2A042C1F30221C0F6010209
:103A4000515C01F01F01C8407047000040F2341083
:103A500041F20801C2F20000C4F2020100680968E4
:103A600040F2A042C1F3C221C0F60102515C01F054
:103A70001F01C8407047000080B541F20C01C4F23C
:103A8000020151F8040C42F20042C0F2F40200F0CC
:103A90000C000428104608BF80BD51F8040C00F04B
:103AA0000C00082843F20060C0F26E1022D051F8DA
:103AB000043C03F00C030C2B1CBF002080BDD1F88C
:103AC00000C00B680CF0030CC3F3031E0B680EF16F
:103AD000010EBCF1030F08BF02460968B2FBFEF0FD
:103AE000C3F30623C1F341610222584302EB4101B3
:103AF000B0FBF1F080BD000010B541F21C04C4F22F
:103B000002042068C00558BF10BDFFF7CBFD4FF47D
:103B10008070606010BD00002DE9F04182B0002887
:103B200000F006810446007841F20006C007C4F2A6
:103B3000020655D12078800774D42078000700F160
:103B400097802078400700F1B7802078800600F148
:103B50000781E569002D00F03082B06800F00C00AC
:103B60000C2840F05981012D00F0E280F068216AB4
:103B700000F003028A4240F0DB80626A6FF00F03BC
:103B800000F0F00103EB0212914240F0D180A16AF3
:103B900000F4FE42B2EB012F40F0CA80E16A00F06F
:103BA0007842B2EBC16F40F0C380226B0023CFF6A6
:103BB000E07303EA025200F4C001A2F50012914240
:103BC00040F0B680616B4FF07E4202EA016100F086
:103BD000C06001F17E41884240F0AA80EDE100BF63
:103BE000B06800F00C01F06808295BD0032281F076
:103BF0000C0122EA00000844B0FA80F0400951D1DB
:103C00006068B0F5803F07D0B0F5A02F40F0DA80B3
:103C1000306840F480203060306840F4803030609C
:103C2000DBE000BFB068F16800F00C00042869D048
:103C300001F0030180F00C0081F002010844B0FAA9
:103C400080F040095ED1E1683068002900F0D28040
:103C500040F480703060FEF7E1F8054630684005BA
:103C600000F1FC80FEF7DAF8401B0228F6D92EE1BD
:103C70006169D6F89400002900F0908040F00100BE
:103C8000C6F89400FEF7CAF8054600BFD6F89400BF
:103C900080073FF556AFFEF7C1F8401B0228F5D963
:103CA00015E100BF306880037FF544AF60680028ED
:103CB0007FF440AF3CE000BFB06D10F0805808D1F9
:103CC000B06D40F08050B065B06D00F08050019054
:103CD000019847F20007C4F200073868C0052BD4EA
:103CE000386840F480703860FEF798F8054600BFE9
:103CF0003868C00520D4FEF791F8401B0228F7D998
:103D0000E5E000BF3068400501D5E06880B170682B
:103D1000216920F0FE4040EA0160706040F24C00F2
:103D2000C2F200000068FEF785F900283FF405AFF5
:103D3000012002B0BDE8F081A068012808D0052864
:103D400040F0AA80D6F8900040F00400C6F8900039
:103D5000D6F8900040F00100C6F89000A9E000BF3E
:103D6000A169D6F89800002900F0808040F0010099
:103D7000C6F89800FEF752F8054600BFD6F898003E
:103D800080073FF5E6AEFEF749F8401B02284FF0EA
:103D90000300F3D902B0BDE8F08100BF20F00100BC
:103DA000C6F89400FEF73AF8054600BFD6F894002E
:103DB00080077FF5C6AEFEF731F8401B0228F5D923
:103DC00085E000BF3168002821F48031316031681E
:103DD00021F48021316000F07F80FEF71FF8054656
:103DE000306880033FF5A6AEFEF718F8401B642844
:103DF000F6D96CE020F480703060FEF70FF80546CD
:103E0000306840057FF599AEFEF708F8401B0228A0
:103E10004FF00300F4D9BDE7306820F080703060C7
:103E2000FDF7FCFF022D05460CD100BF3068800174
:103E300040F17E80FDF7F2FF401B02284FF00300A7
:103E4000F4D9A7E73068800140F1B080FDF7E6FFC4
:103E5000401B02284FF00300F4D99BE770682169EA
:103E600020F0FE4040EA0160706066E620F001004C
:103E7000C6F89800FDF7D2FF054600BFD6F89800B7
:103E800080077FF566AEFDF7C9FF401B02284FF0A3
:103E90000300F3D97EE700BFD6F8901021F00101AE
:103EA000C6F89010D6F8901021F00401C6F89010D2
:103EB00010B3FDF7B3FF054641F28837D6F89000FE
:103EC00080072BD4FDF7AAFF401BB842F6D9032088
:103ED00002B0BDE8F08100BFFDF7A0FF054600BFBE
:103EE000306880037FF526AEFDF798FF401B6428FD
:103EF0004FF00300F4D94DE7FDF790FF054641F27E
:103F0000883700BFD6F89000800707D5FDF786FFF9
:103F1000401BB8424FF00300F4D93BE7B8F1000F63
:103F20007FF413AEB06D20F08050B0650DE600BF99
:103F3000F06848F20C01C0F29F1104F1200700EA7A
:103F4000010C8ECF6FF00F00D4E90C5400EB02107F
:103F50000022CFF6E07241EA0C0102EA0552084362
:103F6000A2F500124FF07E4540EA032005EA046501
:103F7000104305F17E4540EAC7602843F060306891
:103F800040F080703060F06840F08070F060FDF7C5
:103F900045FF0446306880010FD4FDF73FFF001B4A
:103FA00002284FF00300F5D9F4E600BFF0684FF6A1
:103FB000FC71CFF6EE610840F060002002B0BDE871
:103FC000F0810000002804BF01207047B0B504460E
:103FD000406A28B10020206104F1140006E000BF0F
:103FE0006068B0F5827F03D004F11C0000210160FD
:103FF0000025A56294F85D0020B9204684F85C5045
:1040000000F052F8022084F85D002068D4F80CE03B
:104010000268BEF5E06F22F0400202604EF40062DA
:1040200098BF0125B2F5706F1CBF0023A3624FEA51
:10403000053CD4E90135D4E9042103F4827305F485
:1040400004452B4402F002021A44A36901F0010165
:10405000E569114403F40072114405F03802256A41
:10406000114405F08002A56A114405F40052114381
:1040700001600421626A0EF4706501EA1341636B0A
:1040800045EA0C0502F01002294303F0080311432E
:1040900019434160C16921F40061C161002001211F
:1040A000206684F85D10B0BD80B586B0006843F628
:1040B0000001C4F20001884202D006B080BD00BFFA
:1040C00041F24C00C4F20200C16841F48041C16079
:1040D000C16801F4804101910199016841F0020138
:1040E0000160006801A900F00200019001984FF4FE
:1040F00030400190022002900020CDE9030005200D
:10410000059040F20040C4F60000FDF7ABFD06B09C
:1041100080BD00007047000070470000704700003D
:10412000B0B590F83C20012A04BF0220B0BDD1E90F
:104130000232D1E900CE22F47C5223F4705343EAD8
:10414000020448F2FF73CEF6F0730EEA0302224334
:1041500003F5006404EA0C0442EA040C0C6903F55C
:10416000C05222404C6942EA0C02224303F56054DB
:1041700022400C6B03F5F04323401A438B6940F255
:10418000000CCC69CEF6FF7C0CEA03431443D0F854
:1041900000C043F20042C4F20102944543EA040322
:1041A00005D042F60042C4F20102944516D14FF602
:1041B000FF72CDF60F421A40D1E9083ED1E90A411B
:1041C0000025CDF6F04505EA0454224323F00853B8
:1041D0001A432EF000531A4342EA01030021CCF89F
:1041E000443080F83C100846B0BD00007047000025
:1041F000704700007047000070B590F83C20012A1D
:104200004FF0020247D080F83D20026843F2004C94
:1042100054689368C4F2010C42F6004E6245C4F241
:10422000010E01D0724503D14D6824F470042C4373
:104230004FF68F75CFF6FF550E682C4042F6FF35CE
:10424000C4F201053443AA4254600FDCB2F1804F3E
:1042500016D040F20046C4F20006B24210D040F63A
:104260000006C4F20006B2420AD00EE0724507D042
:1042700044F20006C4F20106B24201D0624504D104
:10428000896823F08003194391600121002280F89E
:104290003D1080F83C20104670BD000070470000C3
:1042A000002804BF0120704710B5044690F83D0077
:1042B00028B9002084F83C00204600F023F80220B2
:1042C00084F83D002068211D02F078FA012084F86E
:1042D000480084F83E0084F83F0084F8400084F8E9
:1042E000410084F8420084F8430084F8440084F8D4
:1042F000450084F8460084F8470084F83D0000201B
:1043000010BD000081B0006844F60001C4F2010154
:10431000884201D001B0704741F26000C4F202004F
:10432000016841F480210160006800F48020009061
:10433000009801B07047000090F83D1001291CBFA3
:1043400001207047022180F83D10016842F6FF32DB
:10435000C868C4F20102914240F00100C8600FDC5D
:10436000B1F1804F1ED040F20040C4F20000814203
:1043700018D040F60000C4F20000814212D01EE0C6
:1043800042F60040C4F2010081420BD044F200002A
:10439000C4F20100814205D043F20040C4F20100A2
:1043A00081420CD188680722C0F201020240062A2D
:1043B0004FF0000008D0B2F5803F08BF7047086892
:1043C00040F001000860002070470000002804BF92
:1043D000012070472DE9F047044690F83D000D4656
:1043E00028B9002084F83C00204600F04BF8022059
:1043F00084F83D0020684BF6F8728168CFF6FE72B3
:1044000011408160211D02F0D9F920684FF6FF7834
:1044100081688269D0F820C0D5E9003ED5E9026AFA
:1044200043EA0109AB6922EA080246EA03234FF690
:10443000FC46B343D5E9076742EA0A0229691A43F1
:1044400042EA062242EA01112CF0AA026B6942EA12
:104450000E0241EA073142EA0312C0F80890816176
:104460000262012084F8480084F83E0084F83F008E
:1044700084F8440084F8450084F83D000020BDE83D
:10448000F087000080B586B0006840F20041C4F2B9
:104490000001884202D006B080BD00BF41F24C004E
:1044A000C4F20200C16841F00201C160C16801F0BC
:1044B000020101910199016841F001010160006868
:1044C000002100F00100019001985020019002208D
:1044D0000290CDE90311059001A94FF09040FDF73E
:1044E000C1FB06B080BD000070470000F0B581B090
:1044F00004460068C5680669B10717D515F00201C2
:1045000014D06FF0020101610121217780698007D9
:1045100004D02046FFF7E8FF06E000BF204600F089
:1045200023FB204600F0E6FD00202077700719D518
:1045300015F0040016D020686FF00401016102211B
:104540002177806910F4407F04D02046FFF7CCFF2C
:1045500006E000BF204600F007FB204600F0CAFD41
:1045600000202077300717D515F0080014D02068F8
:104570006FF00801016104212177C069800703D031
:104580002046FFF7B1FF05E0204600F0EDFA204697
:1045900000F0B0FD00202077F00619D515F01000CE
:1045A00016D020686FF01001016108212177C069E1
:1045B00010F4407F04D02046FFF796FF06E000BFCE
:1045C000204600F0D1FA204600F094FD002020772C
:1045D000F00718BF15F0010006D020686FF0010148
:1045E0000161204600F088FD16F4025F05F08007A7
:1045F00018BF002F02D1F00509D410E020686FF435
:10460000025101612046FFF787FDF00507D537B15C
:1046100020686FF4807101612046FFF77BFD700612
:1046200009D515F0400006D020686FF04001016107
:10463000204600F06BFDB00609D515F0200006D02D
:1046400020686FF0200101612046FFF767FDF0024E
:1046500009D515F4801006D020686FF4801101612F
:104660002046FFF7C5FDB00209D515F4001006D0AD
:1046700020686FF4001101612046FFF7B7FD70025A
:1046800009D515F4800006D020686FF4800101611F
:104690002046FFF7AFFD30020CD515F4000009D01D
:1046A00021686FF4000220460A6101B0BDE8F040C5
:1046B000FFF7F4BD01B0F0BDF0B587B0006843F27C
:1046C000FF31C4F2010188424FF000010691CDE9AB
:1046D0000411CDE9021129DD43F20041C4F20101C8
:1046E000884247D044F20001C4F2010188426FD0F1
:1046F00044F60001C4F20101884240F0988041F282
:104700004C00C4F20200016841F00201016000683F
:1047100000F00200019001982020029002200390F6
:104720000020CDE904000A2078E000BFB0F1804FFE
:104730005ED042F60041C4F20101884277D141F2D5
:104740004C00C4F2020001684FF0904441F00101B6
:104750000160006800F00100019001984FF4C07002
:104760000290022003900020CDE90400062006906C
:1047700059E000BF41F24C00C4F20200016840F26F
:10478000004441F0040101600168C4F6000401F036
:104790000401019101990168022541F002010160C3
:1047A0000068002600F0020001900198402002906D
:1047B000042704F5806002A90395CDE904660697F5
:1047C000FDF750FA082002A961C1CDE905672AE08A
:1047D00041F24C00C4F20200016841F002010160A4
:1047E000006800F00200019001984FF480400EE054
:1047F00041F24C00C4F20200016841F00201016084
:10480000006800F00200019001984FF4806002906F
:1048100002200390002004900590012040F2004403
:104820000690C4F6000402A92046FDF71BFA07B063
:10483000F0BD0000F0B590F83C30012B04BF022021
:10484000F0BD4FEAB202052A00F25081DFE812F013
:10485000060046008E00D6001E0154010268146A4C
:10486000136AA2F1804523F0010313625368D2F862
:1048700018E08E68A5F59635D1F800C024F0020442
:104880004FEAB525072D44EA06040AD80126AE40B2
:1048900016F0E50F1FBFCE6824F00C0426F00406C6
:1048A0003443072D0BD8012606FA05F515F0E50F60
:1048B0001FBF23F44073D1E905562B4333434FF612
:1048C0008C75CFF6FE750EEA050646EA0C065360B7
:1048D00096614968516314623FE100BF026843F288
:1048E0000045146A136AC4F2010523F01003136231
:1048F0005368D2F818C0AA428D68D1F800E024F0BD
:10490000200444EA051405D042F60045C4F201052E
:10491000AA4207D1CD686FF0400624F0C00406EA31
:1049200005152C43A2F18045A5F596354FEAB5252E
:10493000072D0CD8012606FA05F515F0E50F1FBF67
:10494000D1E9055623F44063354343EA850348F62D
:10495000FF45CFF6FF650CEA050646EA0E265360D2
:104960009661496891631462F7E000BF026843F200
:104970000045146A136AC4F2010523F480731362BC
:104980005368D2F81CC0AA428D68D1F800E024F424
:10499000007444EA052405D042F60045C4F201053E
:1049A000AA4207D1CD6840F2FF462D0224F44064AC
:1049B000B5432C43A2F18045A5F596354FEAB525C0
:1049C000072D0CD8012606FA05F515F0E50F1FBFD7
:1049D000D1E9055623F44053354343EA05134FF616
:1049E0008C75CFF6FE750CEA050646EA0E06536096
:1049F000D6614968D1631462AFE000BF026843F238
:104A00000045146A136AC4F2010523F4805313624B
:104A10005368D2F81CC0AA428D68D1F800E024F493
:104A2000005444EA053405D042F60045C4F20105BD
:104A3000AA4207D1CD6844F6FF762D0324F4404402
:104A4000B5432C43A2F18045A5F596354FEAB5252F
:104A5000072D0CD8012606FA05F515F0E50F1FBF46
:104A6000D1E9055623F44043354343EA851348F61C
:104A7000FF45CFF6FF650CEA050646EA0E265360B1
:104A8000D66149681164146267E000BF0268D2F819
:104A900020C0136AA2F1804623F480331362A6F586
:104AA00096365368146D0D68D1F808E04FEAB626C3
:104AB000072E0AD8012707FA06F616F0E50F1EBFE3
:104AC0004E6923F4803343EA06234FF68C76CFF603
:104AD000FE760336344044EA05065360166549689D
:104AE0002CF4003747EA0E43916435E0012100229F
:104AF00080F83C200846F0BD0268D2F820C0136A56
:104B0000A2F1804623F480131362A6F5963653680B
:104B1000156D0C68D1F808E04FEAB626072E0AD8C2
:104B2000012707FA06F616F0E50F1EBF4E6923F4BB
:104B3000802343EA862348F6FF46CFF6FF6606F554
:104B40004076354045EA0426536016652CF400177C
:104B5000496847EA0E53D16413620021002280F8AD
:104B60003C200846F0BD000070470000002804BF4C
:104B70000120704710B5044690F83D0028B9002088
:104B800084F83C00204600F023F8022084F83D0021
:104B90002068211D01F012FE012084F8480084F8ED
:104BA0003E0084F83F0084F8400084F8410084F817
:104BB000420084F8430084F8440084F8450084F8F7
:104BC000460084F8470084F83D00002010BD000036
:104BD00082B0006843F20041C4F20101884215D05E
:104BE00042F60041C4F2010188421CD141F260004A
:104BF000C4F20200016841F400610160006800F441
:104C000000600190019802B0704700BF41F260005F
:104C1000C4F20200016841F400510160006800F430
:104C200000500090009802B0704700002DE9F0415C
:104C300090F83C30012B04BF0220BDE8F0814FEA20
:104C4000B202052A00F28A81DFE812F00600500065
:104C5000A400F8004C01900103681D6A1A6AA3F1D0
:104C6000804622F001021A621A465C6852F818CF98
:104C70008F68A6F59636D1F800E025F002054FEAD8
:104C8000B626072E45EA07050AD80127B74017F0D0
:104C9000E50F1FBFCF6825F00C0527F004073D4343
:104CA000072E0BD8012707FA06F616F0E50F1FBFEF
:104CB00024F44074D1E9056734433C434FF68C76C5
:104CC000CFF6FE760CEA060747EA0E075C609F61A6
:104CD0004F6809695F631D629F6947F008079F611C
:104CE0009F6927F004079F617DE100BF036843F2DD
:104CF00000461D6A1A6AC4F2010622F010021A6206
:104D00001A46D3F804C052F8188FB3428E68D1F80F
:104D100000E025F0200545EA061505D042F60046DC
:104D2000C4F20106B34207D1CE686FF0400725F008
:104D3000C00507EA06163543A3F18046A6F5963668
:104D40004FEAB626072E0CD8012707FA06F616F00A
:104D5000E50F1FBFD1E905672CF44064374344EAEF
:104D6000870C48F6FF44CFF6FF6404EA080444EADF
:104D70000E27C3F804C09F614F6809699F631D62D5
:104D80009F6947F400679F619F6927F480679F616F
:104D900028E100BF036843F200461D6A1A6AC4F2A4
:104DA000010622F480721A621A46D3F804C052F83F
:104DB0001CEFB3428E68D1F8008025F4007545EAF7
:104DC000062505D042F60046C4F20106B34207D1DB
:104DD000CE6840F2FF47360225F44065BE433543B6
:104DE000A3F18046A6F596364FEAB626072E0CD8D4
:104DF000012707FA06F616F0E50F1FBFD1E9056790
:104E00002CF44054374344EA071C4FF68C74CFF619
:104E1000FE740EEA040747EA0807C3F804C0DF611E
:104E20004F680969DF631D62DF6947F00807DF61CA
:104E3000DF6927F00407DF61D5E000BF036843F2B4
:104E400000461D6A1A6AC4F2010622F480521A62F0
:104E50001A46D3F804C052F81C8FB3428E68D1F8BA
:104E600000E025F4005545EA063505D042F6004637
:104E7000C4F20106B34207D1CE6844F6FF77360389
:104E800025F44045BE433543A3F18046A6F596364A
:104E90004FEAB626072E0CD8012707FA06F616F0B9
:104EA000E50F1FBFD1E905672CF44044374344EABE
:104EB000871C48F6FF44CFF6FF6404EA080444EA7E
:104EC0000E27C3F804C0DF614F6809691F641D62C3
:104ED000DF6947F40067DF61DF6927F48067DF611E
:104EE00080E000BF0368D3F820C01A6AA3F18047AE
:104EF00022F480321A621A46A7F596375D6852F896
:104F0000508FD1F800E08E684FEAB727072F09D8F5
:104F10000124BC4014F0E50F1EBF4C6925F4803518
:104F200045EA04252CF4003747EA06474FF68C760D
:104F3000CFF6FE76033606EA080646EA0E065D6000
:104F40001E654E6809699E641F621F6D47F0080761
:104F50001F651F6D27F004071F6544E00121002233
:104F600080F83C200846BDE8F08100BF0368D3F814
:104F700020C01A6AA3F1804722F480121A621A46EE
:104F8000A7F596375D6852F8508FD1F800E08E682B
:104F90004FEAB727072F09D80124BC4014F0E50FCA
:104FA0001EBF4C6925F4802545EA84252CF40017A2
:104FB00047EA065748F6FF46CFF6FF6606F5407605
:104FC00006EA080646EA0E265D601E654E68096917
:104FD000DE641F621F6D47F400671F651F6D27F4B5
:104FE00080671F65090213681943116000210022C0
:104FF00080F83C200846BDE8F0810000002804BF8E
:105000000120704710B5044690F83D0028B90020F3
:1050100084F83C00204600F023F8022084F83D008C
:105020002068211D01F0CAFB012084F8480084F8A3
:105030003E0084F83F0084F8400084F8410084F882
:10504000420084F8430084F8440084F8450084F862
:10505000460084F8470084F83D00002010BD0000A1
:1050600070B582B00446006844F20001C4F2010148
:1050700088422FD0B0F1804F39D141F25800C4F2AC
:105080000200016840F62C3541F001010160006822
:10509000C2F2000500F00100019001980820C4F25E
:1050A00002003A21102200234FF0800C4FF4007EC2
:1050B0004FF4006685E80F502846C5E906632B6269
:1050C000FCF726FD002818BFFBF772FEE562AC6214
:1050D00002B070BD41F25800C4F20200816841F490
:1050E00080318160806800F480300090009802B0C8
:1050F00070BD000070470000006841F20041C4F23A
:105100000001884218BF7047FCF776BF7047000067
:1051100090F88410012904BF022070472421C0F8B0
:10512000881002681168136823F00103136021F0EE
:1051300000530021416613602022C0F8882080F8C7
:105140008410084670470000B0B590F88420012A0A
:1051500004BF0220B0BD2422C0F888200268D0F825
:1051600064E0D2F800C01368BEF1000F23F0010321
:105170001360936823F0606341EA0301916019D0E2
:105180009368916840F2185E490FC0F6010E40F234
:1051900020551EF80140C0F60105695CC3F3426367
:1051A000E400B4FBF1F11EF80340EB5CE500B5FB55
:1051B000F3F301E001210123A0F86A102021A0F8F7
:1051C0006830C2F800C0C0F88810002180F8841050
:1051D0000846B0BDB0B590F88420012A04BF022073
:1051E000B0BD2422C0F888200268D0F864E0D2F86C
:1051F00000C01368BEF1000F23F001031360936831
:1052000023F0604341EA0301916019D093689168EB
:1052100040F2185E490FC0F6010E40F220551EF80C
:105220000140C0F60105695CC3F34263E400B4FBCE
:10523000F1F11EF80340EB5CE500B5FBF3F301E090
:1052400001210123A0F86A102021A0F86830C2F8DB
:1052500000C0C0F88810002180F884100846B0BD56
:1052600010B5D8B10446D0F8880028B9002084F8D9
:105270008400204600F026F82420C4F88800206826
:10528000A16A026822F00102026011B1204601F019
:1052900023FB204601F04CFC012801D1012010BD68
:1052A0002168486820F490404860886820F02A000F
:1052B0008860086840F0010220460A60BDE810409E
:1052C00001F07EBB10B598B0044600201790CDE9E0
:1052D0001500CDE9130002A84421FBF761F920680D
:1052E00044F60001C4F20001884227D043F60001D1
:1052F000C4F20101884251D10120029002A8FEF7B8
:105300009BF8002818BFFBF753FD41F24C00C4F294
:105310000200416941F480414161416901F48041E9
:1053200001910199016841F004010160006800F0F9
:10533000040001900198302021E000BF0420029079
:1053400002A8FEF779F8002818BFFBF731FD41F2FB
:105350004C00C4F20200C16841F48021C160C16800
:1053600001F4802101910199016841F0040101607B
:10537000006800F00400019001984FF44060139021
:10538000022014900020CDE915000720179040F668
:105390000000C4F6000013A9FCF764FC18B010BDAF
:1053A00080B582B001A9FBF755FABDF8040002B040
:1053B00080BD00002DE9F0410C46054603F06CFB72
:1053C000284603F04FFA40F23848C5EB0517C2F201
:1053D000000808EB87067060284603F013FA58F8B7
:1053E0002710B06001F130028260336B7268D6F82A
:1053F0000CC0C3604FF4847343600368374643F0C6
:105400000103036001F124009060086941F67E62A7
:105410001043086147F8344FC868012C20F0400061
:1054200018BF4030C8609CF80800800710D5012CD8
:1054300018BF02242846214603F044FA3168C868A0
:1054400040F48030C860086940F4801008613C680E
:10545000C8684FF4006220F44060012C08BF4FF48C
:1054600080621044C860C86820F01000C8600868F6
:1054700040F080400860086840F000500860BDE8D7
:10548000F0810000F0B581B040F23847C0EB001663
:10549000C2F20007044657F8260007EB86050168AC
:1054A00021F080410160016821F000510160C16874
:1054B00021F02001C1604FF440410161204603F01A
:1054C00085F8204603F080F857F82600C16841F4BB
:1054D0004061C16028690078400702D42046FBF78C
:1054E000B1F9E868007A800704D52868C16821F41A
:1054F0008031C1600020686301B0BDE8F04003F076
:10550000B7BA0000FEE700002DE9F041D2E90284BD
:1055100002F11007E0CF44EA08042C4319A5D3692F
:1055200034436D5C3C43D2E900CE2343946A2E5849
:1055300047F6F0772343BE432C1833432B50C4F86F
:105540000CE0C4F808C0136A67684FF6FF76B743EB
:105550003B4363606FF0070303EAD01080F4000060
:1055600080F48060890040F6000301EB8001C4F202
:105570000203526AC85820F0FF0002430020CA50BC
:10558000BDE8F081081C3044586C000080B52C2127
:10559000FBF706F880BD00002DE9F04F0C6894FA87
:1055A000A4F2B2FA82F234FA02F363D04FF00108A7
:1055B0004FF0030B0BE000BFD1E900470568B7408F
:1055C0002B403B430360013234FA02F352D008FA15
:1055D00002F314EA030CF6D0D1F80490A9F1010308
:1055E000022B1BD29CFAACF6B6FA86F77E00D0F8F6
:1055F00008A00BFA06F3D1E902BE2AEA030A0BFA65
:1056000006F545EA0A05856045684FF0030BA5439A
:105610000EFB04F4DB432543456007E09CFAACF342
:10562000B3FA83F77E000BFA06F3DB430D69C46817
:10563000B5401C402543B9F1020FC560BCD14FEA0B
:105640001C2494FAA4F4D1F814E0BCF5807F28BFA0
:10565000B4FA84F74FF0240438BF202450F804C073
:10566000BF000F25BD402CEA05050EFA07F72F43B2
:105670000751A1E70020BDE8F08F000080B581B0A0
:1056800002464AF20000C4F2000082420CD141F20C
:105690005C00C4F20200036843F480730360006896
:1056A00000F48070009000981068002320F0004003
:1056B00010601068CFF6F17300EA030CD1E90030F6
:1056C000D1E902E143EA0C0343EAC02040EA8E102C
:1056D00001430020116001B080BD00004FF4003193
:1056E000072210234FF00D0C80E80E1070470000C9
:1056F00010B58CB040F66010C2F200004FF0A0412F
:1057000000244FF44032042380E816000121CDE943
:105710000A44CDE90744CDE90544CDE90344CDE988
:105720000144C0E90344C0E905438483016280F871
:105730002440C0E90B4480F83840C46380F84040FE
:10574000FBF776FD002818BFFBF732FB40F6601030
:10575000C2F2000009A90994FBF730FB002818BF2A
:10576000FBF726FB42F20000CBF29060019006208E
:105770007F2102900020049104210390CDE90510BF
:1057800040F66010C2F2000001A9FBF777FB002889
:1057900018BFFBF70DFB0CB010BD0000B0B588B012
:1057A00040F6CC1040F20011C2F20000C5F2000138
:1057B00000244FF44032042580E816000121CDE991
:1057C0000644C0E90344C0E905458483016280F8CA
:1057D0002440C0E90B4480F83840C46380F840405E
:1057E000FBF726FD002818BFFBF7E2FA0020CCF2F9
:1057F000293000900620CDE901047F20CDE9030582
:1058000040F6CC10C2F2000069460594FBF736FB67
:10581000002818BFFBF7CCFA08B0B0BD80B540F641
:10582000382040F20021C2F20000C4F2010100223F
:10583000502380E80E00C0E90322C0E90522FBF7EF
:10584000D5FE002808BF80BDBDE88040FBF7B0BA98
:1058500080B540F65C2040F2042CC2F20000C4F295
:10586000010C4FF4807250230021C0E900C2C0E94E
:105870000231C0E904118161FBF7B8FE002808BFBE
:1058800080BDBDE88040FBF793BA000080B540F6CC
:10589000802040F20C21C2F20000C4F2010100227B
:1058A000402380E80E00C0E90322C0E90522FBF78F
:1058B0009DFE002808BF80BDBDE88040FBF778BA98
:1058C00080B58CB0684604302C21FAF769FE40F6AA
:1058D000A42040F60001C2F20000C5F20001016000
:1058E000FCF77EF8002818BFFBF762FA02200021BF
:1058F0000090CDE90410CDE9060140F6A420ADF8F2
:105900000410CDE90211C2F2000069460022FBF743
:1059100077FF002818BFFBF74BFA40F6A420C2F22D
:10592000000069461022FBF76BFF002818BFFBF749
:105930003FFA0CB080BD000080B58CB068460430E2
:105940002C21FAF72DFE40F6B82041F20001C2F2F8
:105950000000C5F200010160FCF742F8002818BF02
:10596000FBF726FA022000210090CDE90410CDE9D2
:10597000060140F6B820ADF80410CDE90211C2F2DC
:10598000000069461022FBF73BFF002818BFFBF719
:105990000FFA0CB080BD0000F0B583B041F24800B2
:1059A000C4F202000168002241F0040101600168B4
:1059B000052701F00401029102990168002541F0D8
:1059C000010101600068052100F0010001900198CB
:1059D0000B20FCF7B9FB0B20FCF7A2FB0C200521E8
:1059E0000022FCF7B1FB0C20FCF79AFB0D200521EF
:1059F0000022FCF7A9FB0D20FCF792FB4EF60C50A1
:105A0000CEF2000001680423C1F3022181F00702F5
:105A1000042A28BF1A464FF0FF34033904FA02F271
:105A200038BF294627EA020202FA01F14EF20E427D
:105A30000901CEF2000211704EF20011CEF2000107
:105A40004FF480460E600068C0F3022080F0070625
:105A5000042E38BF3346033804FA03F338BF284610
:105A600027EA030303FA00F0000150704FF40040EE
:105A7000086003B0F0BD000080B546F2F56040F26A
:105A80002852C0F60000C0F60102002104F0D6F949
:105A900040F28C61C2F20001086080BD2DE9F04344
:105AA00087B0002741F24C000697C4F2020001685B
:105AB00040F2004941F0200101600168C4F600098C
:105AC00001F0200101910199016809F5806641F01A
:105AD000040101600168002201F0040101910199B3
