:020000040800F2
:10000000F07E0020550300089D660008915C000802
:1000100099660008991B0008A993000800000000D9
:10002000000000000000000000000000116A00084D
:10003000E12300080000000071670008356A00082D
:100040006F0300086F0300086F0300086F030008C8
:100050006F0300086F0300086F0300086F030008B8
:100060006F0300086F0300086F030008D92200081F
:10007000E5220008F1220008FD220008FF22000806
:1000800001230008000000006F0300086F03000850
:10009000658200086F0300086F030008E32300086F
:1000A0006F0300089F6D00086F0300086F030008CE
:1000B0006F030008AB6D00086F0300086F030008B2
:1000C0006F0300086F0300086F0300086F03000848
:1000D0006F030008ED7300086F030008F973000850
:1000E0006F0300086F0300086F0300086F03000828
:1000F0006F0300086F0300086F0300080000000092
:10010000000000006F030008000000006F030008FB
:100110006F03000800000000B76D0008E16D0008E3
:100120000D2300086F0300086F0300086F03000829
:100130006F03000800000000000000007572000856
:100140006F0300086F0300080000000000000000BB
:10015000000000000000000000000000000000009F
:100160000000000000000000000000006F03000815
:100170006F03000800000000000000000000000005
:10018000000000006F0300080000000000000000F5
:10019000000000000000000000000000000000005F
:1001A00000000000000000006F0300086F0300085B
:1001B0000B5D0008975C00086F030008000000005A
:1001C000000000006F0300080000000000000000B5
:1001D0006F0300086F03000800F002F800F0ABF8AE
:1001E0000AA090E8000C82448344AAF10107DA4592
:1001F00001D100F0A0F8AFF2090EBAE80F0013F039
:10020000010F18BFFB1A43F001031847007C0100DF
:10021000207C01000A4410F8014B14F00F0508BFC0
:1002200010F8015B240908BF10F8014B6D1E05D0C2
:1002300010F8013B6D1E01F8013BF9D1641E03D09B
:10024000641E01F8015BFBD19142E4D370470000CA
:100250000023002400250026103A28BF78C1FBD8CF
:10026000520728BF30C148BF0B6070476E2900F0AD
:100270002784702901F00D81662915F00D86652906
:1002800015F00A86672915F00786612915F006869C
:1002900003681B0A28BF41F08001692900F05E81D4
:1002A000642900F05B81752900F058816F2901F005
:1002B0009B80782901F0D980E92901F03580E42973
:1002C00001F03280F52901F02F80EF2901F09880AC
:1002D000F82901F0D8800368DB0928BF41F08001CC
:1002E000632900F0B787732900F0BC87E32901F088
:1002F000B581F32901F0BA81002070471FB515F0D0
:10030000BEFD9DE8030000F02FFB01F0F1F80400B2
:100310000020002115F026FD401C60600020002117
:1003200015F00AFDE06001F0F1FB1FBD10B50020E3
:1003300001F036FA10BD01F078FA1146FFF7DEFF42
:100340000CF0B8F801F09EFA03B4FFF7EFFF03BC1E
:1003500000F0E8FA0948804709480047FEE7FEE751
:10036000FEE7FEE7FEE7FEE7FEE7FEE7FEE7FEE765
:1003700004480549054A064B704700008D6D00088A
:10038000D9010008F05D0020F07E0020F07D002003
:10039000F07D002070B5064600F0CAFA056806F147
:1003A0000B0020F00704B4429CBF002070BD2B4618
:1003B0006A68BAB11068A04210D304F108018842FB
:1003C0003CBF5068586007D35168101941601168EC
:1003D000091B016058601460101D70BD13465268FF
:1003E000002AE7D12146284600F0AAFA0028DED1EB
:1003F00070BD70B50446051F00F09AFA0068002C25
:1004000014BF446870BD002C18BFAC423CBF2046EE
:100410006468F8D301680A18AA4218BF456003D17E
:100420002A6805461144016028684119A1421CBF91
:100430006C6070BD6168696021680844286070BDA7
:100440007CB51D4616460C00009007D04142A142E3
:1004500002D32044401E01E04FF0FF30064B7B44A6
:100460002A4669460190304600F0CFFE002C02D0AB
:10047000009A002111707CBDCF0D00000FB41CB597
:100480000C0007AA009007D04142A14202D32044A9
:10049000401E01E04FF0FF30074B7B44694601905E
:1004A000069800F0B2FE0021002C01D0009A1170D5
:1004B0001CBC5DF814FB0000930D000070B50446F1
:1004C00085690068C10601D5302600E02026C007F6
:1004D00007D070BDD4E9012130469047206A401C06
:1004E00020626D1EF6D570BD70B504468569007832
:1004F000C00707D170BDD4E9012120209047206AB0
:10050000401C20626D1EF6D570BD70B50C460546C8
:10051000012A05D02878800600D5EA69002302E088
:10052000012305E05B1C934202D2E05C0028F9D174
:10053000A869E618C01AA861286A184428622846E3
:10054000FFF7BCFF04E0D5E9012114F8010B904747
:10055000B442F8D32846FFF7C7FF70BD2DE9F0413C
:100560000646002410687529314616A510D000F003
:100570003CFA002802DA404213A507E031688A07F6
:1005800001D512A502E0490704D511A5012401E017
:1005900000F034FA00210A2206F1240709E0B0FB3A
:1005A000F2FCB0FBF2F302FB1C003030785418462A
:1005B000491C0028F3D123462A463046BDE8F041C5
:1005C00000F025BA000000002D0000002B00000004
:1005D000200000002DE9F05F894604464FF0000A34
:1005E000DFF874B1FB44C0F820A02046E1688847DA
:1005F000002874D0252806D0D4E901219047206A2C
:10060000401C2062F1E700265F462046E1688847EB
:100610002028054607DB312D05D2781910F8200C6B
:1006200008B10643F1E7B00701D526F00406C4F887
:100630001CA00027C4F818A02A2D09D0284615F0C0
:1006400073FB38B304EB8708303DC8F8185019E045
:1006500059F8041B204604EB87029161E168884742
:10066000012F054618D1E069002820DA26F020067F
:100670001DE0D8F8180000EB800005EB4000303892
:10068000C8F818002046E1688847054615F04CFB7D
:100690000028EED1012F0AD02E2D08D12046E16886
:1006A00088477F1C0546022F46F02006C4DBA06960
:1006B000002803DA404246F00106A061F00701D0AD
:1006C00026F010066C2D0BD0682D09D04C2D39D09A
:1006D0006A2D35D0742D35D07A2D33D016E038E020
:1006E000E1682F4620468847B842054609D16C2F5D
:1006F00026D04FF48060E1680643204688470546CF
:1007000004E06C2F1AD04FF4807006430DB3A5F1AE
:100710004100192802D8203546F400664A46294689
:10072000204626604E46FFF7A1FD80B101280BD080
:10073000F61D26F0070000F1080956E74020E4E71F
:100740008020D8E70020D6E706F104094DE72846C7
:1007500052E7206ABDE8F09FD458010010B5002090
:1007600000F0B9FEFFF7E2FDBDE81040012000F007
:10077000D9B80B460146184600F096BE032A40F24F
:10078000308010F0030C00F0158011F8013BBCF133
:10079000020F624498BF11F801CB00F8013B38BF4B
:1007A00011F8013BA2F1040298BF00F801CB38BF59
:1007B00000F8013B11F0030300F02580083AC0F077
:1007C000088051F8043B083A51F804CBA0E808101F
:1007D000F5E7121D5CBF51F8043B40F8043BAFF352
:1007E0000080D20724BF11F8013B11F801CB48BFAC
:1007F00011F8012B24BF00F8013B00F801CB48BFE2
:1008000000F8012B704710B5203AC0F00B80B1E81A
:100810001850A0E81850B1E81850A0E81850203A35
:10082000BFF4F5AF5FEA027C24BFB1E81850A0E83E
:10083000185044BF18C918C0BDE810405FEA827C58
:1008400024BF51F8043B40F8043B08BF7047D2076F
:1008500028BF31F8023B48BF11F8012B28BF20F810
:10086000023B48BF00F8012B704702F0FF0343EA48
:10087000032242EA024200F00AB802F0FF0343EA10
:10088000032242EA024200F024B84FF00002042999
:10089000C0F0128010F0030C00F01B80CCF1040CAF
:1008A000BCF1020F18BF00F8012BA8BF20F8022BE3
:1008B000A1EB0C0100F00DB85FEAC17C24BF00F889
:1008C000012B00F8012B48BF00F8012B70474FF0B7
:1008D000000200B5134694469646203922BFA0E890
:1008E0000C50A0E80C50B1F12001BFF4F7AF09079C
:1008F00028BFA0E80C5048BF0CC05DF804EB89008D
:1009000028BF40F8042B08BF704748BF20F8022BCF
:1009100011F0804F18BF00F8012B704770477047E7
:100920007047000001491820ABBEFEE72600020018
:10093000004870476C21002070477047704770472F
:1009400038B504460A4600206946AFF30080002807
:1009500008BF38BD02460099204600F0D5FD0120B1
:1009600038BD012000F05ABFF8B5AFF3008005464E
:1009700000200C46102000BF0646A819A0420DD941
:10098000324669460020AFF30080070008BF00F040
:1009900045FF0098A04218BF0546C419FFF7C8FFDD
:1009A00005600746F01D20F007004619284600F0B4
:1009B0000AF8B44208BFF8BDA21B31463868BDE84A
:1009C000F84000F0A1BD00210160C0E901107047AE
:1009D0001020704710B500F093FD006810BD10B5F1
:1009E000044600F08DFD046010BD09684A0501D57C
:1009F00040B27047C905FCD500B2704709684A0586
:100A000001D5C0B27047C905FCD580B270472DE949
:100A1000F0470D4699469246044600F124080168C5
:100A2000880604D5E06921F01001216000E0012072
:100A3000A84201DD471B00E00027A1697A1902EBFB
:100A40000900081AA0612078C00602D42046FFF7EA
:100A500035FD002608E0D4E901211AF80600904788
:100A6000206A401C761C20624E45F4DB2078C006CC
:100A70000AD52046FFF722FD06E0D4E90121302007
:100A80009047206A401C2062381EA7F10107F4DC61
:100A900007E0D4E9012118F805009047206A401CBE
:100AA0002062281EA5F10105F3DC2046FFF71CFD9E
:100AB0002078000602D50220BDE8F0870120FBE780
:100AC00011680268006A530501D508700AE0D30571
:100AD00001D5088006E0130603D5C217C1E900025C
:100AE00000E00860012070472DE9FF4F0C461E46CC
:100AF0004FF0FF378BB0D2E90001DDF860800A903B
:100B00008A46C1F30A5505B93D46002108464FF013
:100B10000000BAF1000F00F4400005DA00EB80009D
:100B20004FF4400101EA50004FEA9059B9F1010F2A
:100B300000DDB9460A9850EA4A000ED044F610503B
:100B4000A5F2FF3545432F14B8F1000F1ED07542B2
:100B5000291E1EDDC9F100021CE0B8F1010F4FF0A3
:100B6000000001D0302103E0F24305E02154401C95
:100B7000B042FBDB30460022002121540B99C1F822
:100B80000880C1E900200FB0BDE8F08FBD1B6D1CCF
:100B9000DEE74A4600DA694206A800F06BFD06ABC4
:100BA00093E8070003AB83E8070050460A9910F06A
:100BB00057FA8DE80700A0F500501F380090039801
:100BC000002D0ADD42F21F014A460844002303A912
:100BD0000390684610F0C0FC09E0A0F500504A46BA
:100BE0001F38002303A90390684610F0CAFC8DE863
:100BF00007000004000C03D04FF0FF30410800E074
:100C00001046B8F1000F03D00022009215461EE0F6
:100C1000751E05D400F092FC303262556D1EF9D578
:100C2000B3460122084302D000227F1C04E0207852
:100C3000302801D100227F1E002A099784D01DE0B0
:100C4000112D07DA00F07AFC303262556D1C50EA43
:100C50000102F5D1084302D00098C8B10EE000218E
:100C6000681E05E0235C625C63542254401E491CEC
:100C70008142F7DBAB46A81B401E0990002004F818
:100C80000B000B98099AC0F80880C0E9002B7AE79E
:100C900011264FF0000857E72DE9F04F884604462B
:100CA000D21D22F0070191B0D1E90001CDE90A017E
:100CB00014F0B6FC02460B98C00F01D02D2007E0BF
:100CC0002068810701D52B2002E0202101EAC00025
:100CD000032A099001D0072A05DB03464146204636
:100CE00000F072FC0BE12078800601D5E06900E09D
:100CF0000620B8F1650F814606D0B8F1660F18D00E
:100D0000B8F1670F70D131E00020B9F1110F0090F8
:100D100001DB112301E009F101030AAA01A90CA8D2
:100D2000FFF7E2FEDDE90C70002609F101058346BC
:100D300047E001204B4600904FF000470AAA01A966
:100D40000CA8FFF7D1FEDDE90DB00C995D46002639
:100D500010B909F101000D18B9EB050003D4C0F179
:100D6000FF3609F10105A5EB09002BE0B9F1010FF0
:100D700001DA4FF001090020B9F1110F0090484647
:100D800001DD112300E003460AAA01A90CA8FFF720
:100D9000ABFEDDE90C704D46002683462078000747
:100DA0000AD4AB4500DA5D4601A8012D04DD4119E6
:100DB00011F8011C302907D04F4502DA17F1040F52
:100DC00004DA012082460FE06D1EEEE7002F02DC00
:100DD000ED1B3E4403E0781CA84200DD7D1CB81BDF
:100DE00000F1010A4FF000472078000703D4AA451C
:100DF00001DB4FF0FF3A0021B7F1004F0DF143083E
:100E00008DF8431024D002202B23002F01DA7F42DB
:100E10002D230A21021EA0F1010000DC5FB197FB27
:100E2000F1FC97FBF1F201FB1C7C17460CF1300C36
:100E300008F801CDEEE7A8F101000370218809054B
:100E400001D5452100E06521A0F1010800F8011C51
:100E500009980FA9A1EB0807FF1D00B10120411956
:100E600001EBEA70A1693844081A401EA06120789D
:100E7000C00602D42046FFF721FB099828B1D4E927
:100E800001219047206A401C20622078C00622D5AC
:100E90002046FFF713FB1EE0002E04DBB34502DD06
:100EA00001A8805D00E03020D4E901219047206A4C
:100EB000401C2062761CAAF101005FEA000A0AD1F8
:100EC00000F016FBC0680168405CD4E9012190473E
:100ED000206A401C2062281EA5F10105DCDC07E029
:100EE000D4E9012118F8010B9047206A401C2062C8
:100EF000381EA7F10107F3DC2046FFF7F5FA0320BF
:100F000011B041E62DE9F04F04460D46D21D22F006
:100F1000070089B0D0E900974846394614F080FBB5
:100F20000246F80F01D02D2307E02068810701D584
:100F30002B2302E0202101EAC0038DF820300BB101
:100F4000012000E00020032A824601D0072A04DBAA
:100F50002946204600F038FB3FE12078800601D486
:100F60000D2500E0E569C7F30A560D2D49DA002189
:100F70004FEA175B08464FF00000002F00F44000D6
:100F800007DA00EB80004FF4400100EBD07001EA7B
:100F900060008115012901DD4FF0FF3100224FEA89
:100FA000850CBCF1180F06D31346ACF118004FF0B6
:100FB0008052C24003E04FF4801323FA0CF30CF18B
:100FC0000C0CBCF1200F04D3ACF1200C09FA0CF08E
:100FD00001E007FA0CF000294FF0004801DD18B9D4
:100FE0000FE00ED140450CD319EB02095F4121B946
:100FF000404502D19F4329EA0209BBEB175F00D0AD
:10100000761C2088000502D57B48784402E07A48A7
:101010007844193808AA302302F80A30037C0AF110
:101020000101002E0AF1020A53546A4602DC4FF015
:10103000300101E04FF031014FF001088DF8001050
:1010400002D0A6F2FF3603E059EA470100D06B4E0A
:10105000002D02DC2178090704D54FF002082E216B
:101060008DF80110C44600210BE0C7F303433F0194
:10107000C35C491C6D1E02F80830052908F10108FF
:1010800001DA002DF1DC00210CE000EB1973491CA2
:101090001B786D1E082902F808304FEA091908F17B
:1010A000010801DA002DF0DC21688B0602D516E07C
:1010B000A8F10108E04505DD02EB080313F8013C47
:1010C000302BF5D0B8F1000F09DD02EB080313F85F
:1010D000013C2E2B03D1090701D4A8F10108002DF2
:1010E00005DD3E2102F808106D1E08F10108407C64
:1010F000002E02F8080008F1010804DA2D207642DB
:1011000002F8080002E02B2002F808000A214FF440
:101110007A70864208F101080BDB96FBF0F330335E
:1011200002F8083096FBF0F308F1010800FB1366A3
:1011300001E0642E0CDB642096FBF0F3303302F800
:10114000083096FBF0F308F1010800FB136601E09C
:101150000A2E06DB96FBF1F0303002F8080008F1A9
:10116000010896FBF1F001FB1060303002F8080036
:10117000A16908F1010808EB050202EB0A00081A50
:10118000A0612078C00602D42046FFF797F9216AB3
:1011900008AE01EB0A00206204E0D4E9012116F850
:1011A000010B9047BAF1010AF7D22078C00602D5A8
:1011B0002046FFF783F96E4609E016F8010B3E283A
:1011C0000FD0D4E901219047206A401C2062B8F179
:1011D0000108F2D22046FFF787F909B00320BDE8E5
:1011E000F08F206A2844206203E0D4E901213020F6
:1011F00090476D1EEBD3F8E71550010002FCFFFF8E
:1012000001694A1C02610878704700B58FB0CDE9CA
:1012100001310021059105497944CDE903101146BA
:101220006846FFF7D7F90FB000BD0000E5FFFFFFEC
:10123000D1E900239A4202D2531C0B601070704710
:1012400010B5436913B1AFF3008001E0FFF75DF91A
:10125000012010BD127800F124010A7000224A70AA
:101260000122EDE711684FF0FF32E9E72DE9FF5F5A
:1012700015468A460446DFF8AC80F8440027D8E9D2
:1012800000103E46CDE9001010E03AF816106A460C
:1012900002A800F061FA411C07D02178890603D525
:1012A000E269391891420DD80744761C20788006EF
:1012B00002D5E069B84205DDAE42E6DB3AF8160039
:1012C0000028E2D1A069C01BA0612046FFF7F6F814
:1012D000D8E90010CDE90010002017E03AF8181006
:1012E0006A4602A800F038FAB0F1FF3F81460BD001
:1012F00000250DF1080B05E0D4E901211BF80500DC
:1013000090476D1C4D45F7D308F10100B04280466F
:10131000E4DB206A384420622046FFF7E5F8BDE8A8
:10132000FF9F0000BA4D01002DE9F0418046D21D1B
:1013300022F007020025D2E90002F52915A614D0F3
:10134000011E72F1000106DA0023D0EB030063EB0B
:10135000020211A608E0D8F800108B0701D50FA6ED
:1013600002E0490701D50EA601251146002408F127
:10137000240704E000F0E2F830323A55641C50EAE9
:101380000102F7D12B46324621464046BDE8F041E6
:10139000FFF73DBB000000002D0000002B00000007
:1013A0002000000030B4002100F1240408E002F025
:1013B0000705D208303542EA4372DB086554491C00
:1013C00052EA0305F3D10468002310A2250708D5CB
:1013D00004F020040C4304D0C46901230CA2641E51
:1013E000C46130BCFFF713BB10B50446214610683A
:1013F000FFF704FB02462046BDE810400023D1E77A
:10140000D21D22F00701D1E90023CBE70000000044
:1014100030000000F0B40D460188090502D5214CCA
:101420007C4402E01F4C7C440E34002100F1240671
:1014300008E002F00F071209E75D42EA03721B0998
:101440007754491C52EA0307F3D1027800231207AC
:1014500004D5702D06D009B1022311342246F0BC08
:10146000FFF7D5BA01231034F8E770B504460D46EE
:1014700021461068FFF7C2FA024629462046BDE819
:1014800070400023C6E7D21D22F00703D3E90023F2
:10149000C0E70368126843F0200303600823C361B8
:1014A0000023B7E71C4C01002DE9F0410746154623
:1014B0000E461020FEF76EFF04000AD06760C4E9F4
:1014C000026500F019F80168216004600020BDE8A1
:1014D000F0810120FBE710B500F088F9BDE810406D
:1014E00000F07FB900487047642100207047000079
:1014F0000048704784210020004870479C2100204C
:101500000048704764210020034640688C4600284C
:1015100018BF88423CBF03464068F8D31868184497
:10152000884207D00CF1030020F00700001D411A8B
:10153000521A0146081D0A60FEF75BBF30B5B0F1D4
:101540000A0271F100034FEA900E4EEA817EB0EB81
:101550000E0061EB91014FEA101E4EEA017E10EB86
:101560000E0041EB11114FEA102E4EEA016E10EB06
:101570000E0041EB11214FEA104E4EEA014E10EBE6
:101580000E0041EB1141401841F100014FEAD0003B
:1015900040EA41704FEAD1014FEA810444EA907475
:1015A00010EB800544EB01046D1944EB0404521B5D
:1015B000A3414FF0000348BF0A3200D530BD401CA4
:1015C00041F1000130BD00002DE9F0411F46044605
:1015D00003260168072A01F4006004DB08B116A5A0
:1015E00005E016A503E008B115A500E015A521F05A
:1015F00010002060A069C01EA0610FB1401EA06154
:101600002046FEF75BFF4FB1D4E9012138469047F1
:10161000206A401C2062C01C206206E0206AFAE7B3
:10162000D4E9012115F8010B9047761EF8D2204627
:10163000FEF75AFFBDE8F0814E414E006E616E002C
:10164000494E4600696E660010B5436913B1AFF3A9
:10165000008001E0FFF70AFE012010BD128800F1B2
:10166000240182840022C2840122EDE711684FF038
:10167000FF32E9E72DE9F047814616468AB0354842
:1016800078440DC88DE80D0032487844801C03ACC6
:101690000DC884E80D0041F69B300844372190FBCB
:1016A000F1F290FBF1F5A5F1800501FB12041B3C62
:1016B00002D56442012000E00020DFF898A08046B7
:1016C0000027FA44AAF1BE0A0EE0E0070AD032462B
:1016D000684607EB470101230AEB81010FF051FF38
:1016E0008DE8070064107F1C002CEED1194F7F4459
:1016F000AE3F19E0E80715D007EB04100DF1180A0A
:1017000090E80E008AE80E00C068F04201D19819F6
:1017100008903246012306A903A80FF032FF03AB5D
:1017200083E807006D10641C002DE3D14FF0010326
:1017300032466946B8F1000F03A802D00FF00CFF43
:1017400001E00FF01EFFC9E90001C9F808200AB046
:10175000BDE8F087604A01002DE9F04116460C46CD
:10176000054600F087F8036893F80101012807D0C7
:10177000FF2C12D8185D80B101202C70BDE8F081DB
:10178000D3F807013246214603F20713C71828464B
:10179000BC46BDE8F041002360474FF0FF30EDE765
:1017A0002DE9F0410646FFF7A7FE8046454613E0C7
:1017B00016B1E068B0420ED120682860D4E901017A
:1017C000D8F8007088472046FEF713FED8F80000CE
:1017D000B842EBD100E025462C68002CE8D1BDE8EA
:1017E000F081002801D0FFF79DB8704710B50021A7
:1017F00002A000F050F8012010BD000053494741FD
:101800004252543A2041626E6F726D616C20746571
:10181000726D696E6174696F6E00000010B500F042
:1018200053F8BDE81040FFF7DCBF7546FFF75AFEDE
:10183000AE4605006946534620F00700854618B0BD
:1018400020B5FEF795FDBDE820404FF000064FF0B3
:1018500000074FF000084FF0000BAC46ACE8C009A1
:10186000ACE8C009ACE8C009ACE8C00921F0070148
:101870008D46704710B5FFF73BFE001D10BD00BF41
:10188000E544010010B50446AFF300802046BDE8F2
:101890001040FEF759BD70B505460C460A2000E021
:1018A0006D1C00F077F835B128780028F8D102E0F7
:1018B000641C00F06FF814B120780028F8D1BDE85E
:1018C00070400A2000F066B810B5012805D000214C
:1018D00003A0FFF7E0FF012010BD09A1F8E7000019
:1018E00053494752544D454D3A204F7574206F6609
:1018F0002068656170206D656D6F72790000000071
:101900003A2048656170206D656D6F727920636F54
:10191000727275707465640030B44FF0013C50F819
:10192000042B51F8043BCCFA52F4D51A20D1FCB95F
:1019300050F8042B51F8043BCCFA52F4D51A17D1C5
:10194000B4B950F8042B51F8043BCCFA52F4D51A30
:101950000ED16CB950F8042B51F8043BCCFA52F478
:10196000D51A05D1002CDAD030BC4FF000007047FA
:1019700029BAB1FA81F111F01801D1F120008440A7
:10198000F2D1CA40CB4012F0FF0213F0FF0330BC8B
:10199000D01A704708B569468DF800000320ABBE29
:1019A00008BD53EA020C00F069802DE9F04B4FF0BE
:1019B0000006002B1FBFB3FA83F503FA05F424FADF
:1019C00005F65E4012BF1643B2FA82F502FA05F43C
:1019D000C5F120051EBF22FA05FC44EA0C0420359F
:1019E00056EA044C4FEA144418BF641C4FF0000838
:1019F0004FF00009904271EB030C39D3002919BF55
:101A0000B1FA81F701FA07F6B0FA80F700FA07F6A3
:101A1000C7F120071EBF20FA07FC46EA0C06203754
:101A2000B6FBF4FCA7EB0507103F07F01F0BCBF14B
:101A300020062CFA06F60CFA0BFB44BFB346002630
:101A4000202FA4BF5E464FF0000B5BEA060C08BFD8
:101A50004FF0010B19EB0B0948EB0608ABFB027CBE
:101A600006FB02CC0BFB03CCC01B71EB0C01C1E7E6
:101A70000B46024641464846BDE8F08B13B5084385
:101A800018BF4FF0FF300146AFF30080BDE81C40A7
:101A90007047431A28BF9A427EF6B5AE10441144EF
:101AA00010F0030F1EBF11F8013D521E00F8013D5A
:101AB00010F0030F7FF4F6AF103AC0F00A8010B5B3
:101AC00031E9185020E91850103ABFF4F9AFBDE8D9
:101AD0001040530724BF31E9081020E9081044BF23
:101AE00051F8043D40F8043D12F0030F08BF704761
:101AF000D20728BF31F8023D48BF11F8012C28BF9A
:101B000020F8023D48BF00F8012C704770B5064C24
:101B10007C44064D7D4404E020460168084480472B
:101B2000241DAC42F8D170BD44640100486401003A
:101B3000816ACB6DCA6D13F0500F04D0D2060CD45D
:101B4000496D496B084742F40070C865086803682E
:101B5000C2681B0702D4900706D5704712F4406F85
:101B6000FBD1C0688004F8D4C86D20F48070C865CB
:101B7000C86DC00448BF7047C86D40F00100C8651B
:101B80007047806AC16D41F04001C165016E41F04E
:101B90000401016670477047FEE770B542F2F41C1D
:101BA00000EB4004C0EB0010C2F2000C5CF8201007
:101BB00042F2C815C2F200054A69496915F8246065
:101BC00005EB840E12F4403201F4402326F01F018D
:101BD00005F8241006D02BB941F005018EF800104D
:101BE000910B06E06AB963B141F006018EF800106E
:101BF000190C0CEB80000069428822F00C021143A2
:101C0000418070BD10B5044605F0B9FD42F2C8111F
:101C100042F2F41304EB4400C2F20001C4EB0412DC
:101C2000C2F2000303EB820211F82030D26A43F0C3
:101C3000800301F82030BDE810401047F0B583B0B4
:101C400042F2F41CC0EB0016C2F2000C0CEB86074B
:101C5000C7E903125588497925F0030545EA911132
:101C60005180396942F2C81E4A8800EB4004C2F232
:101C7000000E22F00C020EEB84054A8000214EF883
:101C80002410C5E901114AF20001C4F2000141F239
:101C90004C02FB624CF82610C4F2020213690026C3
:101CA00043F4807313611369CFF6F17603F4807304
:101CB0000293029B0B6823F000430B600B683340D8
:101CC00043F40F3343F00D030B600B681F2666F3DC
:101CD0001C530B60CB6843F44063CB6047F20803AE
:101CE000C4F200031E6846F480461E60136843F089
:101CF00002031360126802F002020192019A40F29C
:101D00000042C4F60002136843F4405313601368A2
:101D100043F440731360D36823F44053D360D36813
:101D200023F44073D3600A6842F000420A6005F071
:101D3000E9FC41F65560C0F60000F968A8604879F2
:101D4000697800F0100001F07F0141EAC00068707E
:101D500003B0F0BD2DE9F0410C46002142F2F4132E
:101D60002170C0EB0011C2F2000303EB8106316960
:101D70000978C90664D4154642F2C81200EB400146
:101D8000C2F2000202EB810797F90010002901D48A
:101D9000797807E001F07F01397079780C2262F3DD
:101DA00045017970C1F344010D2907F1010835D0CF
:101DB0000C2918D0002946D13068016941F400414E
:101DC0000161016941F4804101614EF23F40CEF270
:101DD0000000402101704EF20410CEF200004FF0DE
:101DE0000041016025E005F0CAFC00207063286016
:101DF000387800F0FC0038700120207045F228602F
:101E0000C2F20000006898F80010786001F0C1008C
:101E10001A3088F800001A20BDE8F08145F22861E8
:101E2000C2F2000109687A68891A1B2908D305F0F3
:101E300069FC98F8000000F0C100023088F800004A
:101E40000220BDE8F081BB6821462A46BDE8F0418A
:101E5000184700002DE9F04F87B042F2C81400EB9C
:101E60004005C2F2000404EB8506B34681461BF828
:101E7000010FC0F3440003282FD0022800F0A180F6
:101E8000012840F020824846FFF787FE14F825001D
:101E900010F01C0F00F0FB8145F22860C2F2000038
:101EA00001689BF80020716002F0C10104318BF8D9
:101EB000001001680268521A022AFBD34846FFF755
:101EC0006CFE307810F01C0F00F0F681B9F1000FB5
:101ED00040F0F98104F020FCF5E142F2F413C9EB83
:101EE0000910C2F2000303EB800C53F8203042F2D9
:101EF000F8076446C2F2000754F8340FD3F814E030
:101F00007F8A9FEDF31A00EE107AB8EE400A20EEB9
:101F1000010A9FEDF01A012820EE010ABCEEC00A6A
:101F200010EE100A80B24FF440254FEA101008BF9F
:101F30004FF44035AE284FF00A0000F2C5811EEA8A
:101F4000050740F0C181186820F0804018601868CB
:101F500020F000501860D86820F02000D8604FF4BE
:101F600040401861D86840F44060D860DCF80C004C
:101F7000007A800703D5D86820F48030D86044F612
:101F8000DC07C2F200073B7800205D1E2B062060B4
:101F90003D7007D141F24807C4F202073B6923F0C4
:101FA00004033B61337803F0E3079BF8003037709C
:101FB00003F0C10302338BF8003001230B70106073
:101FC00082E145F22860CDE90112C2F200003746F5
:101FD000D0F8008057F804AF48460396FFF7DDFDC0
:101FE00014F8250000F01C01042940F04281A8EB00
:101FF0000A017929C0F04E8142F2F801C2F20001D3
:10200000498A9FEDB31A00EE101AB8EE400A9FED10
:10201000B12A20EE010A20EE020ABCEEC00A10EE40
:10202000101A89B2039EB1F52F6FC0F0348144F6C7
:10203000DC0CC2F2000C9CF8003041F24801C4F202
:102040000201002B00F0030A6DD10A6940F27C0EF8
:1020500042F004020A610F6940F6000207F004072B
:102060000497C4F20002049F1768C2F2000E27F022
:1020700070071760DEF800504DF6836705F5F4240D
:1020800004F59074C4F21B37A4FB074744F23F24C5
:10209000C0F20F04A5424FF000044FF0FF3888BF94
:1020A00008EB97449462DEF80070956A0135B7FB3F
:1020B000F5F5642D4FF0000506D3956A6424654359
:1020C0006435B7FBF5F77D1ED56297694FF68C75C1
:1020D000CFF6FE752F4030379761976948F6FF4479
:1020E000CFF6FF64274007F540579761D7692F4027
:1020F0003037D761D769274007F54057D761176A4E
:1021000027F002071762176A27F020071762176A7D
:1021100027F400771762176A27F4005717621768C9
:1021200047F0010717605A1C8CF800200A6840F23B
:10213000091542F001020A600A684FF6FF7402F0C6
:1021400001020592059A4422C4F20202174657F88A
:10215000143F732065F30E1300253B601562D561B3
:102160009369BAF1010F23EA0403936140F6100367
:10217000C4F202031C6860F307041C6042F2F4140A
:10218000C9EB0910C2F2000404EB80035F600F6822
:1021900047F001070F6009684FF4027701F0010171
:1021A00006910699116867F30E111160D56095606C
:1021B00051684FF072076FF30F015160D2F8C817E2
:1021C00067F30701C2F8C81754F820109A6001F1AC
:1021D00030009060186BD0604FF4847050601068CD
:1021E00040F00100106001F12400D061086941F65F
:1021F0007E6240EA02000861C3F834A0C86820F09B
:10220000400018BF4030C860D868007A800707D502
:10221000C86840F48030C860086940F480100861E4
:10222000C8684FF4006220F44060BAF1010F08BFA3
:102230004FF480621044C860C86820F01000C86085
:10224000086840F080400860086840F0005008606E
:102250009BF80000019900F0C10006308BF80000E7
:10226000022008703078029900F00300086030788E
:1022700011E045F22861C2F20001096882060ED41D
:102280003960039940F0200008700C201CE04FF0EA
:10229000FF3019E0039E00F0DF00307013E03A6871
:1022A000891A039A0D290ED39BF8001000F0DF0065
:1022B000107001F0C10003E09BF8000000F0C100C5
:1022C00002308BF80000022007B0BDE8F08F00BF9D
:1022D0008400043A00007A4443F2B870C2F200006D
:1022E00000F053BE43F29860C2F2000000F04DBE11
:1022F00043F2F860C2F2000000F047BE704770473A
:1023000043F25870C2F2000000F03FBE43F61800DE
:10231000C2F2000000F039BEB0B5044642F2D81057
:10232000C2F200000D4610F8241001F03F0141EA0E
:10233000821100F824102046012112F053F928469A
:1023400005F01EFC42F2D415C2F2000555F8240037
:10235000D0B947F6095147F62D50C0F60001C0F636
:102360000000002C08BF084640F2340140F2580239
:10237000C2F20001C2F2000208BF0A4600210BF0BF
:10238000CBFD45F8240008B1B0BD00BFFEE700005A
:1023900082B080B582B0CDE9042304AB45F2286059
:1023A0000193C2F20000006804A2442109F044FE37
:1023B00002B0BDE8804002B0704700BF41445649BA
:1023C00043453A207570646174652055534250440A
:1023D0005F44504D5F4861726452657365740000DC
:1023E000704780B5802000F022FF4FF4807000F02D
:1023F0001EFF4FF40070BDE8804000F018BF0000E1
:10240000F0B581B00022009290F85820012A01D145
:102410000221A0E10123076880F85830BB685B0700
:1024200035D4D1E900531F26C3F3012407EB8404FC
:10243000226B03F01F039E40B243C5F3846606FA85
:1024400003F31A432263BA68BB6802F0040203F084
:102450000803D21840F0BC800A6807F11403042670
:10246000C2F34064D1F808E006EAD25C53F8245085
:10247000C2F304540722A240BEF1004F25EA020530
:102480000BD143F80C501A6842F000430DE0C16DC7
:1024900041F02001C16501215AE10EFA04F22A43FC
:1024A00043F80C201A6822F000437B61D1E9043420
:1024B000FD68042B5FD13A6E3A6E0B68C2F38462FA
:1024C00093FAA3F6C3F3846C6FF3DF43B6FA86F591
:1024D000002B2C464FF6FF7E08BF6446A242C0F296
:1024E000070E0CD13A6E22F000423A660A6802EA00
:1024F0000E03C2F3846C92FAA2F2B2FA82F57A6EFB
:102500007A6E002BC2F384622C4608BF6446A24256
:102510000CD17A6E22F000427A660A6802EA0E0353
:10252000C2F3846C92FAA2F2B2FA82F5BA6EBA6E73
:10253000002BC2F384622C4608BF6446A2420CD131
:10254000BA6E22F00042BA660A6802EA0E03C2F3CB
:10255000846C92FAA2F2B2FA82F5FA6EFA6E002B4D
:10256000C2F3846208BF6546AA4231D1FA6E22F0F6
:102570000042FA662CE0062202EA95020E6807F194
:10258000600504FA02FC55F823404FF20002C0F245
:10259000FF3206F0F846224046EA0C06324342F08B
:1025A000004245F823200A698B6955F8226026F01D
:1025B0008076334345F822300A690B7F55F8226054
:1025C000012B26F0007608BF06F1007645F8226060
:1025D000BA68D2074FD10C68CA68D7F8B0602346F2
:1025E0006FF3DF4326EA030C4FF6FF7602F018057F
:1025F000C0F20706EE4000252640C4F27F0546EAF9
:102600000C06AA42C7F8B06035D18BB194FAA4F297
:10261000B2FA82F2013202F01E03092B02F01F030C
:102620000FD801229A4003EB430342EA035314E01C
:10263000012202EB946202F01E030A2B02F01F0338
:10264000EFD3012200269A4003EB4303CFF6206626
:1026500006EB03531A4342F00073C3F3406607EBE3
:1026600086068A687569C3F3045307249C40A54312
:102670009A402A43726109680022C8F20802114296
:1026800065D040F2083CC5F2000CDCF800300022B6
:10269000CCF22132914203F0E07404D01022C9F24E
:1026A000C002914228D119024FF0000150D4B7F175
:1026B000A04F4DD1DCF8001042F6635221F0E071DA
:1026C000214341F40001CCF8001040F27C01C2F239
:1026D00000010968C0F23E528909A1FB021291096A
:1026E00001EB41010C2202EB810100BF0091009936
:1026F00069B300990139F9E70022CCF25272914294
:1027000008BF13F0807215D00022CCF684329142BB
:102710004FF0000108BF13F4800219D1ACF502722A
:10272000974215D0DCF8001021F0E071214341F40C
:1027300080010AE0ACF502718F4208D0DCF800108D
:1027400021F0E071214341F08071CCF800100021AC
:10275000002280F85820084601B0F0BD2DE9F04174
:1027600098B00446002000902CB3E06D002840F0A3
:10277000C88013A81421FEF7AAF802A84421FEF786
:10278000A6F8206840F20011C5F20001884214D07A
:10279000B0F1A04F40F0B1804FF4004002904FF0F4
:1027A0000050119002A801F077F8B0B1EFF310805B
:1027B00072B600BEFEE701207AE14FF400400290BD
:1027C0004FF00050119002A801F066F8002846D0A2
:1027D000EFF3108072B600BEFEE742F2DC11C2F2E7
:1027E00000010A6841F24C00C4F20200531C0B6065
:1027F00042B9016841F400510160016801F40051DF
:10280000019101990168002641F001010160006811
:1028100013A900F00100019001980D2013900320EE
:1028200014904FF09040159600F04CFD43F29865DF
:102830001C20C2F20005C4F20200052180224FF4E0
:10284000807385E8430005F114004FF4806C4FF06D
:10285000200EC5E9036280E808502E6241E042F292
:10286000DC11C2F200010A6841F24C00C4F202001D
:10287000531C0B6042B9016841F4005101600168CA
:1028800001F400510191019901684FF0200841F0D5
:10289000010101600068002700F00100019001982B
:1028A0000320149013A94FF09040CDF84C80159759
:1028B00000F008FD1C20C4F2020043F2F865143059
:1028C000C2F20005242180224FF4807385E8830042
:1028D00005F114004FF48066C5E9037280E84801F1
:1028E0002F62284600F09EFB28B1EFF3108072B6ED
:1028F00000BE00BFFEE76565AC620020206684F87C
:10290000580021688868800006D588684FF6C07234
:10291000C5F6FF72104088608868C00020D44FF66A
:10292000C0728868C5F6FF7202F18052104000F153
:102930008050886040F27C00C2F20000006842F6DD
:1029400063528009C0F23E52A0FB020290090222AB
:1029500002EB40000090009810B100980138F9E7B0
:102960008868C00009D4E06D40F01000E065206E7A
:1029700040F001002066012000E000208A68E36D3D
:1029800002F0040203F01003D218E26D5DD122F4CC
:1029900081720232E2658A68D20710D10822C5F23C
:1029A00000021368D2F800713B43DB0707D163686C
:1029B000D2F8007327F47C173B43C2F80033627FE0
:1029C000E36B43EA4232D4E902731A4394F82430A9
:1029D0003A43012B42EA034206D1A36A0027CFF60D
:1029E000FE7707EB43431A43E36A23B1276B03F4F3
:1029F00078733B431A43CB6844F20707CFF6F0776E
:102A00003B401A43CA600A69636B22F040621A4372
:102A10000A618A6812073CD494F83820237F520058
:102A200042EA8332CB6844F20207BB431A43CA60CE
:102A300022690B696AB143F480330B61D1F8C0306D
:102A400043F6FF77BB431A430BE042F0100101202D
:102A50002DE023F480320A61D1F8C02043F6FF73E1
:102A60009A43C1F8C02094F840300A69012B0DD177
:102A700040F2FD739A43D4E91137D4E913651A4340
:102A80003A4332432A4342F0010201E022F00102BC
:102A90000A6162690B6B012A23F00F0202D1236ADB
:102AA000013B1A430A63E16D012262F30101E16512
:102AB00018B0BDE8F08100002DE9F04182B0044675
:102AC00040F20830C5F20000076823689A68520790
:102AD00000F18E800A4694F85810012900F0888091
:102AE00007F01F0109291BD801278F4040F221263A
:102AF000374215D0002701979F684FF6C078FF072F
:102B0000C7F6FF7832D19E6808F17F052E420BD0C0
:102B1000E06D40F01000E065206E40F0010020669E
:102B2000002084F8580063E09E6806EA080646F034
:102B300001069E60066836025DD445F22865C2F241
:102B400000052E681F68FF0710D19F68FF0705D199
:102B50009F6807EA080747F001079F602F68BF1BBF
:102B6000032FEFD31F68FF07ECD1D1E7E76D40F6E5
:102B70000176B743A0F5027007F580778342E765D9
:102B800000D119B9E06D20F48010E065E06D41F6E8
:102B90003137C0044FF0000044BF206E20F0060023
:102BA0002066606D41F69736C0F60007C0F6000655
:102BB00041F683350021C0F60005C0E90B761C27DD
:102BC00045631F6084F85810596841F0100159603E
:102BD000D96841F00101D96003F14001032300F0FD
:102BE000B4FA2068816801EA080141F004018160BB
:102BF00002B0BDE8F08140F27C06C2F20006366801
:102C000042F66355B609C0F23E55A6FB0565AE090E
:102C100006EB46060C2505EB860600BF0196019ED5
:102C2000002E8AD0019E013EF8E700002DE9F04118
:102C300000284FF0010300F0D880002900F0D58073
:102C40004379012B4FF0020300F0CF80D1F808C088
:102C50000125BCF1040F4571037141D145F2286E85
:102C6000C2F2000EDEF8004003685D6BE2B1B5F120
:102C7000FF3F0CDCDEF800502D1B022D04D35D6BF2
:102C8000B5F1FF3F40F3B4805D6B002DF2D44D6A87
:102C90005D640DE0DEF800502D1B022D03D35D6B4B
:102CA0002D0400F1A5805D6B2D04F3D44D6A1D64E5
:102CB000D3F848E002F0100440F2FF35A5402EEAB8
:102CC000050ED1E90A57FF26A54045EA0E059D6489
:102CD000DD6CA64025EA0606A7403743DF6400E026
:102CE0000368CF69012F0BD19F6B02F010021F26E2
:102CF0000D6A9640B74305FA02F637439F6301E039
:102D000002F01002D3F83CE08C69012C04D0022CB4
:102D100005D14FF0010807E04FF0000804E04C69CE
:102D2000B4FA84F44FEA54184D690E794C7945EAA7
:102D30000805012E08BF45F4807540F20737012CC5
:102D400008BF45F4007597404CEA050C6FF4404409
:102D50000D687C40022D04EA0E040ED140F27C077F
:102D6000C2F20007D7F800E046F60105C0F6891563
:102D7000AE4504D344F4004409E02C4307E04BF291
:102D80000045C0F2C445AE4588BF44F480440CFA07
:102D900002F72743DF634FF480471E68974026EA17
:102DA00007071F601F6840F6FE769640B743D1E9DB
:102DB000036106FA02F52F431F60C0271D68974084
:102DC00025EA07071F60C6F3830701F03C0147EAC5
:102DD00081111F6E40F60F769640B74391403943FC
:102DE000196601210023017143711846BDE8F08185
:102DF0000169032341F0080101610371F5E70168EE
:102E00000B68D1F834C09A040FD51CF400520CD0D2
:102E100004220271026942F0010202614FF4005281
:102E20004A630A6822F480520A609A0010D51CF0A6
:102E3000005208BF704704220271026942F0020288
:102E400002614FF000504863086820F0805008602D
:102E5000704700B382B00179002951D1016841F275
:102E60000003C5F2000300229942427115D040F6DA
:102E70000002C5F20002914242D141F24C01C4F27B
:102E800002010A6842F480320A60096801F4803164
:102E9000019101990EE0012139E041F24C01C4F2A7
:102EA00002010A6842F480220A60096801F4802164
:102EB000009100994EF60C51CEF2000109684FF0D6
:102EC000FF33C1F3022181F00702042A28BF042244
:102ED000033903FA02F24FF0030338BF002123EA5B
:102EE000020202FA01F14EF236420901CEF200026C
:102EF00011704EF20411CEF200014FF480020A600C
:102F000002210171002101220161027102B0084613
:102F1000704780B590F8251002292CD10168D0E9BE
:102F200010CE826C0B6823F00E030B600B6823F04D
:102F300001030B60116821F4807111600EF01F0213
:102F4000012101FA02F2CCF80420D0E913325A60D0
:102F5000426D32B1136823F480731360D0E91623F5
:102F6000536080F82510826B002180F8241052B144
:102F70009047002107E00421C1630121002280F86D
:102F8000251080F82420084680BDB0B5D0E910C3D4
:102F90000268DCF8001003F01F030424D2F800E0FC
:102FA0009C400C4218BF1EF004051AD102249C401C
:102FB0000C4218BF1EF002051FD1D94009071BD5CE
:102FC0001EF0080118D0116821F00E0111600121D6
:102FD00001FA03F2CCF80420C16380F82510416B9C
:102FE00018E01168890603D4116821F0040111600A
:102FF000CCF80440016B91B9B0BD1168890606D4C4
:10300000116821F00A011160012180F82510CCF827
:103010000440C16A0022002980F82420ECD0BDE8D9
:10302000B040084700284FF0010100F08C802DE9E6
:10303000F04740F2000CC4F2020C03684FF6F8327D
:103040000CF5816ECBF6FD72734538BF02F58062D8
:103050004CF6CD441A44CCF6CC44A2FB042803F031
:10306000FC02A2F10802A2FB04290CF580656FF0B6
:103070000304D0E90262D0F810A03CBF0025C4F2DE
:10308000020504EA9804C0E91054022580F825508E
:103090001D6847F6F07725EA07073A43476942EA91
:1030A0000A0285693A43C7692A43056A3A432A43B3
:1030B00032431A600CF50262734538BF0CF50062AA
:1030C000A3180CF50862C264C9F3041240F6840C1C
:1030D00001FA02F2B6F5804FC4F2020C8364026575
:1030E00005D1002141601960CCF800201CE0416846
:1030F0005FFA81FE013903294FF00001C3F800E0B7
:10310000CCF8002010D8AEF101020CEB820747F892
:103110007C1F02F01F01012202FA01F30CF1BC0234
:103120003946CCF8C03001E00022002300F1540CF5
:103130008CE80E0000210122C16380F8252080F870
:103140002410BDE8F047084670472DE9F04190F89B
:1031500024C0BCF1010F43D04FF0010C80F824C013
:1031600090F825C0BCF1010F37D14FF0020C80F868
:1031700025C04FF0000CC0F83CC0D0F800C000F1F2
:103180004C0E9EE83040DCF80060BEF1000F26F0E7
:103190000106CCF8006065601CBFD0E9164565608B
:1031A000D0E91076012506F01F068468B540D0F8F6
:1031B00030807D60CCF804300B46102C04BF1346E1
:1031C0000A46CCF80830CCF80C20DCF80010B8F136
:1031D000000F08D041F00E010DE0002180F824100E
:1031E0000220BDE8F08121F00401CCF80010DCF8E9
:1031F000001041F00A01CCF80010806C0168C9038E
:1032000003D5016841F480710160BEF1000F05D063
:10321000DEF8000040F48070CEF80000DCF800001A
:1032200040F00100CCF800000020BDE8F08140F241
:103230001441C4F201010A68024216D0B0F5007FC1
:10324000086020D0B0F5807F10D0802818BF70476C
:1032500040F21040C4F600000068000620D442F29C
:103260007020C2F2000008F0F0B8704740F2104041
:10327000C4F600000068C00518D442F23820C2F23B
:10328000000008F0E2B840F21040C4F60000006808
:10329000800511D442F25420C2F2000008F0D5B8E3
:1032A00042F27020C2F2000008F00DB942F238205C
:1032B000C2F2000008F007B942F25420C2F2000046
:1032C00008F001B92DE9F04F82B00C68002C00F035
:1032D000C88041F2004500F13847C4F600050622D7
:1032E0004FEAB726A84208BF0522052E38BF4FEA8D
:1032F000B722012700254FF0000E0126009200BFE3
:10330000A6F1010907FA09FB14EA0B0800F09E80F8
:10331000D1F804C003230CF00304621EAB40012A61
:103320006FEA030A10D88268CB6802EA0A02AB404F
:103330001A4382604268CCF3001322EA0B0203FABC
:1033400009F31A43426003E0032C01D103241FE078
:10335000C2688B6802EA0A02AB401A43022CC260C0
:1033600016D16FF0030202EA590202440EF01C0467
:103370000F23D2F820C003FA04FB0B692CEA0B0CD4
:10338000A34043EA0C031362D1F804C00CF0030419
:10339000026804FA05F302EA0A021A431CF4403FE9
:1033A000026053D041F26003C4F202031A684FF680
:1033B000084A42F001021A601A68CFF6FF7A02F05A
:1033C00001020192019A29F0030240F20049C4F27D
:1033D00001094A4452F80AC00EF00C040F23009F62
:1033E000A3402CEA030307FA04F4234342F80A300B
:1033F000D9F808C04B684CEA0804DA0258BF2CEA36
:10340000080440F20C4CC9F80840C4F2010CDCF886
:1034100000209F0242EA080458BF22EA0804CCF8C0
:103420000040D9F804209C0342EA080758BF22EA6A
:103430000807C9F80470D9F80020DB0342EA08073E
:1034400058BF22EA0807C9F8007001270C680EF17E
:10345000040E34FA06F206F1010605F102057FF4C6
:103460004FAF02B0BDE8F08FB0B582B041F20801B5
:10347000C4F202010A6D47F6543342F020020A6595
:103480000A6DC0F6010302F020020192019A0A6857
:103490000A680A680A6842F20002C4F2020212686C
:1034A00040F27C02C2F20002126809680546C1F3CC
:1034B0000221595C4FF0FF3001F01F0122FA01F1A7
:1034C0004DF68362C4F21B32A1FB021200EB924163
:1034D00043F64C6041F20042C2F20000C4F2000226
:1034E00040F2E7330024C0E90021C0E9024304614F
:1034F00000F0BFFC08B1012034E043F64C60C2F29A
:10350000000000F0C8FD68BB4EF20410CEF20000CF
:103510004FF4000101600F2D4FF0010022D84EF64C
:103520000C51CEF2000109680023C1F3022181F0A1
:103530000702042A28BF0422033938BF19464FF076
:10354000FF3303FA02F2D24302FA01F14EF237429C
:103550000901CEF20002117045F22C61C2F20001A5
:103560000870002002B0B0BD2DE9F04387B040B133
:10357000044690F83A00052803D094F83A0002284F
:1035800003D1012007B0BDE8F08341F24C00C4F242
:103590000200416941F001014161416901F001010D
:1035A0000291029994F83A1011B9002184F8391067
:1035B000216840F20833C4F20103002299420692C6
:1035C000059214D040F20432C4F20102914222D199
:1035D000016841F0020101600068012100F0020071
:1035E0000190019840F20040C4F600000BE0016831
:1035F00041F0010101600068022100F0010001902A
:1036000001984FF090400291032103910021049111
:1036100002A9FFF757FED4F808C04CF0200060283C
:1036200021D1D4E9000ED4F810800168E26A21F0BB
:10363000100111430160016843F61162CEF20002ED
:103640001140D4E9095641EA0E01227D41EA080100
:103650002943D4E90C73012A08BF41F48071314336
:1036600041EAC74122E0D4E9000ED4E903890768A2
:10367000E66A27F0100737430760076843F61166CC
:10368000CEF20006374047EA0E07D4E9095147EA6F
:103690000807267D47EA0907D4E90C232F43012EAA
:1036A00008BF47F48077394341EAC24141EA0362E7
:1036B00042EA0C0101608169002909D4816904F1A1
:1036C00018078CCF21F03F01114319433943816121
:1036D00094F83A0010B9012084F83A00002051E72C
:1036E00070B5014643F64410C2F20000D0F8D8424B
:1036F00069B194F89C02032818BF70BDD4F8B802D1
:103700004269002A6ED02046BDE87040104701EBA8
:10371000810100EBC100406AD4F8941202295AD109
:10372000D4E90712914217D9891AD4F8C422012387
:1037300082F83430002302F1240CE1618CE80B00A4
:1037400011634FF480731068114621F8103F04F59F
:10375000317504F007FC31E01CD1A069884219D30F
:10376000D4F89812884215D2D4F8C4120120002649
:1037700081F834004FF480720868C1E90966C1E934
:103780000B6621F8102F04F5317504F0EBFBC4F83B
:10379000986213E094F89C02032805D1D4F8B8028B
:1037A000C16809B120468847D4F8C402802104F5D5
:1037B000317503F05AFF0520C4F8940229680020EF
:1037C000C1E95900C1F86C01A1F85001086801F580
:1037D000A87104F0C7FB94F8A002012802D10020D0
:1037E00084F8A00270BD10B5014643F64410C2F241
:1037F0000000D0F8D84261B194F89C02032818BFA9
:1038000010BDD4F8B802826922B32046BDE810404A
:10381000104701EB810100EBC100D0F86401D4F83E
:103820009412032916D1D4E95712914213D9D4F82E
:10383000C432891AC4F85C11914238BF0A46002488
:10384000C3E95902186803F5A871C3F86C41A3F8DD
:1038500050411DE010BD94F89C02032805D1D4F816
:10386000B802016909B1204688470420C4F89402CF
:10387000D4F8C4220120002382F834004FF480746D
:1038800010681146C2E90933D36221F8104F13635F
:10389000BDE8104004F066BB70B581B0036841F22A
:1038A0000C061903C4F2020602D44FF0000C52E0D9
:1038B000F16C11F0805E08D1F16C41F08051F1643F
:1038C000F16C01F080510091009947F20002C4F2BE
:1038D0000002116841F48071116045F22861C2F262
:1038E00000010C681568ED0506D40D682D1B022D2E
:1038F000F8D94FF0030C27E0D6F88420D0F840C068
:1039000012F4407216D0624511D0D6F88420D6F851
:10391000844022F4407244F48034C6F88440D6F8DF
:10392000844024F48034C6F88440C6F88420D2074A
:1039300040F0B680D6F8841021F4407141EA0C01C1
:103940004FF0000CC6F88410BEF1000F03D1F16CEB
:1039500021F08051F164D90705D0F16F426821F060
:1039600003011143F167990705D5F16F826821F0D2
:103970000C011143F167590705D5F16FC26821F0B9
:1039800030011143F167190705D5F16F026921F084
:10399000C0011143F167990605D5F16F426921F421
:1039A00040611143F167590605D5F16F826921F431
:1039B00040511143F167190605D5F16FC26921F431
:1039C00040411143F167D90505D5F16F026A21F431
:1039D00040311143F167990505D5F16F426A21F431
:1039E00040211143F16759050CD5F16F826A21F42A
:1039F00040111143B2F5801FF16703D1316841F4E2
:103A00008011316019050CD5F16FC26A21F44001B3
:103A10001143B2F5800FF16703D1316841F4801191
:103A20003160D9040CD5F16F026B21F04071114364
:103A3000B2F1807FF16703D1316841F480113160C8
:103A400099040CD5F16F426B21F040611143B2F142
:103A5000006FF16703D1316841F48011316059047E
:103A60000CD5F16F826B21F040611143B2F1006F10
:103A7000F16703D1316841F48011316019040CD52C
:103A8000F16FC06B21F040510143B0F1805FF167ED
:103A900003D1306840F480303060604601B070BDC2
:103AA0000A6841F2883400BFD6F88450AD073FF56C
:103AB00041AF0D68AD1AA542F6D91AE780B541F2BB
:103AC0000801C4F20201086842F20042C0F2F402A6
:103AD00000F00C000428104608BF80BD086800F004
:103AE0000C00082843F20060C0F26E1021D00B6871
:103AF00003F00C030C2B1CBF002080BDD1F804C0C8
:103B00004B680CF0030CC3F3031E4B680EF1010E5F
:103B1000BCF1030F08BF02464968B2FBFEF0C3F3D5
:103B20000623C1F341610222584302EB4101B0FB7D
:103B3000F1F080BD70B5044690F85D00012877D1A2
:103B4000002975D0002A73D094F85C00012808BFC2
:103B500070BD012084F85C000320002384F85D0020
:103B60002366A163A287E2872364C4E91333A4F820
:103B70004430A4F84630A0682268B0F5004F07D161
:103B8000106820F040001060106840F48040106021
:103B9000606D46F60F0E46F6110546F2D576C0F674
:103BA000000EC0F60005C0F60006C0E90B5EC0E9D5
:103BB0000D63D4F80CC05368BCF5E06F23F4804368
:103BC000536015D88369B3F5806F11D1E68F5368C0
:103BD000F60705D123F480435360E38F5B0806E0CA
:103BE00043F480435360E38F012606EB5303E387DE
:103BF000E38F0C32FFF7A9FA38B1206E40F01000C5
:103C00002066002084F85C0070BD206801684906C9
:103C100003D4016841F040010160002184F85C1088
:103C2000416841F020014160416841F0020141607A
:103C300070BDB0B590F83C20012A01D102215BE0B3
:103C4000D1E90232D1E900CE22F47C5223F4705340
:103C500043EA020448F2FF73CEF6F0730EEA030261
:103C6000224303F5006404EA0C0442EA040C0C69E4
:103C700003F5C05222404C6942EA0C02224303F58C
:103C8000605422400C6B03F5F04323401A438B69C8
:103C900040F2000CCC69CEF6FF7C0CEA03431443DF
:103CA000D0F800C043F20042C4F20102944543EA56
:103CB000040305D042F60042C4F20102944516D135
:103CC0004FF6FF72CDF60F421A40D1E9083ED1E916
:103CD0000A410025CDF6F04505EA0454224323F0BD
:103CE00008531A432EF000531A4342EA01030021FD
:103CF000CCF8443080F83C100846B0BD70B590F860
:103D00003C20012A4FF0020247D080F83D20026893
:103D100043F2004C54689368C4F2010C42F6004E22
:103D20006245C4F2010E01D0724503D14D6824F4FE
:103D300070042C434FF68F75CFF6FF550E682C405C
:103D400042F6FF35C4F201053443AA4254600FDC49
:103D5000B2F1804F16D040F20046C4F20006B242E3
:103D600010D040F60006C4F20006B2420AD00EE0BF
:103D7000724507D044F20006C4F20106B24201D0F7
:103D8000624504D1896823F08003194391600121C1
:103D9000002280F83D1080F83C20104670BD41B1F3
:103DA00008290ED0042914BF00F1470200F1450292
:103DB00009E090F84420012A5AD1022280F84420D8
:103DC00010E000F146021278012A51D1022208299E
:103DD00006D0042914BF80F8472080F8452001E070
:103DE00080F84620006801F00F010422036A02FAFD
:103DF00001F123EA01020262026A11430162416C8D
:103E000042F6FF32C4F2010241F4004190424164A3
:103E10000DDCB0F1804F1CD040F20041C4F2000133
:103E2000884216D040F60001C4F200010FE042F6CD
:103E30000041C4F2010188420BD044F20001C4F2F7
:103E40000101884205D043F20041C4F201018842D9
:103E50000AD181680722C0F201021140062907D069
:103E6000B1F5803F08BF7047016841F00101016072
:103E7000704740B310B582B0044690F83D0020B3BF
:103E8000022084F83D002068211D02F0AFFF0120D0
:103E900084F8480084F83E0084F83F0084F840002D
:103EA00084F8410084F8420084F8430084F8440018
:103EB00084F8450084F8460084F8470084F83D0003
:103EC000002002B010BD01207047206843F2FF328D
:103ED000C4F201020021904284F83C103FDC41F220
:103EE0000001C4F20001884252D042F60041C4F2FF
:103EF00001018842C4D141F26000C4F202000168AD
:103F00004FF0FF3241F400610160006800F400608E
:103F1000019001984EF60C50CEF200000068C0F3FC
:103F2000022080F00701042928BF0421033802FA87
:103F300001F14FF0030238BF002022EA010101FA2B
:103F400000F04EF219410001CEF2000108704EF26D
:103F50000010CEF200004FF00071016090E743F2D4
:103F60000041C4F20101884249D044F60001C4F284
:103F7000010188427FF484AF41F26000C4F2020084
:103F8000016841F480210160006800F4802041E074
:103F900041F26000C4F2020050F8081C4FF0FF32FA
:103FA00041F0100140F8081C50F8080C00F0100017
:103FB000019001984EF60C50CEF200000068C0F35C
:103FC000022080F00701042928BF0421033802FAE7
:103FD00001F14FF0030238BF002022EA010101FA8B
:103FE00000F04EF219410001CEF2000148774EF286
:103FF0000010CEF200004FF48001416040E741F232
:104000006000C4F20200016841F4005101600068E0
:1040100000F400500190019832E790F83D1001291A
:1040200038D1022180F83D10006842F6FF31C4F219
:10403000010188420DDCB0F1804F1CD040F20041FC
:10404000C4F20001884216D040F60001C4F200011B
:104050000FE042F60041C4F2010188420BD044F265
:104060000001C4F20101884205D043F20041C4F2CC
:10407000010188420AD181680722C0F20102114081
:10408000062907D0B1F5803F08BF7047016841F0AD
:1040900001010160704790F83D1001291CBF01200B
:1040A0007047022180F83D10016842F6FF32C8686F
:1040B000C4F20102914240F00100C8600DDCB1F190
:1040C000804F1CD040F20040C4F20000814216D064
:1040D00040F60000C4F200000FE042F60040C4F2D7
:1040E000010081420BD044F20000C4F20100814281
:1040F00005D043F20040C4F2010081420CD188682F
:104100000722C0F201020240062A4FF0000008D048
:10411000B2F5803F08BF7047086840F001000860B2
:104120000020704780B590F83C20012A4FF0020231
:1041300000F0A58080F83D20D0F800C08822DCF88F
:104140000830CFF6CE721A40CCF808200B686F2BDF
:104150000FDD1F22C0F21002934235DCB3F5005F81
:1041600044DA702B00F08D80B3F5805F00F0808022
:10417000CFE02F2B34DD4F2B3DDC302B6CD0402B90
:1041800040F0C780D1F804E0C968DCF82030DCF8E2
:10419000202022F00102CCF82020DCF8182022F0A8
:1041A000F00242EA011123F00A0242EA0E02CCF8C0
:1041B0001810CCF82020DCF808104FF68872CFF6E3
:1041C000CF721140473151E03F21C0F210018B42C4
:1041D00038DC2021C0F210018B423DD0302137E085
:1041E000D3B3102B38D0202B36D092E05CD0B3F173
:1041F000101F31D08DE0502B69D0602B40F08980AA
:10420000D1F804E0C968DCF82030DCF8202022F086
:104210001002CCF82020DCF8182022F4704242EA88
:10422000013123F0A00242EA0E12CCF81810CCF8AB
:104230002020DCF808104FF68872CFF6CF721140BC
:10424000673113E04021C0F210018B4204D070218D
:10425000C0F210018B425CD1DCF808104FF6887276
:10426000CFF6CF721140194341F00701CCF8081086
:104270000022012180F83D10002180F83C101046FA
:1042800080BDD1E901E3C968DCF8082043EA0E03E8
:1042900022F47F4243EA01211143CCF80810DCF8F4
:1042A000081041F07701E1E7D1E901E3C968DCF8E2
:1042B000082043EA0E0322F47F4243EA012111431E
:1042C000CCF80810DCF8081041F48041CEE7D1F8B2
:1042D00004E0C968DCF82030DCF8202022F001027C
:1042E000CCF82020DCF8182022F0F00242EA01117C
:1042F00023F00A0242EA0E02CCF81810CCF8202073
:10430000DCF808104FF68872CFF6CF7211405731A3
:10431000ACE70122ADE72DE9F04704460068C56827
:104320000669B10708D515F0020105D06FF002014A
:104330000161816900212177710708D515F0040119
:1043400005D06FF0040101618169002121773107F7
:1043500008D515F0080105D06FF008010161C169A9
:1043600000212177F10608D515F0100105D06FF076
:1043700010010161C16900212177F10718BF15F013
:1043800001014BD116F4025F05F0800018BF002830
:1043900003D021686FF402520A61F10504D518B107
:1043A00020686FF480710161700606D515F0400039
:1043B00003D020686FF040010161B00606D515F00A
:1043C000200003D020686FF020010161F00206D5C3
:1043D00015F4801003D020686FF480110161B002E1
:1043E00006D515F4001003D020686FF400110161A8
:1043F000700206D515F4800003D020686FF48001A8
:104400000161300208D515F4000008BFBDE8F0874F
:1044100020686FF400010161BDE8F08743F6B451F4
:10442000C2F200016FF001028C42026115D043F626
:104430000060C2F20000844240F0828042F2A42078
:10444000C2F20000017889B343F61C52C2F20002A6
:10445000126800210170516372E0086845F228611A
:10446000026842F2FC40C2F20001C2F200000B6896
:104470000768D206A3EB07020BD4022A60D30968AF
:1044800042690160127A002A5AD10269083000217B
:104490000AE0022A54D3096842690160127A002AAC
:1044A0004ED1026908300121904749E042F29C2A2E
:1044B00042F29429C2F2000A42F28C28C2F20009A8
:1044C000DAF80020C2F20008D9F800700121D8F80B
:1044D00000300170511E42F2A02042F2982207EBF8
:1044E0004707C2F20000C2F2000203EB8703006834
:1044F00012689B68CAF80010984743F61C51C2F234
:10450000000109684863DAF80000C8B942F2902156
:10451000C2F20001D9F8000009780130002918BF63
:1045200002218842C9F8000002D106F0F5FF07E039
:10453000D8F8001000EB400001EB800007F020F8F5
:10454000206841F20041C4F2000188427FF41AAFB2
:1045500045F22860C2F2000001680131016011E7F4
:104560002DE9F04186B0044601A81421FCF7AFF90B
:1045700043F2FF30C4F20100844229DD43F20040DF
:10458000C4F20100844247D044F20000C4F20100AA
:10459000844273D044F60000C4F20100844240F02B
:1045A000A28041F24C00C4F20200016841F0020115
:1045B0000160006800F00200009000982020019047
:1045C0000220029000200390032004900A2081E042
:1045D000B4F1804F67D042F60040C4F2010084423B
:1045E00040F0818041F24C00C4F2020001684FF0BB
:1045F000904441F001010160006800F0010000906A
:1046000000984FF4C07001900220029000200390A7
:1046100003200490062061E041F24C00C4F2020045
:10462000016840F2004441F0040101600168C4F6F1
:10463000000401F004010091009901684FF00208A4
:1046400041F0020101600068002600F002000090C5
:104650000098402001900327042504F5806001A9FB
:10466000CDF80880039604970595FEF72BFE0820E9
:10467000CDE90108CDE90367059530E041F24C0032
:10468000C4F20200016841F002010160006800F01C
:104690000200009000984FF48040019002200290A8
:1046A0000020039014E041F24C00C4F202000168C3
:1046B00041F002010160006800F0020000900098E3
:1046C0004FF48060019002200290002003900320AC
:1046D0000490012040F20044C4F60004059001A9B2
:1046E0002046FEF7EFFD06B0BDE8F08159B10A1F84
:1046F0004FEAB202032A0FD8DFE802F002111417C2
:1047000000F13F0313E090F83E20012A40F07C8046
:10471000022280F83E2026E000F1430307E000F18A
:10472000400304E000F1410301E000F142031B7883
:10473000012B69D1032A07D8DFE802F0020A0E1222
:10474000022280F83F200EE0022280F843200AE097
:10475000022280F8402006E0022280F8412002E098
:10476000022280F84220006801F01F020121036A42
:1047700001FA02F293430362036A1343A0F18042F9
:10478000A2F596324FEAB222062A03623DD8914042
:1047900011F0650F39D0416C42F6FF32C4F20102CC
:1047A00041F40041904241640DDCB0F1804F1CD0D7
:1047B00040F20041C4F20001884216D040F60001E8
:1047C000C4F200010FE042F60041C4F20101884248
:1047D0000BD044F20001C4F20101884205D043F23B
:1047E0000041C4F2010188420AD181680722C0F267
:1047F00001021140062907D0B1F5803F08BF70477C
:10480000016841F001010160704742F6FF31C4F2D6
:1048100001018842C9DD43F6FF71C4F201018842FB
:1048200002DC42F60041D6E744F20001C4F2010185
:104830008842DAD044F60001C4F20101884202BF86
:10484000416C41F400414164DAE70000B0B50C4628
:10485000054659B1201F4FEAB000032814D8DFE8FD
:1048600000F00216191C05F13F0118E095F83E0012
:10487000022800F0378195F83E00012840F032818F
:10488000022085F83E003FE005F1430107E005F115
:10489000400104E005F1410101E005F14201097820
:1048A000022900F01F81032806D8DFE800F0020883
:1048B0000B0E05F13F010AE005F1430107E005F1A8
:1048C000400104E005F1410101E005F142010978F0
:1048D000012940F00781032807D8DFE800F0020A29
:1048E0000E12022085F83F000EE0022085F84300FA
:1048F0000AE0022085F8400006E0022085F8410029
:1049000002E0022085F842004FEAB400032800F2DA
:10491000E980DFE800F002274C70686A46F6F7622B
:10492000C0F60002C262686A46F64572C0F600022E
:1049300002632968686A46F64D72C0F60002426357
:1049400001F1340244F20071686AC2F200010831D8
:104950004FF4D873FEF7F9FB002840F0C3804FF402
:1049600000716BE0A86A46F6F762C0F60002C26208
:10497000A86A46F64572C0F6000202632968A86A72
:1049800046F64D72C0F60002426301F1380244F26D
:104990000071A86AC2F2000108314FF4D873FEF723
:1049A000D4FB002840F09E804FF4806146E0E86A26
:1049B00046F6F762C0F60002C262E86A46F6457241
:1049C000C0F6000202632968E86A46F64D72C0F636
:1049D0000002426301F13C0244F20071E86AC2F253
:1049E000000108314FF4D873FEF7AFFB002879D1EE
:1049F0004FF4006122E0286B46F6F762C0F6000231
:104A0000C262286B46F64572C0F60002026329684E
:104A1000286B46F64D72C0F60002426301F1400277
:104A200044F20071286BC2F2000108314FF4D873D0
:104A3000FEF78BFB002855D14FF480512868C268DF
:104A40001143C16004F01F020121036A01FA02F25E
:104A500093430362036A1343A0F18042A2F59632A6
:104A60004FEAB222062A03623DD8914011F0650F49
:104A700039D0416C42F6FF32C4F2010241F40041E8
:104A8000904241640DDCB0F1804F1CD040F20041F7
:104A9000C4F20001884216D040F60001C4F20001C1
:104AA0000FE042F60041C4F2010188420BD044F20B
:104AB0000001C4F20101884205D043F20041C4F272
:104AC000010188420AD181680722C0F20102114027
:104AD000062907D0B1F5803F08BFB0BD016841F09D
:104AE00001010160B0BD42F6FF31C4F2010188420C
:104AF000C9DD43F6FF71C4F20101884202DC42F6CF
:104B00000041D6E744F20001C4F201018842DAD044
:104B100044F60001C4F20101884202BF416C41F435
:104B200000414164DAE7000010B5026801F01F0E91
:104B30004FF0010C146A0CFA0EF324EA030313621B
:104B4000A2F18043A3F59633146A4FEAB323062BF0
:104B5000146213D80CFA03F313F0650F0ED0136A26
:104B600041F2111423420FD1136A44F24444234208
:104B70000AD1536C23F40043536405E044F6000368
:104B8000C4F201039A42EAD0136A41F2111423429B
:104B900008D1136A44F24444234203D1136823F03A
:104BA000010313604FEAB101042908D8DFE801F0DE
:104BB000030B0F131700012180F83E1010BD0121D7
:104BC00080F8431010BD012180F83F1010BD012175
:104BD00080F8401010BD012180F8411010BD012166
:104BE00080F8421010BD00002DE9F04190F83C30F3
:104BF000012B01D10221D0E14FEAB202052A00F2D5
:104C00008681DFE812F006004F00A200F50048019F
:104C1000860103681D6A1A6AA3F1804622F0010228
:104C20001A621A465C6852F818CF8F68A6F5963655
:104C3000D1F800E025F002054FEAB626072E45EA36
:104C400007050AD80127B74017F0E50F1FBFCF6847
:104C500025F00C0527F004073D43072E0BD801274C
:104C600007FA06F616F0E50F1FBF24F44074D1E9E9
:104C7000056734433C434FF68C76CFF6FE760CEA5C
:104C8000060747EA0E075C609F614F6809695F632A
:104C90001D629F6947F008079F619F6927F004071D
:104CA0009F6173E1036843F200461D6A1A6AC4F209
:104CB000010622F010021A621A46D3F804C052F814
:104CC000188FB3428E68D1F800E025F0200545EA40
:104CD000061505D042F60046C4F20106B34207D1DC
:104CE000CE686FF0400725F0C00507EA0616354389
:104CF000A3F18046A6F596364FEAB626072E0CD8C5
:104D0000012707FA06F616F0E50F1FBFD1E9056780
:104D10002CF44064374344EA870C48F6FF44CFF64E
:104D2000FF6404EA080444EA0E27C3F804C09F6144
:104D30004F6809699F631D629F6947F400679F611F
:104D40009F6927F480679F611FE1036843F2004673
:104D50001D6A1A6AC4F2010622F480721A621A46A7
:104D6000D3F804C052F81CEFB3428E68D1F800802B
:104D700025F4007545EA062505D042F60046C4F242
:104D80000106B34207D1CE6840F2FF47360225F450
:104D90004065BE433543A3F18046A6F596364FEAFB
:104DA000B626072E0CD8012707FA06F616F0E50FEF
:104DB0001FBFD1E905672CF44054374344EA071C70
:104DC0004FF68C74CFF6FE740EEA040747EA080724
:104DD000C3F804C0DF614F680969DF631D62DF69E2
:104DE00047F00807DF61DF6927F00407DF61CDE0E6
:104DF000036843F200461D6A1A6AC4F2010622F4EF
:104E000080521A621A46D3F804C052F81C8FB3427B
:104E10008E68D1F800E025F4005545EA063505D046
:104E200042F60046C4F20106B34207D1CE6844F60A
:104E3000FF77360325F44045BE433543A3F1804652
:104E4000A6F596364FEAB626072E0CD8012707FAA4
:104E500006F616F0E50F1FBFD1E905672CF44044B4
:104E6000374344EA871C48F6FF44CFF6FF6404EA60
:104E7000080444EA0E27C3F804C0DF614F680969DB
:104E80001F641D62DF6947F40067DF61DF6927F493
:104E90008067DF6179E00368D3F820C01A6AA3F164
:104EA000804722F480321A621A46A7F596375D6869
:104EB00052F8508FD1F800E08E684FEAB727072FDD
:104EC00009D80124BC4014F0E50F1EBF4C6925F43D
:104ED000803545EA04252CF4003747EA06474FF6AB
:104EE0008C76CFF6FE76033606EA080646EA0E060C
:104EF0005D601E654E6809699E641F621F6D47F004
:104F000008071F651F6D27F004071F653EE001219C
:104F100040E00368D3F820C01A6AA3F1804722F466
:104F200080121A621A46A7F596375D6852F8508FBC
:104F3000D1F800E08E684FEAB727072F09D801247F
:104F4000BC4014F0E50F1EBF4C6925F4802545EAEE
:104F500084252CF4001747EA065748F6FF46CFF69B
:104F6000FF6606F5407606EA080646EA0E265D600C
:104F70001E654E680969DE641F621F6D47F4006795
:104F80001F651F6D27F480671F65090213681943A9
:104F900011600021002280F83C200846BDE8F08125
:104FA00070B582B028B3044690F83D0020B30220CB
:104FB00084F83D002068211D01F018FF012084F8CD
:104FC000480084F83E0084F83F0084F8400084F8EC
:104FD000410084F8420084F8430084F8440084F8D7
:104FE000450084F8460084F8470084F83D0000201E
:104FF00000E0012002B070BD206844F20002C4F25B
:1050000001020021904284F83C102ED0B0F1804F74
:10501000CDD141F25800C4F20200016843F2B875E4
:1050200041F0010101600068C2F2000500F00100DA
:10503000019001980820C4F202003A2110220023B6
:105040004FF0800C4FF4007E4FF4806685E80F50DF
:105050002846C5E906632B62FDF7E4FF98B1EFF33C
:10506000108072B600BE00BFFEE741F25800C4F2E5
:105070000200816841F480318160806800F48030F2
:105080000090009893E7E562AC6290E759B10A1F7F
:105090004FEAB202032A0FD8DFE802F00211141718
:1050A00000F13F0313E090F83E20012A40F07C809D
:1050B000022280F83E2026E000F1430307E000F1E1
:1050C000400304E000F1410301E000F142031B78DA
:1050D000012B69D1032A07D8DFE802F0020A0E1279
:1050E000022280F83F200EE0022280F843200AE0EE
:1050F000022280F8402006E0022280F8412002E0EF
:10510000022280F84220006801F01F020121036A98
:1051100001FA02F293430362036A1343A0F180424F
:10512000A2F596324FEAB222062A03623DD8914098
:1051300011F0650F39D0416C42F6FF32C4F2010222
:1051400041F40041904241640DDCB0F1804F1CD02D
:1051500040F20041C4F20001884216D040F600013E
:10516000C4F200010FE042F60041C4F2010188429E
:105170000BD044F20001C4F20101884205D043F291
:105180000041C4F2010188420AD181680722C0F2BD
:1051900001021140062907D0B1F5803F08BF7047D2
:1051A000016841F001010160704742F6FF31C4F22D
:1051B00001018842C9DD43F6FF71C4F20101884252
:1051C00002DC42F60041D6E744F20001C4F20101DC
:1051D0008842DAD044F60001C4F20101884202BFDD
:1051E000416C41F400414164DAE7B0B5044690F8FF
:1051F0008400012804BF0220B0BD012084F884008F
:105200002420C4F8880020680568016821F00101A5
:105210000160816821F060618160204601F0C3FE79
:10522000206805602020C4F88800002084F88400ED
:10523000B0BDB0B5044690F88400012804BF022038
:10524000B0BD012084F884002420C4F888002068C0
:105250000568016821F001010160816821F0604169
:105260008160204601F09FFE206805602020C4F880
:105270008800002084F88400B0BD000070B50446AA
:10528000006840F62F03C269016886681340202B2E
:105290000DD101F0200306F080555B1918D0616F25
:1052A000002900F09B812046BDE87040084740F689
:1052B0000F031A420CD00123C1F2000306EA030CCB
:1052C00040F22013C0F200430B4013EB0C0376D1E5
:1052D000E36E012B05D112F0100318BF11F010037B
:1052E0002FD1D30206D516F4800303D04FF48011DA
:1052F000016270BD100606D501F0800006F40003BF
:10530000C01840F03B81500640F1688111F0400028
:1053100000F06481206850E8000F216820F0400010
:1053200041E80002002AF5D143F678712020C2F24C
:105330000001C4F8880000208C42A06740F04E8134
:105340004DE1102101628068400600F1AB80B4F8A5
:105350005C00B4F85E10B4F85E20002A00F03E81D4
:10536000884200F03B8100BF206850E8000F2168B0
:1053700020F4907041E80002002AF5D14FF6FE704B
:10538000CEF6FF70216851E8021F2268014042E812
:105390000213002BF6D12020C4F88C000020E06618
:1053A000606700BF206850E8000F216820F01000FF
:1053B00041E80002002AF5D10220206770BDD30722
:1053C00018BF11F4807307D001230362D4F8903022
:1053D00043F00103C4F89030930706F0010E0AD59C
:1053E000BEF1000F07D002230362D4F8903043F0DF
:1053F0000403C4F8903053070AD5BEF1000F07D05C
:1054000004230362D4F8903043F00203C4F89030D0
:1054100013070CD501F0200353EA0C0307D008232F
:105420000362D4F8903043F00803C4F890301305B9
:105430000BD511F0806308D04FF400630362D4F8F9
:10544000903043F02003C4F89030D4F89030002B13
:1054500000F0C48012F020021EBF01F0200106F00F
:10546000805211EB020140F0C580D4F890108068A2
:1054700001F0280100F04000401840F0818043F620
:105480007870C2F20000844208D140F28400C2F277
:105490000000D0F88800012108F0A0FC0020C4F82A
:1054A000900070BDD4F8800000684168B4F85C30AA
:1054B0008AB2002A00F085809A4280F08280A4F8A7
:1054C0005E100068800600F1A58000BF206850E8EB
:1054D000000F216820F4807041E80002002AF5D115
:1054E000206850E8020F216820F0010041E8020224
:1054F000002AF5D1206850E8020F216820F0400012
:1055000041E80202002AF5D12020C4F88C000020D6
:10551000E06600BF206850E8000F216820F010000E
:1055200041E80002002AF5D1D4F8800090F8251057
:10553000022967D1016800F140064CCE0D6825F0C4
:105540000E050D60356825F4807535600E6826F00F
:1055500001060E6003F01F01012303FA01F15160FF
:10556000D0E913215160416D00294DD00A6822F421
:1055700080720A60D0E916124A6045E0A16F8FE69A
:10558000204601F04BFD20688068400620D500BF12
:10559000206850E8020F216820F0400041E8020234
:1055A000002AF5D1D4F8800090B146F6F571C0F626
:1055B00000018163FDF7ADFC80B1D4F88000816B00
:1055C00072E693420AD1006880063FF5F5AE05E029
:1055D00043F67870C2F20000844200D070BD40F201
:1055E0008400C2F20000D0F888000121BDE87040BC
:1055F00008F0F4BB616F00293FF437AF20468847BD
:10560000206832E70421C163012180F825100021C0
:1056100080F8241002202067B4F85E0070BD0000FE
:10562000F0B597B0002800F0D3820446D0F8880087
:10563000002800F09E802420C4F888002068A16A19
:105640000268002922F00102026048D00A0705D54D
:105650004268A36B22F400421A434260CA0705D095
:105660004268E36A22F400321A4342608A0705D591
:105670004268236B22F480321A4342604A0705D500
:105680004268636B22F480221A434260CA0605D541
:105690008268E36B22F480521A4382608A0605D541
:1056A0008268236C22F400521A4382604A060ED5A7
:1056B0004268636C22F480121A43B3F5801F426083
:1056C00005D14268A36C22F4C0021A434260090665
:1056D00005D54168E26C21F4002111434160D4E911
:1056E0000213D4E9042746F6F31611433943E2695D
:1056F0000768CCF6FF7637403943114301604168B3
:105700004FF2FF4621F440511943416048F2000333
:10571000A169C4F2000398421CBF276A3943876815
:10572000C1F2FF16374039438160C76A616A27F0CA
:105730000F070F43C76244F6FF37C4F20007B842B1
:105740004FF010053DDD44F60047C4F20007B842B3
:105750004AD098424FD043F60007C4F20107B8423E
:105760005ED141F24C07C4F20207FF6B0FF21056F4
:1057700052E0002084F8840012A81421FBF7A7F857
:1057800001A84421FBF7A3F8206844F60001C4F205
:105790000001884200F0AE8043F60001C4F201012E
:1057A00088427FF448AF0120019001A8FEF774F809
:1057B000002800F0DA80EFF3108072B600BE00BF60
:1057C000FEE744F20047C4F20007B8421AD044F69C
:1057D0000007C4F20007B84222D141F24C07C4F2DC
:1057E0000207FF6B3F0913E041F24C07C4F20207C6
:1057F000FF6BBF090CE041F24C07C4F20207FF6BDC
:10580000BF0A05E041F24C07C4F20207FF6BBF0874
:1058100047F63436C0F6010607F0030756F827505E
:10582000984221D0B2F5004F45D1082D00F2CA812F
:1058300042F20040C0F2F400DFE815F0090029014F
:105840004601C4013E01C401C401C401440140F247
:105850007C0041F20801C2F20000C4F202010068BB
:105860000968C1F302211EE1082D00F2AB8142F26A
:105870000040C0F2F400DFE815F00900A501530074
:10588000A5014A00A501A501A501510040F27C0037
:1058900041F20801C2F20000C4F202010068096886
:1058A00047F65432C1F30221C0F60102515C01F007
:1058B0001F01C8402DE0082D00F2848142F2004013
:1058C000C0F2F400DFE815F009001B0137017E018A
:1058D00030017E017E017E01350140F27C0041F203
:1058E0000801C2F20000C4F2020100680968C1F3B5
:1058F000022110E10420019001A8FDF7CDFF00284E
:1059000000F07F80EFF3108072B600BEFEE7FEF776
:10591000D5F8002800F02481616A01E04FF40040CE
:1059200046F2FC02C0F6010232F811106268B0FBC8
:10593000F1F002EB42018842C0F044811103884239
:1059400000F24081010E000210EB520041F1000113
:105950000023FCF726F84FF60052A0F54071C0F284
:105960000F029142C0F0FA802CE141F24C00C4F2E7
:1059700002004169002541F480414161416901F41F
:10598000804100910099016841F0040101600068C4
:1059900012A900F00400009000983020129002201C
:1059A00013900720169040F60000C4F60000CDE9E1
:1059B0001455FDF787FC4EF60C50CEF2000000683F
:1059C0004FF0FF32C0F3022080F00701042928BF06
:1059D0000421033802FA01F14FF0030238BF2846D0
:1059E00022EA010101FA00F04EF225410001CEF257
:1059F000000108704EF20410CEF200002021016078
:105A000019E641F24C00C4F20200C168002641F4DC
:105A10008021C160C16801F4802100910099016872
:105A200041F004010160006812A900F00400009038
:105A300000984FF4406012900220139007201690B7
:105A400040F60000C4F60000CDE91466FDF73AFC0C
:105A500041F20800C4F2020043F61805A0F54060C8
:105A6000C2F200051D211022802785E8C7002846C4
:105A7000C5E90566C5E90766FDF7D4FA002800F018
:105A8000DB80EFF3108072B600BE00BFFEE740F28D
:105A90007C0041F20801C2F20000C4F20201006879
:105AA0000968C1F3C22147F65432C0F60102515CC5
:105AB00001F01F01C84001E0FEF700F800284FD0B8
:105AC000616A01E04FF4004046F2FC02C0F60102B8
:105AD00032F811106268B0FBF1F0510801EB4000A0
