:020000040800F2
:10000000B069002055030008797A0008096E0008DD
:10001000757A0008891B000819AA00080000000072
:10002000000000000000000000000000917E0008B9
:10003000C925000800000000B17B0008B57E00085B
:100040006F0300086F0300086F0300086F030008C8
:100050006F0300086F0300086F0300086F030008B8
:100060006F0300086F0300086F030008E524000811
:10007000F1240008FD240008092500080D250008CA
:1000800011250008000000006F0300086F0300083E
:10009000019F00086F0300086F030008CD250008CA
:1000A0006F030008E57F00086F0300086F03000876
:1000B0006F0300086F0300086F0300086F03000858
:1000C0006F0300086F0300086F0300086F03000848
:1000D0006F030008518A00086F0300085D8A00085A
:1000E0006F0300086F0300086F0300086F03000828
:1000F0006F0300086F0300086F0300080000000092
:10010000000000006F030008000000006F030008FB
:100110006F03000800000000F17F0008CD80000898
:100120001D2500086F0300086F0300086F03000817
:100130006F03000800000000000000006D88000848
:100140006F0300086F0300080000000000000000BB
:10015000000000000000000000000000000000009F
:100160000000000000000000000000006F03000815
:100170006F03000800000000000000000000000005
:10018000000000006F0300080000000000000000F5
:10019000000000000000000000000000000000005F
:1001A00000000000000000006F0300086F0300085B
:1001B000856E0008116E00086F0300080000000043
:1001C000000000006F0300080000000000000000B5
:1001D0006F0300086F03000800F002F800F0ABF8AE
:1001E0000AA090E8000C82448344AAF10107DA4592
:1001F00001D100F0A0F8AFF2090EBAE80F0013F039
:10020000010F18BFFB1A43F00103184704B60100A1
:1002100024B601000A4410F8014B14F00F0508BF82
:1002200010F8015B240908BF10F8014B6D1E05D0C2
:1002300010F8013B6D1E01F8013BF9D1641E03D09B
:10024000641E01F8015BFBD19142E4D370470000CA
:100250000023002400250026103A28BF78C1FBD8CF
:10026000520728BF30C148BF0B6070476E2900F0AD
:100270001D84702900F06185662916F0D9856529ED
:1002800016F0D685672916F0D385612916F0D28538
:1002900003681B0A28BF41F08001692900F03681FC
:1002A000642900F03381752900F030816F2900F056
:1002B000EF84782900F02D85E92900F08984E4296C
:1002C00000F08684F52900F08384EF2900F0EC84A7
:1002D000F82900F02C850368DB0928BF41F0800174
:1002E000632901F05381732901F05881E32901F05A
:1002F0006381F32901F06881002070471FB516F073
:100300008AFD9DE8030000F007FB01F0F7F9040007
:100310000020002116F0F2FC401C6060002000214B
:1003200016F0D6FCE06001F0E7FB1FBD10B5002021
:1003300001F072F910BD01F0B4F91146FFF7DEFFCC
:100340000DF014F801F090FA03B4FFF7EFFF03BCCF
:1003500000F0C0FA0948804709480047FEE7FEE779
:10036000FEE7FEE7FEE7FEE7FEE7FEE7FEE7FEE765
:1003700004480549054A064B70470000D17F000834
:10038000D9010008B0480020B0690020B068002002
:10039000B068002070B5064600F0A2FA056806F1C4
:1003A0000B0020F00704B4429CBF002070BD2B4618
:1003B0006A68BAB11068A04210D304F108018842FB
:1003C0003CBF5068586007D35168101941601168EC
:1003D000091B016058601460101D70BD13465268FF
:1003E000002AE7D12146284600F082FA0028DED113
:1003F00070BD70B50446051F00F072FA0068002C4D
:1004000014BF446870BD002C18BFAC423CBF2046EE
:100410006468F8D301680A18AA4218BF456003D17E
:100420002A6805461144016028684119A1421CBF91
:100430006C6070BD6168696021680844286070BDA7
:100440007CB51D4616460C00009007D04142A142E3
:1004500002D32044401E01E04FF0FF30064B7B44A6
:100460002A4669460190304600F039FB002C02D044
:10047000009A002111707CBDA30600000FB41CB5CA
:100480000C0007AA009007D04142A14202D32044A9
:10049000401E01E04FF0FF30074B7B44694601905E
:1004A000069800F01CFB0021002C01D0009A11706E
:1004B0001CBC5DF814FB00006706000070B5044624
:1004C00085690068C10601D5302600E02026C007F6
:1004D00007D070BDD4E9012130469047206A401C06
:1004E00020626D1EF6D570BD70B504468569007832
:1004F000C00707D170BDD4E9012120209047206AB0
:10050000401C20626D1EF6D570BD00002DE9F04143
:100510000646002410687529314616A510D000F053
:1005200031FA002802DA404213A507E031688A0751
:1005300001D512A502E0490704D511A5012401E067
:1005400000F029FA00210A2206F1240709E0B0FB95
:10055000F2FCB0FBF2F302FB1C003030785418467A
:10056000491C0028F3D123462A463046BDE8F04115
:1005700000F043BA000000002D0000002B00000036
:10058000200000002DE9F05F894604464FF0000A84
:10059000DFF874B1FB44C0F820A02046E16888472A
:1005A000002874D0252806D0D4E901219047206A7C
:1005B000401C2062F1E700265F462046E16888473C
:1005C0002028054607DB312D05D2781910F8200CBC
:1005D00008B10643F1E7B00701D526F00406C4F8D8
:1005E0001CA00027C4F818A02A2D09D0284616F010
:1005F00067FB38B304EB8708303DC8F8185019E0A2
:1006000059F8041B204604EB87029161E168884792
:10061000012F054618D1E069002820DA26F02006CF
:100620001DE0D8F8180000EB800005EB40003038E2
:10063000C8F818002046E1688847054616F040FBD8
:100640000028EED1012F0AD02E2D08D12046E168D6
:1006500088477F1C0546022F46F02006C4DBA069B0
:10066000002803DA404246F00106A061F00701D0FD
:1006700026F010066C2D0BD0682D09D04C2D39D0EA
:100680006A2D35D0742D35D07A2D33D016E038E070
:10069000E1682F4620468847B842054609D16C2FAD
:1006A00026D04FF48060E16806432046884705461F
:1006B00004E06C2F1AD04FF4807006430DB3A5F1FF
:1006C0004100192802D8203546F400664A462946DA
:1006D000204626604E46FFF7C9FD80B101280BD0A9
:1006E000F61D26F0070000F1080956E74020E4E770
:1006F0008020D8E70020D6E706F104094DE7284618
:1007000052E7206ABDE8F09FBC68010010B50020E8
:1007100000F035FBFFF70AFEBDE81040012000F0B5
:10072000D9B80B460146184600F012BB032A40F226
:10073000308010F0030C00F0158011F8013BBCF183
:10074000020F624498BF11F801CB00F8013B38BF9B
:1007500011F8013BA2F1040298BF00F801CB38BFA9
:1007600000F8013B11F0030300F02580083AC0F0C7
:10077000088051F8043B083A51F804CBA0E808106F
:10078000F5E7121D5CBF51F8043B40F8043BAFF3A2
:100790000080D20724BF11F8013B11F801CB48BFFC
:1007A00011F8012B24BF00F8013B00F801CB48BF32
:1007B00000F8012B704710B5203AC0F00B80B1E86B
:1007C0001850A0E81850B1E81850A0E81850203A86
:1007D000BFF4F5AF5FEA027C24BFB1E81850A0E88F
:1007E000185044BF18C918C0BDE810405FEA827CA9
:1007F00024BF51F8043B40F8043B08BF7047D207C0
:1008000028BF31F8023B48BF11F8012B28BF20F860
:10081000023B48BF00F8012B704702F0FF0343EA98
:10082000032242EA024200F00AB802F0FF0343EA60
:10083000032242EA024200F024B84FF000020429E9
:10084000C0F0128010F0030C00F01B80CCF1040CFF
:10085000BCF1020F18BF00F8012BA8BF20F8022B33
:10086000A1EB0C0100F00DB85FEAC17C24BF00F8D9
:10087000012B00F8012B48BF00F8012B70474FF007
:10088000000200B5134694469646203922BFA0E8E0
:100890000C50A0E80C50B1F12001BFF4F7AF0907EC
:1008A00028BFA0E80C5048BF0CC05DF804EB8900DD
:1008B00028BF40F8042B08BF704748BF20F8022B20
:1008C00011F0804F18BF00F8012B70477047704738
:1008D0007047000001491820ABBEFEE72600020069
:1008E000004870476C0E0020704770477047704793
:1008F00038B504460A4600206946AFF30080002858
:1009000008BF38BD02460099204600F049FA012090
:1009100038BD012000F0BEBEF8B5AFF3008005463B
:1009200000200C46102000BF0646A819A0420DD991
:10093000324669460020AFF30080070008BF00F090
:10094000A9FE0098A04218BF0546C419FFF7C8FFCA
:1009500005600746F01D20F007004619284600F004
:100960000AF8B44208BFF8BDA21B31463868BDE89A
:10097000F84000F015BA00210160C0E9011070478D
:100980001020704709684A0501D540B27047C90573
:10099000FCD500B2704709684A0501D5C0B270475E
:1009A000C905FCD580B2704770B50C460546012AD2
:1009B00005D02878800600D5EA69002302E00123EB
:1009C00005E05B1C934202D2E05C0028F9D1A869E3
:1009D000E618C01AA861286A184428622846FFF75A
:1009E0006DFD04E0D5E9012114F8010B9047B442F4
:1009F000F8D32846FFF778FD70BD2DE9F0470D4686
:100A000099469246044600F124080168880604D5F8
:100A1000E06921F01001216000E00120A84201DD21
:100A2000471B00E00027A1697A1902EB0900081AA8
:100A3000A0612078C00602D42046FFF73FFD0026C3
:100A400008E0D4E901211AF806009047206A401C0A
:100A5000761C20624E45F4DB2078C0060AD520467D
:100A6000FFF72CFD06E0D4E9012130209047206AF1
:100A7000401C2062381EA7F10107F4DC07E0D4E92E
:100A8000012118F805009047206A401C2062281EAA
:100A9000A5F10105F3DC2046FFF726FD20780006CE
:100AA00002D50220BDE8F0870120FBE7116802684B
:100AB000006A530501D508700AE0D30501D5088006
:100AC00006E0130603D5C217C1E9000200E0086082
:100AD0000120704701694A1C02610878704700B51F
:100AE0008FB0CDE901310021059105497944CDE967
:100AF000031011466846FFF745FD0FB000BD00002A
:100B0000E5FFFFFFD1E900239A4202D2531C0B609C
:100B1000107070472DE9FF5F15468A460446DFF8DE
:100B2000AC80F8440027D8E900103E46CDE900101B
:100B300010E03AF816106A4602A800F049FD411C80
:100B400007D02178890603D5E269391891420DD87A
:100B50000744761C2078800602D5E069B84205DD9E
:100B6000AE42E6DB3AF816000028E2D1A069C01BCD
:100B7000A0612046FFF7A2FCD8E90010CDE90010E3
:100B8000002017E03AF818106A4602A800F020FD8D
:100B9000B0F1FF3F81460BD000250DF1080B05E0B9
:100BA000D4E901211BF8050090476D1C4D45F7D392
:100BB00008F10100B0428046E4DB206A384420623C
:100BC0002046FFF791FCBDE8FF9F00004263010053
:100BD0002DE9F0418046D21D22F007020025D2E91E
:100BE0000002F52915A614D0011E72F1000106DAE3
:100BF0000023D0EB030063EB020211A608E0D8F853
:100C000000108B0701D50FA602E0490701D50EA6FB
:100C100001251146002408F1240704E000F0DAF869
:100C200030323A55641C50EA0102F7D12B46324665
:100C300021464046BDE8F041FFF7DFBE000000005E
:100C40002D0000002B0000002000000030B4002127
:100C500000F1240408E002F00705D208303542EA2A
:100C60004372DB086554491C52EA0305F3D104685A
:100C7000002310A2250708D504F020040C4304D05B
:100C8000C46901230CA2641EC46130BCFFF7B5BE69
:100C900010B5044621461068FFF77DFE0246204647
:100CA000BDE810400023D1E7D21D22F00701D1E9B1
:100CB0000023CBE70000000030000000F0B40D4638
:100CC0000188090502D5214C7C4402E01F4C7C447C
:100CD0000E34002100F1240608E002F00F0712098B
:100CE000E75D42EA03721B097754491C52EA030785
:100CF000F3D102780023120704D5702D06D009B174
:100D0000022311342246F0BCFFF777BE01231034D2
:100D1000F8E770B504460D4621461068FFF73BFE24
:100D2000024629462046BDE870400023C6E7D21D92
:100D300022F00703D3E90023C0E70368126843F0F9
:100D4000200303600823C3610023B7E7A461010007
:100D50002DE9F041074615460E461020FFF71AFB15
:100D600004000AD06760C4E9026500F015F8016864
:100D7000216004600020BDE8F0810120FBE710B590
:100D800000F070FCBDE8104000F067BC0048704700
:100D9000640E002070470000004870479C0E002041
:100DA000034640688C46002818BF88423CBF034673
:100DB0004068F8D318681844884207D00CF1030043
:100DC00020F00700001D411A521A0146081D0A6052
:100DD000FFF70FBB30B5B0F10A0271F100034FEA23
:100DE000900E4EEA817EB0EB0E0061EB91014FEA6E
:100DF000101E4EEA017E10EB0E0041EB11114FEA7E
:100E0000102E4EEA016E10EB0E0041EB11214FEA5D
:100E1000104E4EEA014E10EB0E0041EB114140180E
:100E200041F100014FEAD00040EA41704FEAD101A0
:100E30004FEA810444EA907410EB800544EB01040E
:100E40006D1944EB0404521BA3414FF0000348BF4B
:100E50000A3200D530BD401C41F1000130BD2DE902
:100E6000FF4F0C461E464FF0FF378BB0D2E9000112
:100E7000DDF860800A908A46C1F30A5505B93D46FF
:100E8000002108464FF00000BAF1000F00F44000C6
:100E900005DA00EB80004FF4400101EA50004FEA10
:100EA0009059B9F1010F00DDB9460A9850EA4A009D
:100EB0000ED044F61050A5F2FF3545432F14B8F17B
:100EC000000F1ED07542291E1EDDC9F100021CE074
:100ED000B8F1010F4FF0000001D0302103E0F243E0
:100EE00005E02154401CB042FBDB304600220021CB
:100EF00021540B99C1F80880C1E900200FB0BDE86A
:100F0000F08FBD1B6D1CDEE74A4600DA694206A879
:100F100000F038FC06AB93E8070003AB83E807005A
:100F200050460A9911F0D3FB8DE80700A0F5005058
:100F30001F3800900398002D0ADD42F21F014A4637
:100F40000844002303A90390684611F03DFE09E020
:100F5000A0F500504A461F38002303A903906846B5
:100F600011F047FE8DE807000004000C03D04FF09D
:100F7000FF30410800E01046B8F1000F03D0002216
:100F8000009215461EE0751E05D4FFF723FF303290
:100F900062556D1EF9D5B3460122084302D00022E6
:100FA0007F1C04E02078302801D100227F1E002A17
:100FB000099784D01DE0112D07DAFFF70BFF3032BF
:100FC00062556D1C50EA0102F5D1084302D0009829
:100FD000C8B10EE00021681E05E0235C625C63542A
:100FE0002254401E491C8142F7DBAB46A81B401E21
:100FF0000990002004F80B000B98099AC0F80880AB
:10100000C0E9002B7AE711264FF0000857E72DE9D9
:10101000F04F88460446D21D22F0070191B0D1E975
:101020000001CDE90A0115F033FE02460B98C00F0E
:1010300001D02D2007E02068810701D52B2002E098
:10104000202101EAC000032A099001D0072A05DB0C
:1010500003464146204600F055FB0BE12078800610
:1010600001D5E06900E00620B8F1650F814606D0A1
:10107000B8F1660F18D0B8F1670F70D131E00020D9
:10108000B9F1110F009001DB112301E009F1010317
:101090000AAA01A90CA8FFF7E2FEDDE90C70002600
:1010A00009F10105834647E001204B4600904FF0CF
:1010B00000470AAA01A90CA8FFF7D1FEDDE90DB08F
:1010C0000C995D46002610B909F101000D18B9EB25
:1010D000050003D4C0F1FF3609F10105A5EB0900B5
:1010E0002BE0B9F1010F01DA4FF001090020B9F14D
:1010F000110F0090484601DD112300E003460AAAC3
:1011000001A90CA8FFF7ABFEDDE90C704D460026E7
:101110008346207800070AD4AB4500DA5D4601A873
:10112000012D04DD411911F8011C302907D04F456C
:1011300002DA17F1040F04DA012082460FE06D1E77
:10114000EEE7002F02DCED1B3E4403E0781CA842D2
:1011500000DD7D1CB81B00F1010A4FF0004720782C
:10116000000703D4AA4501DB4FF0FF3A0021B7F195
:10117000004F0DF143088DF8431024D002202B239B
:10118000002F01DA7F422D230A21021EA0F1010067
:1011900000DC5FB197FBF1FC97FBF1F201FB1C7CDB
:1011A00017460CF1300C08F801CDEEE7A8F101006C
:1011B00003702188090501D5452100E06521A0F1D2
:1011C000010800F8011C09980FA9A1EB0807FF1DF1
:1011D00000B10120411901EBEA70A1693844081AF5
:1011E000401EA0612078C00602D42046FFF766F9B1
:1011F000099828B1D4E901219047206A401C206257
:101200002078C00622D52046FFF758F91EE0002EB0
:1012100004DBB34502DD01A8805D00E03020D4E9A5
:1012200001219047206A401C2062761CAAF101002F
:101230005FEA000A0AD100F061FAC0680168405C08
:10124000D4E901219047206A401C2062281EA5F1A4
:101250000105DCDC07E0D4E9012118F8010B904717
:10126000206A401C2062381EA7F10107F3DC2046EB
:10127000FFF73AF9032011B041E600002DE9F04FE5
:1012800004460D46D21D22F0070089B0D0E9009730
:101290004846394615F0FCFC0246F80F01D02D23D4
:1012A00007E02068810701D52B2302E0202101EA15
:1012B000C0038DF820300BB1012000E00020032A8C
:1012C000824601D0072A04DB2946204600F01AFA9C
:1012D0003FE12078800601D40D2500E0E569C7F3E1
:1012E0000A560D2D49DA00214FEA175B08464FF0E8
:1012F0000000002F00F4400007DA00EB80004FF4FC
:10130000400100EBD07001EA60008115012901DD88
:101310004FF0FF3100224FEA850CBCF1180F06D3C5
:101320001346ACF118004FF08052C24003E04FF476
:10133000801323FA0CF30CF10C0CBCF1200F04D336
:10134000ACF1200C09FA0CF001E007FA0CF00029CE
:101350004FF0004801DD18B90FE00ED140450CD325
:1013600019EB02095F4121B9404502D19F4329EAA7
:101370000209BBEB175F00D0761C2088000502D560
:101380007B48784402E07A487844193808AA302328
:1013900002F80A30037C0AF10101002E0AF1020A68
:1013A00053546A4602DC4FF0300101E04FF0310146
:1013B0004FF001088DF8001002D0A6F2FF3603E0CE
:1013C00059EA470100D06B4E002D02DC2178090755
:1013D00004D54FF002082E218DF80110C4460021DB
:1013E0000BE0C7F303433F01C35C491C6D1E02F8C9
:1013F0000830052908F1010801DA002DF1DC00218F
:101400000CE000EB1973491C1B786D1E082902F8CB
:1014100008304FEA091908F1010801DA002DF0DC63
:1014200021688B0602D516E0A8F10108E04505DD2C
:1014300002EB080313F8013C302BF5D0B8F1000F94
:1014400009DD02EB080313F8013C2E2B03D1090739
:1014500001D4A8F10108002D05DD3E2102F8081095
:101460006D1E08F10108407C002E02F8080008F10A
:10147000010804DA2D20764202F8080002E02B2051
:1014800002F808000A214FF47A70864208F1010838
:101490000BDB96FBF0F3303302F8083096FBF0F3E9
:1014A00008F1010800FB136601E0642E0CDB6420E8
:1014B00096FBF0F3303302F8083096FBF0F308F1B6
:1014C000010800FB136601E00A2E06DB96FBF1F033
:1014D000303002F8080008F1010896FBF1F001FB3A
:1014E0001060303002F80800A16908F1010808EB2B
:1014F000050202EB0A00081AA0612078C00602D497
:101500002046FEF7DBFF216A08AE01EB0A002062ED
:1015100004E0D4E9012116F8010B9047BAF1010A61
:10152000F7D22078C00602D52046FEF7C7FF6E46E8
:1015300009E016F8010B3E280FD0D4E901219047AD
:10154000206A401C2062B8F10108F2D22046FEF762
:10155000CBFF09B00320BDE8F08F206A2844206249
:1015600003E0D4E90121302090476D1EEBD3F8E76A
:10157000255B010002FCFFFF10B5436913B1AFF317
:10158000008001E0FFF710FA012010BD127800F191
:1015900024010A7000224A700122EDE711684FF021
:1015A000FF32E9E710B5436913B1AFF3008001E002
:1015B000FFF7B0FA012010BD128800F124018284E7
:1015C0000022C2840122EDE711684FF0FF32E9E703
:1015D0002DE9F04116460C46054600F087F80368F1
:1015E00093F80101012807D0FF2C12D8185D80B1B3
:1015F00001202C70BDE8F081D3F807013246214666
:1016000003F20713C7182846BC46BDE8F041002383
:1016100060474FF0FF30EDE72DE9F0410646FFF758
:10162000BBFB8046454613E016B1E068B0420ED1E0
:1016300020682860D4E90101D8F800708847204666
:10164000FEF7D7FED8F80000B842EBD100E02546FF
:101650002C68002CE8D1BDE8F081002801D0FFF70C
:1016600039B9704710B5002102A000F006F9012039
:1016700010BD0000534947414252543A2041626E26
:101680006F726D616C207465726D696E6174696FE3
:101690006E00000010B500F009F9BDE81040FFF73A
:1016A000DCBF7546FFF772FBAE4605006946534640
:1016B00020F00700854618B020B5FEF759FEBDE8BA
:1016C00020404FF000064FF000074FF000084FF0A9
:1016D000000BAC46ACE8C009ACE8C009ACE8C009F6
:1016E000ACE8C00921F007018D46704710B500F045
:1016F00005F8001D10BD00BF0556010000487047E9
:10170000840E00202DE9F0411F460446032601689F
:10171000072A01F4006004DB08B116A505E016A550
:1017200003E008B115A500E015A521F01000206028
:10173000A069C01EA0610FB1401EA0612046FEF747
:10174000BDFE4FB1D4E9012138469047206A401CC4
:101750002062C01C206206E0206AFAE7D4E9012179
:1017600015F8010B9047761EF8D22046FEF7BCFE16
:10177000BDE8F0814E414E006E616E00494E46005C
:10178000696E66002DE9F047814616468AB03548F5
:1017900078440DC88DE80D0032487844801C03ACB5
:1017A0000DC884E80D0041F69B300844372190FBBA
:1017B000F1F290FBF1F5A5F1800501FB12041B3C51
:1017C00002D56442012000E00020DFF898A08046A6
:1017D0000027FA44AAF1BE0A0EE0E0070AD032461A
:1017E000684607EB470101230AEB810111F001FA7A
:1017F0008DE8070064107F1C002CEED1194F7F4448
:10180000AE3F19E0E80715D007EB04100DF1180AF8
:1018100090E80E008AE80E00C068F04201D19819E5
:1018200008903246012306A903A811F0E2F903ABA0
:1018300083E807006D10641C002DE3D14FF0010315
:1018400032466946B8F1000F03A802D011F0BCF986
:1018500001E011F0CEF9C9E90001C9F808200AB089
:10186000BDE8F087A857010010B50446AFF300802B
:101870002046BDE81040FEF767BD70B505460C4632
:101880000A2000E06D1C00F039F835B128780028F6
:10189000F8D102E0641C00F031F814B1207800287F
:1018A000F8D1BDE870400A2000F028B810B5012832
:1018B00005D0002103A0FFF7E0FF012010BD09A122
:1018C000F8E7000053494752544D454D3A204F75B3
:1018D00074206F662068656170206D656D6F727928
:1018E000000000003A2048656170206D656D6F72E0
:1018F0007920636F727275707465640008B569460B
:101900008DF800000320ABBE08BD00000000000001
:1019100030B44FF0013C50F8042B51F8043BCCFAA2
:1019200052F4D51A20D1FCB950F8042B51F8043BDD
:10193000CCFA52F4D51A17D1B4B950F8042B51F897
:10194000043BCCFA52F4D51A0ED16CB950F8042BE2
:1019500051F8043BCCFA52F4D51A05D1002CDAD058
:1019600030BC4FF00000704729BAB1FA81F111F094
:101970001801D1F120008440F2D1CA40CB4012F0CE
:10198000FF0213F0FF0330BCD01A704753EA020C79
:1019900000F069802DE9F04B4FF00006002B1FBFCF
:1019A000B3FA83F503FA05F424FA05F65E4012BF94
:1019B0001643B2FA82F502FA05F4C5F120051EBFFE
:1019C00022FA05FC44EA0C04203556EA044C4FEA9E
:1019D000144418BF641C4FF000084FF000099042F7
:1019E00071EB030C39D3002919BFB1FA81F701FA61
:1019F00007F6B0FA80F700FA07F6C7F120071EBF16
:101A000020FA07FC46EA0C062037B6FBF4FCA7EBED
:101A10000507103F07F01F0BCBF120062CFA06F646
:101A20000CFA0BFB44BFB3460026202FA4BF5E4632
:101A30004FF0000B5BEA060C08BF4FF0010B19EBEF
:101A40000B0948EB0608ABFB027C06FB02CC0BFB48
:101A500003CCC01B71EB0C01C1E70B4602464146AB
:101A60004846BDE8F08B13B5084318BF4FF0FF3070
:101A70000146AFF30080BDE81C407047431A28BF01
:101A80009A427EF698AE1044114410F0030F1EBF28
:101A900011F8013D521E00F8013D10F0030F7FF4D4
:101AA000F6AF103AC0F00A8010B531E9185020E9BD
:101AB0001850103ABFF4F9AFBDE81040530724BFE7
:101AC00031E9081020E9081044BF51F8043D40F8FE
:101AD000043D12F0030F08BF7047D20728BF31F84A
:101AE000023D48BF11F8012C28BF20F8023D48BF35
:101AF00000F8012C7047000070B5064C7C44064D80
:101B00007D4404E02046016808448047241DAC421F
:101B1000F8D170BD5C9E01005C9E0100816ACB6DB6
:101B2000CA6D13F0500F04D0D2060CD4496D496B26
:101B3000084742F40070C86508680368C2681B075C
:101B400002D4900706D5704712F4406FFBD1C068ED
:101B50008004F8D4C86D20F48070C865C86DC004D6
:101B600048BF7047C86D40F00100C865704700006D
:101B7000806AC16D41F04001C165016E41F0040110
:101B80000166704770470000FEE7000040F6D87C11
:101B9000C0EB0012C2F2000C5CF822100CEB8202C7
:101BA000CB6823F40073CB60CB6823F4C073CB60A5
:101BB000CB6823F02003CB60D3681B7A9B0703D547
:101BC000CB6823F48033CB6040F6AC7100EB40006F
:101BD000C2F2000111F82030D26A43F0800301F80C
:101BE000203010472DE9F04182B040F6D878C0EBA4
:101BF0000015C2F2000800EB400408EB85008646A1
:101C000002614EF80C1F5788497927F0030747EA0D
:101C100091115180026940F6AC7756884AF20C0C5B
:101C2000C2F2000726F00C06C4F2000C07EB840198
:101C30005680002247F82420C1E90122ACF10C02B1
:101C400048F8252041F24C02C362C4F20202136933
:101C5000002443F4807313611369CFF6F17403F425
:101C600080730193019B5CF80C3C23F000434CF81B
:101C70000C3C5CF80C3C234043F40F3343F00D0361
:101C80004CF80C3C5CF80C3C1F2464F31C534CF8DF
:101C90000C3CDCF8003043F44063CCF8003047F2F1
:101CA0000803C4F200031C6844F480441C601368F9
:101CB00043F002031360126802F002020092009ADD
:101CC00040F20042C4F60002136843F4405313602C
:101CD000136843F440731360D36823F44053D36014
:101CE000D36823F44073D3605CF80C2C42F00042BC
:101CF0004CF80C2CDCF8002042F40012CCF8002048
:101D0000DCF8002042F48012CCF80020DCF800203F
:101D100022F44062CCF80020DCF8002042F400728B
:101D2000CCF80020406B58B10128DCF800004FF4DB
:101D3000006220F4406008BF4FF48062104403E06A
:101D4000DCF8000040F44060CCF8000044F2B01031
:101D5000C2F20000026800BF03689B1A012B0BD877
:101D600003689B1A012B07D803689B1A012B03D821
:101D700003689B1A022BEFD3DCF8000020F400105C
:101D8000CCF80000DCF8000020F48010CCF8000053
:101D900041F65970C0F60000DEF8002088605079E6
:101DA0004A7800F0100002F07F0242EAC00048705A
:101DB00002B0BDE8F0810000B0B5002340F6D87451
:101DC0000B70C0EB0013C2F2000404EB830EDEF8CC
:101DD00010301B78DB0661D440F6AC7400EB400396
:101DE000C2F2000404EB830595F90030002B01D406
:101DF0006B7807E003F07F032B706B780C2464F39F
:101E000045036B70C3F344030D2B05F1010C1BD08C
:101E10000C2B45D0002B73D1DEF80000016941F492
:101E200000410161016941F4804101614EF23F408E
:101E3000CEF20000402101704EF20410CEF20000FC
:101E40004FF0004101607DE044F2B010C2F20000AA
:101E500001686A68891A1B2920D3DEF80010CA6855
:101E600042F40012CA60CA6842F48012CA60CA68AA
:101E700022F44062CA60CA6842F40072CA60DEF8A6
:101E80003420002A40D0012ACA684FF4006322F4AB
:101E9000406208BF4FF480631A4438E00220B0BDAE
:101EA000DEF80000C36823F40073C360C36823F442
:101EB000C073C360C36823F02003C360DEF80C3036
:101EC0001B7A9B0703D5C36823F48033C3600020CB
:101ED000CEF834001060287800F0FC002870012053
:101EE000087044F2B010C2F2000000689CF80010C4
:101EF000686001F0C1001A308CF800001A20B0BDF3
:101F0000AB68BDE8B0401847CA6842F44062CA6096
:101F1000026800BF03689B1A012B0BD803689B1A49
:101F2000012B07D803689B1A012B03D803689B1A5F
:101F3000022BEFD3C86820F40010C860C86820F4F2
:101F40008010C8609CF8000000F0C10002308CF8DE
:101F500000000220B0BD00002DE9F04F85B040F632
:101F6000AC7400EB4006C2F2000404EB860CE646BB
:101F70001EF8013F1546C3F34403032B26D0022B62
:101F800000F09980012B40F0A58240F6D872C0EB9A
:101F90000011C2F2000252F8213002EB81015F69A8
:101FA0005A6914F8265017F4403702F4402305F01C
:101FB000E00204F8262000F0A980002B40F0A68063
:101FC00042F005028CF80020BA0BA6E040F6D87269
:101FD000C0EB0010C2F2000202EB800852F8206051
:101FE00040F6F8524346C2F2000253F8340F7469C7
:101FF000528A9FED6A1A00EE102AB8EE400A20EECF
:10200000010A9FED671A012820EE010ABCEEC00A02
:1020100010EE100A80B24FF440274FEA101008BFAC
:102020004FF44037AE284FF00A0041D814EA0702B7
:102030003ED1306820F080403060306820F00050A1
:102040003060F06820F02000F0604FF440403061D4
:10205000F06840F44060F060D8F80C00007A800727
:1020600003D5F06820F48030F06043F2EC42C2F215
:102070000002147800201860631E1C06137007D13C
:1020800041F24802C4F20202136923F0040313610F
:102090009CF800209EF8003002F0E3028CF800204B
:1020A00003F0C10202328EF8002001220A7028607B
:1020B00005B0BDE8F08F009544F2B01240F6D87537
:1020C000C2F20002C0EB0010C2F20005D2F800908C
:1020D00055F82070E24605EB80005AF804BFD7F8A7
:1020E000148001907D6914F8263018F4403005F40E
:1020F000402703F0E00504F8265053D0002F51D1BB
:1021000045F005038CF80030800B52E06FB963B1E5
:1021100042F006028CF800201A0C0B695F8827F049
:102120000C073A435A809CF8002012F01C0F00F074
:10213000A18144F2B013C2F200031F689EF8006050
:10214000CCF8047006F0C10704378EF800701E68E2
:102150001F68BF1B012F0BD81F68BF1B012F07D89B
:102160001F68BF1B012F03D81F68BF1B022FEFD3AF
:102170000B6802F0E0025F695B6917F4403703F413
:1021800040238CF8002000F07A81002B40F077810A
:1021900042F005028CF80020BA0B77E18400043A83
:1021A00000007A4470B96FB145F006008CF8000069
:1021B000380C019B1B695C8824F00C042043588078
:1021C0009CF8005005F01C00042840F04681A9EB63
:1021D0000B007928C0F03C8140F6F850C2F20000B4
:1021E000408A9FEDBE1A00EE100AB8EE400A9FED3D
:1021F000BC2A20EE010A20EE020ABCEEC00A10EE54
:10220000100A80B2B0F52F6FC0F0228143F2EC4982
:10221000C2F2000999F8006041F24804C4F20204D5
:10222000002E05F0030876D1206940F6200540F025
:10223000040020612069C4F2000500F0040002904F
:10224000029855F8200C4DF6836320F0700045F895
:10225000200C40F27C00C2F200000268C4F21B3382
:1022600002F5F42707F59077A7FB033744F23F23E5
:10227000C0F20F039A424FF000024FF0FF3A88BFBE
:102280000AEB9742AA600068AA6800270132B0FBF7
:10229000F2F2642A06D3AA6864235A436432B0FB7C
:1022A000F2F0471EEF6055F8080C4FF68C72CFF62F
:1022B000FE721040303045F8080C55F8080C48F60E
:1022C000FF43CFF6FF63184000F5405045F8080C77
:1022D00055F8040C1040303045F8040C55F8040C47
:1022E000184000F5405045F8040C286820F0020022
:1022F0002860286820F020002860286820F40070FA
:102300002860286820F40050286055F8200C40F020
:10231000010045F8200C701C89F800002068442357
:1023200040F0010020602068C4F2020300F00100C8
:1023300003900398184650F8142F40F2091565F3DE
:102340000E12026000221A62DA619D694FF6FF7672
:10235000B5439D6140F61005C4F202052E6873274F
:1023600067F307062E60019DB8F1010F68602068D1
:1023700040F00100206020684FF4027400F001007A
:1023800004900498186864F30E101860DA609A607C
:1023900058684FF072026FF30F005860D3F8C80707
:1023A00062F30700C3F8C8072868AB6000F1300289
:1023B0009A602A6BDA604FF484725A601A6842F0AD
:1023C00001021A6000F12402DA61026941F67E63BB
:1023D00042EA03020261C5F83480C26822F040027A
:1023E00018BF4032C260EA68127A920707D5C26805
:1023F00042F48032C260026942F480120261C26813
:102400004FF4006322F44062B8F1010F08BF4FF4AB
:1024100080631A44C260C26822F01002C26002687F
:1024200042F080420260026842F0005202609EF870
:10243000000000F0C10006308EF800000220087095
:102440009CF80000009900F0030008609CF8005020
:1024500005F0DF008CF800003CE01068A90624D4E9
:10246000CAF8000045F020008CF800000C2005B0F0
:10247000BDE8F08F4FF0FF3005B0BDE8F08F6FB9C9
:1024800063B142F006028CF800201A0C09694B88EF
:1024900023F00C031A434A809CF8002012F01C0F12
:1024A00011D0B8B905F024FB14E0DAF80010401A96
:1024B0000D280FD39EF8001005F0DF008CF8000007
:1024C00001F0C10003E09EF8000000F0C1000230FE
:1024D0008EF80000022005B0BDE8F08F8400043AB9
:1024E00000007A4442F21850C2F2000000F02EBE02
:1024F00042F2F830C2F2000000F028BE42F258402A
:10250000C2F2000000F022BE7047000070470000D9
:1025100042F2B840C2F2000000F018BE42F2785019
:10252000C2F2000000F012BE82B02DE9F04182B08C
:1025300008AC44F2B01040F28007CDE908230194C2
:10254000C2F20000C2F200070368D7F88400A8B303
:1025500044204BF2C0720D463870781CC0F6010260
:102560000A214FF00A08FDF789FF202007F10C0629
:10257000F872304674212A462346FDF761FF74281D
:1025800006F8008006D12E2187F87F1042F62E61D2
:10259000A7F87D10384400F10D01B9420ED900F1C1
:1025A0000C053C46D7F884002146002200230CF09D
:1025B000BDFD18B9AC4204F10104F3D302B0BDE88B
:1025C000F04102B0704700007047000040F2144034
:1025D000C4F201000168090644BF8021016001685E
:1025E000C90544BF4FF4807101600168890544BF8B
:1025F0004FF4007101607047F0B581B00022009285
:1026000090F85820012A01D10221B6E10123076880
:1026100080F85830BB685B0735D4D1E900531F26DA
:10262000C3F3012407EB8404226B03F01F039E40D5
:10263000B243C5F3846606FA03F31A432263BA6809
:10264000BB6802F0040203F00803D21840F0BC801B
:102650000A6807F114030426C2F34064D1F808E0C5
:1026600006EAD25C53F82450C2F304540722A24075
:10267000BEF1004F25EA02050BD143F80C501A6851
:1026800042F000430DE0C16D41F02001C165012120
:1026900070E10EFA04F22A4343F80C201A6822F083
:1026A00000437B61D1E90434FD68042B5FD13A6EAD
:1026B0003A6E0B68C2F3846293FAA3F6C3F3846C98
:1026C0006FF3DF43B6FA86F5002B2C464FF6FF7EFC
:1026D00008BF6446A242C0F2070E0CD13A6E22F047
:1026E00000423A660A6802EA0E03C2F3846C92FA68
:1026F000A2F2B2FA82F57A6E7A6E002BC2F384628D
:102700002C4608BF6446A2420CD17A6E22F00042E9
:102710007A660A6802EA0E03C2F3846C92FAA2F2A5
:10272000B2FA82F5BA6EBA6E002BC2F384622C46FE
:1027300008BF6446A2420CD1BA6E22F00042BA66CB
:102740000A6802EA0E03C2F3846C92FAA2F2B2FAA9
:1027500082F5FA6EFA6E002BC2F3846208BF6546FA
:10276000AA4231D1FA6E22F00042FA662CE006222B
:1027700002EA95020E6807F1600504FA02FC55F8BA
:1027800023404FF20002C0F2FF3206F0F84622402A
:1027900046EA0C06324342F0004245F823200A691B
:1027A0008B6955F8226026F08076334345F8223055
:1027B0000A690B7F55F82260012B26F0007608BFCE
:1027C00006F1007645F82260BA68D2074FD10C684E
:1027D000CA68D7F8B06023466FF3DF4326EA030CDC
:1027E0004FF6FF7602F01805C0F20706EE4000250E
:1027F0002640C4F27F0546EA0C06AA42C7F8B0603C
:1028000035D18BB194FAA4F2B2FA82F2013202F01D
:102810001E03092B02F01F030FD801229A4003EB7D
:10282000430342EA035314E0012202EB946202F0F4
:102830001E030A2B02F01F03EFD3012200269A4049
:1028400003EB4303CFF6206606EB03531A4342F033
:102850000073C3F3406607EB86068A687569C3F3A5
:10286000045307249C40A5439A402A437261096897
:102870000022C8F2080211427BD040F2083CC5F2A7
:10288000000CDCF800300022CCF22132914203F03F
:10289000E07404D01022C9F2C00291423ED1190264
:1028A0004FF0000166D4B7F1A04F63D1DCF80010FF
:1028B00042F6635221F0E071214341F40001CCF86B
:1028C000001040F27C01C2F200010968C0F23E52E1
:1028D0008909A1FB0212910901EB41010C2202EBD3
:1028E000810100910099002943D000BF009901396E
:1028F00000910099E9B30099013900910099C1B3A1
:10290000009901390091009999B30099013900911A
:10291000009900294FF00001E8D12BE00022CCF211
:102920005272914208BF13F0807215D00022CCF68B
:10293000843291424FF0000108BF13F4800219D194
:10294000ACF50272974215D0DCF8001021F0E0716E
:10295000214341F480010AE0ACF502718F4208D0B6
:10296000DCF8001021F0E071214341F08071CCF8D7
:1029700000100021002280F85820084601B0F0BD68
:102980002DE9F04198B00446002000903CB3E06D82
:10299000002840F0CA8000201790CDE91500CDE94D
:1029A000130002A84421FDF76AFF206840F20011DD
:1029B000C5F20001884216D0B0F1A04F40F0B180BE
:1029C0004FF4004002904FF00050119002A801F027
:1029D00091FFC0B1EFF3108072B600BFFEE7012097
:1029E00018B0BDE8F0814FF4004002904FF0005065
:1029F000119002A801F07EFF002846D0EFF310806E
:102A000072B600BFFEE740F6C071C2F200010A686C
:102A100041F24C00C4F20200531C0B6042B9016841
:102A200041F400510160016801F4005101910199E4
:102A30000168002641F001010160006813A900F05F
:102A40000100019001980D201390032014904FF085
:102A50009040159600F0D4FC42F2F8351C20C2F2EA
:102A60000005C4F20200052180224FF4807385E83E
:102A7000430005F114004FF4806C4FF0200EC5E9BF
:102A8000036280E808502E6241E040F6C071C2F255
:102A900000010A6841F24C00C4F20200531C0B60B2
:102AA00042B9016841F400510160016801F400512C
:102AB0000191019901684FF0200841F00101016086
:102AC0000068002700F00100019001980320149095
:102AD00013A94FF09040CDF84C80159700F090FC72
:102AE0001C20C4F2020042F258451430C2F2000524
:102AF000242180224FF4807385E8830005F11400BF
:102B00004FF48066C5E9037280E848012F622846C9
:102B100000F070FB18B1EFF3108072B6FEE7656548
:102B2000AC620020206684F8580021688868800024
:102B300006D588684FF6C072C5F6FF7210408860EF
:102B40008868C0002FD44FF6C0728868C5F6FF723F
:102B500002F18052104000F18050886040F27C0009
:102B6000C2F20000006842F663528009C0F23E5291
:102B7000A0FB02029009022202EB400000900098A4
:102B800088B1009801380090009860B10098013831
:102B90000090009838B1009801380090009810B16A
:102BA00000980138EAE78868C00009D4E06D40F079
:102BB0001000E065206E40F001002066012000E07A
:102BC00000208A68E36D02F0040203F01003D218BB
:102BD000E26D63D122F481720232E2658A68D20723
:102BE00016D140F208324FF600534FF60067C5F297
:102BF0000002CFF6FF73CFF6FF77D358D7593B4388
:102C0000DB0705D16368176827F47C173B43136023
:102C1000627FE36B43EA4232D4E902731A4394F8C9
:102C200024303A43012B42EA034206D1A36A00272B
:102C3000CFF6FE7707EB43431A43E36A23B1276BD2
:102C400003F478733B431A43CB6844F20707CFF68B
:102C5000F0773B401A43CA600A69636B22F0406216
:102C60001A430A618A6812073CD494F83820237FFB
:102C7000520042EA8332CB6844F20207BB431A4354
:102C8000CA6022690B696AB143F480330B61D1F8E1
:102C9000C03043F6FF77BB431A430BE042F010010C
:102CA00001202DE023F480320A61D1F8C02043F6E0
:102CB000FF739A43C1F8C02094F840300A69012B91
:102CC0000DD140F2FD739A43D4E91137D4E913656D
:102CD0001A433A4332432A4342F0010201E022F010
:102CE00001020A6162690B6B012A23F00F0202D113
:102CF000236A013B1A430A63E16D012262F3010179
:102D0000E16518B0BDE8F0812DE9F04182B00446DC
:102D100040F20830C5F20000076823689A6852073D
:102D20002DD40A4694F85810012928D007F01F0125
:102D3000092921D801278F4040F2212637421BD094
:102D4000002701979F684FF6C078FF07C7F6FF7806
:102D50003AD19E6808F17F052E4213D0E06D40F015
:102D60001000E065206E40F001002066002084F82D
:102D7000580002B0BDE8F081002084F8580002B08D
:102D8000BDE8F0819E6806EA080646F001069E60EE
:102D9000066836025DD444F2B015C2F200052E6812
:102DA0001F68FF0710D19F68FF0705D19F6807EADA
:102DB000080747F001079F602F68BF1B032FEFD361
:102DC0001F68FF07ECD1C9E7E76D40F60176B7430E
:102DD000A0F5027007F580778342E76500D119B945
:102DE000E06D20F48010E065E06D41F61D37C00411
:102DF0004FF0000044BF206E20F006002066606D9A
:102E000041F68536C0F60007C0F6000641F671357A
:102E10000021C0F60005C0E90B761C2745631F6042
:102E200084F85810596841F010015960D96841F090
:102E30000101D96003F14001032300F06FFA20681B
:102E4000816801EA080141F00401816002B0BDE837
:102E5000F08140F27C06C2F20006366842F6635505
:102E6000B609C0F23E55A6FB0565AE0906EB46065F
:102E70000C2505EB86060196019E002E8BD0019E47
:102E8000013E0196019E002E3FF485AF019E013E5A
:102E90000196019E002E3FF47EAF019E013E0196F9
:102EA000019E002E3FF477AF019E013EE3E7000054
:102EB0002DE9F04100284FF0010318BF002902D18D
:102EC0001846BDE8F0814379012B4FF00203F7D09B
:102ED000D1F808C00125BCF1040F4571037154D12C
:102EE00044F2B01EC2F2000EDEF8004003685D6BD3
:102EF0003AB1B5F1FF3F12DD4D6A5D6449E000BFB4
:102F00005D6B2D0443D5DEF800502D1B022DF7D349
:102F10005D6B2D04F4D52FE05D6B002DECD5DEF854
:102F200000502D1B022D03D35D6BB5F1FF3F23DD58
:102F30005D6BB5F1FF3FDFDCDEF800502D1B022D8D
:102F400002D35D6B002D17D45D6BB5F1FF3FD3DC71
:102F5000DEF800502D1B022D02D35D6B002D0BD42B
:102F60005D6BB5F1FF3FC7DCDEF800502D1B022D75
:102F7000D2D35D6B002DCFD50169032341F0080149
:102F8000016103711846BDE8F081036818E04D6ADD
:102F90001D64D3F848E002F0100440F2FF35A5406C
:102FA0002EEA050ED1E90A57FF26A54045EA0E058F
:102FB0009D64DD6CA64025EA0606A7403743DF6422
:102FC000CF69012F0BD19F6B02F010021F260D6AF3
:102FD0009640B74305FA02F637439F6301E002F0DB
:102FE0001002D3F83CE08C69012C04D0022C05D1EE
:102FF0004FF0010807E04FF0000804E04C69B4FA14
:1030000084F44FEA54184D690E794C7945EA080565
:10301000012E08BF45F4807540F20737012C08BF28
:1030200045F4007597404CEA050C6FF440440D6878
:103030007C40022D04EA0E040ED140F27C07C2F25D
:103040000007D7F800E046F60105C0F68915AE4541
:1030500004D344F4004409E02C4307E04BF200455C
:10306000C0F2C445AE4588BF44F480440CFA02F770
:103070002743DF634FF480471E68974026EA07071F
:103080001F601F6840F6FE769640B743D1E90361A2
:1030900006FA02F52F431F60C0271D68974025EAF6
:1030A00007071F60C6F3830701F03C0147EA81115F
:1030B0001F6E40F60F769640B7439140394319662C
:1030C00001210023017143711846BDE8F081000021
:1030D00080B590F8251002292DD10168D0E910CED5
:1030E000826C0B6823F00E030B600B6823F0010366
:1030F0000B60116821F4807111600EF01F02012134
:1031000001FA02F2CCF80420D0E913325A60426D81
:1031100032B1136823F480731360D0E9162353602F
:1031200080F82510826B002180F824100AB19047A6
:103130000021084680BD0421C1630121002280F8DE
:10314000251080F82420084680BD0000B0B5D0E9E5
:1031500010C30268DCF8001003F01F030424D2F847
:1031600000E09C400C4218BF1EF0040521D102244F
:103170009C400C4218BF1EF0020527D1D940090718
:1031800023D51EF0080108BFB0BD116821F00E0163
:103190001160012101FA03F2CCF80420C16380F828
:1031A0002510416B002280F8242071B1BDE8B040A9
:1031B00008471168890603D4116821F004011160E1
:1031C000CCF80440016B0029F0D1B0BD116889062C
:1031D00006D4116821F00A011160012180F8251040
:1031E000CCF80440C16A0022002980F82420DDD1F7
:1031F000EBE7000000284FF0010100F08C802DE982
:10320000F04740F2000CC4F2020C03684FF6F832AB
:103210000CF5816ECBF6FD72734538BF02F5806206
:103220004CF6CD441A44CCF6CC44A2FB042803F05F
:10323000FC02A2F10802A2FB04290CF580656FF0E4
:103240000304D0E90262D0F810A03CBF0025C4F20C
:10325000020504EA9804C0E91054022580F82550BC
:103260001D6847F6F07725EA07073A43476942EABF
:103270000A0285693A43C7692A43056A3A432A43E1
:1032800032431A600CF50262734538BF0CF50062D8
:10329000A3180CF50862C264C9F3041240F6840C4A
:1032A00001FA02F2B6F5804FC4F2020C83640265A3
:1032B00005D1002141601960CCF800201CE0416874
:1032C0005FFA81FE013903294FF00001C3F800E0E5
:1032D000CCF8002010D8AEF101020CEB820747F8C1
:1032E0007C1F02F01F01012202FA01F30CF1BC0263
:1032F0003946CCF8C03001E00022002300F1540C24
:103300008CE80E0000210122C16380F8252080F89E
:103310002410BDE8F0470846704700002DE9F04151
:1033200090F824C0BCF1010F43D04FF0010C80F89D
:1033300024C090F825C0BCF1010F37D14FF0020C2A
:1033400080F825C04FF0000CC0F83CC0D0F800C099
:1033500000F14C0E9EE83040DCF80060BEF1000F3A
:1033600026F00106CCF8006065601CBFD0E9164568
:103370006560D0E91076012506F01F068468B54027
:10338000D0F830807D60CCF804300B46102C04BFA0
:1033900013460A46CCF80830CCF80C20DCF80010B4
:1033A000B8F1000F08D041F00E010DE0002180F8C7
:1033B00024100220BDE8F08121F00401CCF80010B7
:1033C000DCF8001041F00A01CCF80010806C0168B4
:1033D000C90303D5016841F480710160BEF1000F9B
:1033E00005D0DEF8000040F48070CEF80000DCF874
:1033F000000040F00100CCF800000020BDE8F081A2
:103400002DE9F04F82B00C68002C00F0C88041F22A
:10341000004500F13847C4F6000506224FEAB726FA
:10342000A84208BF0522052E38BF4FEAB722012760
:1034300000254FF0000E012600920AE00C680EF104
:10344000040E34FA06F206F1010605F1020500F059
:10345000A680A6F1010907FA09FB14EA0B08EDD0D2
:10346000D1F804C003230CF00304621EAB40012A10
:103470006FEA030A10D88268CB6802EA0A02AB40FE
:103480001A4382604268CCF3001322EA0B0203FA6B
:1034900009F31A43426003E0032C01D103241FE027
:1034A000C2688B6802EA0A02AB401A43022CC2606F
:1034B00016D16FF0030202EA590202440EF01C0416
:1034C0000F23D2F820C003FA04FB0B692CEA0B0C83
:1034D000A34043EA0C031362D1F804C00CF00304C8
:1034E000026804FA05F302EA0A021A431CF4403F98
:1034F0000260A3D041F26003C4F202031A684FF6DF
:10350000084A42F001021A601A68CFF6FF7A02F008
:1035100001020192019A29F0030240F20049C4F22B
:1035200001094A4452F80AC00EF00C040F23009F10
:10353000A3402CEA030307FA04F4234342F80A30B9
:10354000D9F808C04B684CEA0804DA0258BF2CEAE4
:10355000080440F20C4CC9F80840C4F2010CDCF835
:1035600000209F0242EA080458BF22EA0804CCF86F
:103570000040D9F804209C0342EA080758BF22EA19
:103580000807C9F80470D9F80020DB0342EA0807ED
:1035900058BF22EA0807C9F8007001274EE702B0B9
:1035A000BDE8F08FB0B582B041F20801C4F202016B
:1035B0000A6D4BF2785342F020020A650A6DC0F69C
:1035C000010302F020020192019A0A680A680A685F
:1035D0000A6842F20002C4F20202126840F27C025F
:1035E000C2F20002126809680446C1F30221595C64
:1035F0004FF0FF3001F01F0122FA01F14DF6836216
:10360000C4F21B32A1FB021242F6AC3541F200417A
:1036100000EB9240C2F20005C4F2000140F2E73232
:103620000023C5E900102846C5E902322B6102F0EB
:10363000CDF808B102B0B0BD95F83D0001281DD10C
:10364000022085F83D00286842F6FF32C168C4F2C6
:103650000102904241F00101C16012DCB0F1804FE3
:1036600021D040F20041C4F2000188421BD040F654
:103670000001C4F20001884215D01EE0012002B012
:10368000B0BD42F60041C4F2010188420BD044F2C1
:103690000001C4F20101884205D043F20041C4F2A6
:1036A0000101884209D181680722C0F2010211405C
:1036B000062906D0B1F5803F03D0016841F0010131
:1036C00001604EF20410CEF200004FF400010160E0
:1036D0000F2C4FF00100ADD84EF60C51CEF2000188
:1036E00009680023C1F3022181F00702042A28BFE0
:1036F0000422033938BF19464FF0FF3303FA02F2B0
:10370000D24302FA01F14EF237420901CEF2000231
:10371000117044F2B411C2F200010870002002B02E
:10372000B0BD00002DE9F04387B040B1044690F8E9
:103730003A00052803D094F83A00022803D101206A
:1037400007B0BDE8F08341F24C00C4F202004169C9
:1037500040F2083341F0010141614169C4F20103C3
:1037600001F001010291029994F83A100022002917
:1037700004BF002184F8391021680692994205920D
:1037800014D040F20432C4F20102914222D1016805
:1037900041F0020101600068012100F00200019087
:1037A000019840F20040C4F600000BE0016841F0CF
:1037B000010101600068022100F001000190019800
:1037C0004FF090400291032103910021049102A93E
:1037D000FFF716FED4F808C04CF02000602821D175
:1037E000D4E9000ED4F810800168E26A21F01001DB
:1037F00011430160016843F61162CEF200021140EC
:10380000D4E9095641EA0E01227D41EA0801294323
:10381000D4E90C73012A08BF41F48071314341EAB5
:10382000C74122E0D4E9000ED4E903890768E66ABB
:1038300027F0100737430760076843F61166CEF29A
:103840000006374047EA0E07D4E9095147EA08075E
:10385000267D47EA0907D4E90C232F43012E08BF30
:1038600047F48077394341EAC24141EA036242EAC0
:103870000C0101608169002909D4816904F11807EC
:103880008CCF21F03F01114319433943816194F8F2
:103890003A00002804BF012084F83A00002007B055
:1038A000BDE8F083B0B5014642F2A460C2F2000068
:1038B000D0F8D84269B194F89C02032818BFB0BD73
:1038C000D4F8B8024269002A7DD02046BDE8B04055
:1038D000104701EB810100EBC100406AD4F894125B
:1038E000022969D1D4E90712914217D9891AD4F86B
:1038F000C422012382F83430002302F1240CE16158
:103900008CE80B0011634FF480731068114621F8A6
:10391000103F05F0C7FFD4F8C42241E01CD1A069D4
:10392000884219D3D4F89812884215D2D4F8C41218
:103930000120002581F834004FF480720868C1E945
:103940000955C1E90B5521F8102F05F0ABFFD4F84C
:10395000C422C4F8985223E094F89C02032805D1AD
:10396000D4F8B802C16809B120468847D4F8C42207
:103970000120907492F890024FF480710128118216
:103980000BD0106840F63F730188194048F290034D
:1039900059400180002082F890020520C4F894026A
:1039A000106802F5A8710023C2E95933C2F86C31DE
:1039B000A2F8503105F076FF94F8A002012802D158
:1039C000002084F8A002B0BD10B5014642F2A46008
:1039D000C2F20000D0F8D84261B194F89C020328EA
:1039E00018BF10BDD4F8B80282693AB32046BDE8CA
:1039F0001040104701EB810100EBC100D0F86401D9
:103A0000D4F89412032919D1D4E95712914216D946
:103A1000D4F8C432891AC4F85C11914238BF0A46FE
:103A20000024C3E95902186803F5A871C3F86C4172
:103A3000A3F85041BDE8104005F034BF10BD94F824
:103A40009C02032805D1D4F8B802016909B12046C7
:103A500088470420C4F89402D4F8C422012000232B
:103A600082F834004FF4807410681146C2E90933BB
:103A7000D36221F8104F1363BDE8104005F012BF68
:103A80002DE9F04381B042F2A463C2F2000393F83F
:103A90009A9293F89B12D3F8D84249EA012293F8FC
:103AA000985293F89902A4F8AC2293F89C1293F8D8
:103AB0009D72B3F89E3241EA0727012684F8AA5284
:103AC00084F8AB02A4F8AE72A4F8B032C4F89462E1
:103AD00005F01F0604F2AA284FFA81FC022EC4F852
:103AE000983218D0012E28D0002E56D115F0600142
:103AF00000F0A280402917D0202915D0D4F8C402A4
:103B0000012190F890224FF48073012A817403827E
:103B100000F0008146E115F0600700F0B980402F09
:103B200002D0202F40F0D880D4F8B80241468268F5
:103B3000204601B0BDE8F043104715F0600018BF03
:103B400040286BD194F89C020138022859D8BCF166
:103B5000010F00F2D480D4F8B802414682682046B2
:103B60009047B4F8B012002940F0C680002840F019
:103B7000C3800420C4F89402D4F8C4220023012096
:103B800082F8340053629362D3624FF480771068F6
:103B9000114621F8107F13639CE3D4F8C40215F09A
:103BA000800109D101EB810100EBC10202F5A8718E
:103BB000002382F8513103E0012200F11001427428
:103BC00090F8903201228A700022012B0A7000F0D6
:103BD0009380036849781F88002948F2900140F6D5
:103BE0003F76CFF6FF7108BF43F60F7608BF01F5A9
:103BF0007F6137407940198080F8902201B0BDE89C
:103C0000F083D4F8C402012190F890224FF480731D
:103C1000012A8174038200F07D80C3E0202891D0C6
:103C2000D4F8C402012190F890224FF48073012A45
:103C3000817403826ED0B5E0092800F2E980DFE8E4
:103C400010F00A00CE00E700F400E70002011401C2
:103C5000E70035014F0194F89C020138022800F278
:103C6000EF81022B40F03682D4F8A4020321002811
:103C700008BF012144F80C1F0222C4F88822D4F89E
:103C8000B8320120C4E9032283F83400002023E184
:103C9000002847D001285CD0032878D194F89C02F2
:103CA000032800F04C81022840F06981D4F8C42236
:103CB000480600F01C82137901F00700984240F298
:103CC000A78292F89002012191744FF4807101282B
:103CD000118211D000F03ABCD4F8C402012190F84E
:103CE00090224FF48073012A817403825AD180F8A4
:103CF00052110021A0F8501101B0BDE8F083D4F8B2
:103D0000C402012190F890224FF48073012A81743B
:103D1000038247D180F852110021A0F8501101B060
:103D2000BDE8F08394F89C02032800F03581022856
:103D300040F04E81480600F0EB81D4F8C402012126
:103D400090F890224FF48073012A81740382E1D0AD
:103D500028E094F89C02032800F04781022840F0F4
:103D60006281D4F8C422480600F0F381137901F08F
:103D70000700984240F25A8292F890020121917411
:103D80004FF480710128118240F0E083B4E7D4F849
:103D9000C402012190F890224FF48073012A8174AB
:103DA0000382B7D0026840F63F7713883B4048F261
:103DB0009007CFF6FF777B401380002380F8903286
:103DC00080F85211A0F85031108843F60F71084066
:103DD00007F57F614840108001B0BDE8F08394F89A
:103DE0009C020138022800F2388190B201287FF449
:103DF00083AF00220420C4F8A422C4F89402D4F8AB
:103E0000C432012083F83400C3E90922DA625AE29D
:103E1000D4F8C402012190F890224FF48073012A53
:103E2000817403823FF476AFBCE790B201287FF43F
:103E300063AF01200421C4F8A402C4F89412D4F89A
:103E4000C42200239CE6380408BF002B00F02C811C
:103E5000D4F8C402012190F890224FF48073012A13
:103E6000817403823FF456AF9CE70020ADF8020056
:103E7000B4F8AC024FF0FF3101EB10210E2900F233
:103E80005882DFE811F00F002C0238025602560269
:103E90006302740256025602560256025602560237
:103EA00056028502D4F8B402026877E2012B40F092
:103EB000E18094F89C02411E022980F0708100206C
:103EC00044F8080F0221C4F88C12D4F8BC32012245
:103ED0002261626183F834205C629A62D862F2E106
:103EE00041F21405C2F20005B9F1020F85F8009005
:103EF00080F0CD8094F89C02032800F0A581022870
:103F000040F0C181B9F1000F3FF433AED4F8B802EC
:103F1000C4F8049030B10268204649469047002812
:103F200000F0F483D4F8C402012190F890224FF4F9
:103F30008073012A817403823FF4ECAE32E71004EF
:103F40007FF417AE11F07F003FF413AE002B7FF427
:103F500010AED4F8C40201F0070203799A423FF68A
:103F600008AEBCF1FF3F40F3028301EB810100EB9F
:103F7000C10303F5A871002783F85171FFE2D4F85B
:103F8000C402012190F890224FF48073012A8174B9
:103F900003823FF4BFAE05E701F00F0000EB8000A5
:103FA000BCF1FF3F04EB800040F30981B0F86401ED
:103FB000002840F00881D4F8C402012190F8902232
:103FC0004FF48073012A817403823FF4A3AEE9E6C3
:103FD000D4F8C402012190F890224FF48073012A92
:103FE000817403823FF496AEDCE610047FF484AE65
:103FF000480600F06984D4F8C42201F00F03107958
:10400000834200F2618401F0070000EB8000BCF104
:10401000FF3F02EBC00040F3488300F5A873002186
:1040200080F8511145E3D4F8C402012190F89022A0
:104030004FF48073012A817403823FF46BAEB1E6C2
:10404000D4F8C402012190F890224FF48073012A21
:10405000817403823FF45EAEA4E6D4F8C402012169
:1040600090F890224FF48073012A817403823FF408
:1040700051AE97E6D4F8C402012190F890224FF493
:104080008073012A817403823FF444AE8AE6D4F837
:10409000C402012190F890224FF48073012A8174A8
:1040A00003823FF437AE7DE690B27F283FF6D0AE74
:1040B00094F89C02032840F07681D4F8C4020121D0
:1040C00090F890224FF48073012A817403823FF4A8
:1040D00021AE67E6D4F8C402012190F890224FF493
:1040E0008073012A817403823FF414AE5AE692F879
:1040F000901201204FF4807301299074138231D102
:1041000082F852010020A2F8500101B0BDE8F0830E
:1041100004F5AA704FF4AA7100220223BCF1000F2B
:1041200044BF142104F114006250C4F89432D4F84E
:10413000C472012187F83410C7E90903FA624FF409
:10414000807238683946C4E9063321F8102F3B6382
:10415000C0E092F8901201204FF48073012990740E
:104160001382CDD0116840F63F770B883B4048F270
:104170009007CFF6FF777B400B80002382F89032C8
:1041800082F85201A2F85031088843F60F721040AD
:1041900007F57F625040088001B0BDE8F083032836
:1041A00040F034810221C4F89412D4F8C432201DA6
:1041B00001220021A261E26183F8342080E0808C3A
:1041C000002800F0308101F07F0000EB800004EB5C
:1041D000800202F11400BCF1FF3FC8BF02F5AA70D3
:1041E00049064FF000015FD0D4F8C4220CF07F03E1
:1041F00003EB830302EBC30202F5A973BCF1000FCA
:1042000048BF02F112031A78002A18BF01224CE0BD
:10421000BCF1FF3F40F33C8101EB810102EBC101A6
:1042200001F5A873002781F8517139E1BCF1FF3F16
:1042300040F35A8101EB810102EBC10101F5A87342
:10424000002781F8517157E1B9F1000F00F0B981F1
:10425000606848453FF48DACD4F8B812002900F0EE
:10426000DD824A68C1B220469047D4F8B802297866
:104270000028616000F0D482026820469047002840
:1042800040F0CE8275E4D4F8C412012291F8900275
:104290004FF4807301288A740B8240F0D18001F5BD
:1042A000A870A1F85131E7E0002202600222C4F8B0
:1042B0009422D4F8C4320127C4E9062283F834706A
:1042C00058629A62D9624FF480771868194621F8CB
:1042D000107F1A6301B0BDE8F04305F0E3BA217C1A
:1042E000D4F8B80200290CBF816AC16A0DF102003E
:1042F0008847022183E1C0B2052800F21D82DFE871
:1043000010F0060029023D02510265027902D4F83C
:10431000B4024268002A41D1D4F8C402012190F8C5
:1043200090224FF48073012A817403827FF43AADA6
:10433000F0E4D4F8C402012190F890224FF4807385
:10434000012A817403823FF4E5AC2BE5207C002830
:1043500000F04781D4F8C402012190F890224FF474
:104360008073012A817403823FF4D4AC1AE5207C67
:10437000002800F03D81D4F8C402012190F8902279
:104380004FF48073012A817403823FF4C3AC09E5C2
:10439000D4F8B402C269002A00F07981207C0DF1C2
:1043A000020190472CE1D4F8C40284F89E9290F860
:1043B000901201290ED00121B9F1000F80F890125E
:1043C00080F80C9003D101688022A1F84C200021D4
:1043D00080F890120421C4F894120021012580F87D
:1043E0003450C0E90911C0E90B114FF48072014645
:1043F000006821F8102F05F055FAB9F1000F40F0D0
:10440000448284F89C5201B0BDE8F083D4F8C40221
:10441000012190F890224FF48073012A8174038265
:104420003FF478ACBEE4D4F8C402012190F89022A5
:104430004FF48073012A817403823FF46BACB1E4C2
:104440000B6840F63F761F8801F52470374048F22C
:104450009006CFF6FF7677401F80002781F8907294
:1044600081F85221A1F85071198843F60F7211405A
:1044700006F57F625140198000210170D4F8B8021E
:1044800000283FF439AC426820464946FFF751BB4B
:1044900000EB800102EBC101012701F110034F7411
:1044A00092F890720121012F997018702BD0176823
:1044B0005B7837F82060002B48F2900340F63F7598
:1044C000CFF6FF7308BF43F60F7508BF03F57F6390
:1044D0002E40734027F82030002082F890024FF4DD
:1044E00080709174108231E000EB800102EBC10119
:1044F000012701F110034F7492F890720121012FEE
:104500009970187006D14FF480709174108201B0C8
:10451000BDE8F08317685B7837F82060002B48F21D
:10452000900340F63F75CFF6FF7308BF43F60F7553
:1045300008BF03F57F632E40734027F8203000202A
:1045400082F890024FF4807091741082106840F6E7
:104550003F730188194048F29003CFF6FF7359402A
:104560000180002082F8900201B0BDE8F08302EBE8
:10457000820100EBC103012703F110015F7490F881
:1045800090720123012F8B700A703FF4F2AA036826
:10459000497833F82270002948F2900140F63F76BE
:1045A000CFF6FF7108BF43F60F7608BF01F57F61B4
:1045B0003740794023F82210002180F89012FFF74D
:1045C000D8BA022084F89C02D4F8B802C4F8049047
:1045D00000283FF4CEAA4268204600219047FFF70A
:1045E000C8BAD4F8B802416B0DF10200884707E061
:1045F000D4F8B802016B0DF1020088470721417021
:10460000B4F8B012F1B1BDF8022092B38A4238BFBB
:1046100011460222ADF80210C4F89422D4F8C42244
:10462000012382F83430002302F1240CC4E906117E
:104630008CE80B0011634FF480731068114621F869
:10464000103F11E00420C4F89402D4F8C4120020F2
:10465000012281F83420C1E90900C1E90B004FF4BF
:104660008072086821F8102F05F01CF901B0BDE830
:10467000F083D4F8C402012190F890224FF48073A3
:10468000012A817403823FF445ABFFF78BBBD4F85A
:10469000C402012190F890224FF48073012A8174A2
:1046A00003823FF437ABFFF77DBB012100F110031C
:1046B00041740020987092F890020CF007010128D4
:1046C000197000F00181012082F8900210685E7874
:1046D00030F82170002E4FEA410100F0DC807F06A7
:1046E00048F2900709D530F8116040F60F752E405A
:1046F00007F130052E4320F81160DB78012B00F024
:10470000E08007F1100340F63F77D4E00420C4F8BE
:104710009402D4F8C4120020012281F83420C1E9A7
:104720000900C1E90B004FF48072086821F8102FCE
:1047300005F0B8F80320A9E0D4F8C402012190F8EC
:1047400090224FF48073012A817403823FF4E2AA1D
:10475000FFF728BBD4F8B4028268002A7FF41EAEAB
:10476000D4F8C402012190F890224FF48073012AFA
:10477000817403823FF4CEAAFFF714BBD4F8B402CD
:10478000C268002A7FF40AAED4F8C402012190F86E
:1047900090224FF48073012A817403823FF4BAAAF5
:1047A000FFF700BBD4F8B4020269002A7FF4F6AD2B
:1047B000D4F8C402012190F890224FF48073012AAA
:1047C000817403823FF4A6AAFFF7ECBAD4F8B402CE
:1047D0004269002A7FF4E2ADD4F8C402012190F8C6
:1047E00090224FF48073012A817403823FF492AACD
:1047F000FFF7D8BAD4F8B4028269002A7FF4CEADAC
:10480000D4F8C402012190F890224FF48073012A59
:10481000817403823FF47EAAFFF7C4BAC4F80490FF
:10482000D4F8C412012291F890024FF48073012849
:104830008A740B8204D101F5A870A1F851311BE0F4
:104840000B6840F63F761F8801F52470374048F228
:104850009006CFF6FF7677401F80002781F8907290
:1048600081F85221A1F85071198843F60F72114056
:1048700006F57F625140198000210170D4F8B8021A
:1048800018B12179426820469047022084F89C02A2
:1048900001B0BDE8F0837B044BF2800309D530F80A
:1048A000117040F60F76374003F58056374320F8F5
:1048B000117043F60F7730F8116037407B4020F8D5
:1048C0001130002082F890020420C4F89402D4F839
:1048D000C4120020012281F83420C1E90900C1E995
:1048E0000B004FF48072086821F8102F04F0DAFFF3
:1048F000FFF71AB9F0B581B0036841F288021903D5
:10490000C4F2020256D44FF0000ED90700F0BB806B
:104910001168476821F0030139431160990740F19C
:10492000B5801168876821F00C013943116059077F
:1049300040F1AF801168C76821F030013943116040
:10494000190740F1A9801168076921F0C0013943B6
:104950001160990640F1A3801168476921F4406114
:1049600039431160590640F19D801168876921F42F
:10497000405139431160190640F197801168C769A9
:1049800021F4404139431160D90540F1918011680B
:10499000076A21F4403139431160990540F18B8059
:1049A0001168476A21F4402139431160590540F1EB
:1049B000938082E052F8301C11F0805C0BD152F8E9
:1049C000301C41F0805142F8301C52F8301C01F08C
:1049D00080510091009947F20004C4F2000421685C
:1049E00041F48071216044F2B011C2F200010E68FE
:1049F0002568ED051BD40D68AD1B022D14D8256864
:104A0000ED0514D40D68AD1B022D0DD82568ED05FC
:104A10000DD40D68AD1B022D06D82568ED0506D412
:104A20000D68AD1B022DE3D94FF0030E1CE0966814
:104A3000076C16F4407610D0BE420BD0966895688D
:104A400026F4407645F480359560956825F48035E8
:104A500095609660F60740F0978091684FF0000EE1
:104A600021F4407139439160BCF1000F08D152F834
:104A7000301C21F0805142F8301CD90703D047E7A1
:104A8000D9077FF445AF99073FF54BAF59073FF57D
:104A900051AF19073FF557AF99063FF55DAF59067E
:104AA0003FF563AF19063FF569AFD9053FF56FAF25
:104AB00099053FF575AF59050ED51168876A21F440
:104AC00040113943B7F5801F116005D152F87C1CA5
:104AD00041F4801142F87C1C19050ED51168C76A93
:104AE00021F440013943B7F5800F116005D152F828
:104AF0007C1C41F4801142F87C1CD9040ED511684D
:104B0000076B21F040713943B7F1807F116005D107
:104B100052F87C1C41F4801142F87C1C99040ED59B
:104B20001168476B21F040613943B7F1006F1160A4
:104B300005D152F87C1C41F4801142F87C1C5904C8
:104B40000ED51168876B21F040613943B7F1006FD2
:104B5000116005D152F87C1C41F4801142F87C1C94
:104B600019040ED51168C06B21F040510143B0F11A
:104B7000805F116005D152F87C0C40F4803042F81F
:104B80007C0C704601B0F0BD0D6841F288364FF0E4
:104B9000030E9468A4073FF560AF0C68641BB44231
:104BA0003FF642AF9468A4073FF557AF0C68641B0B
:104BB000B4423FF639AF9468A4073FF54EAF0C6896
:104BC000641BB4423FF630AF9468A4073FF545AF8D
:104BD0000C68641BB442DCD946E70000F0B500283D
:104BE00063D042F20003C4F20203196811F00C0F03
:104BF00009D11968042262F303011960196801F0F0
:104C00000F01042951D1D0F800C041F208025FEA37
:104C1000CC71C4F2020204D15FEA8C7140F1DB80F6
:104C2000C4E04168022935D003293AD152F8087C02
:104C3000BF013AD55768566842F20044C6F30316DE
:104C400007F0030755680136C0F2F404032F04BFD0
:104C500043F20064C0F26E14B4FBF6F75668C5F375
:104C600006256F43C6F34166022505EB4606B7FBF2
:104C7000F6F74BF20046C0F2C446B74253D9176864
:104C800017F0F00F47D05FEA8C774CD58768002F7C
:104C900049D140E052F8087CBF035CBF0120F0BD61
:104CA00005E052F8087C7F0501D40120F0BD1768AB
:104CB00007F00C07042F36D0176807F00C07082FF1
:104CC00031D0176807F00C070C2F2CD157685668A5
:104CD00042F20044C6F3031607F003075568013695
:104CE000C0F2F404032F04BF43F20064C0F26E1458
:104CF000B4FBF6F75668C5F306256F43C6F3416665
:104D0000022505EB4606B7FBF6F74BF20046C0F26C
:104D1000C446B74207D91768082666F307174FF04D
:104D2000010E176001E04FF0000E14688E0024F0B1
:104D300003040C43146044F2B014C2F2000425686A
:104D400041F28837116801F00C01B14224D021688A
:104D5000491BB94200F2BC80116801F00C01B1425C
:104D60001AD02168491BB94200F2B280116801F0E3
:104D70000C01B14210D02168491BB94200F2A88051
:104D8000116801F00C01B14206D02168491BB942FB
:104D90004FF00301D6D955E05FEA8C7106D4BEF11D
:104DA000000F18D0116821F0F00113E05FEA4C7198
:104DB00003D5116841F4E06111605FEA0C7104D51C
:104DC0001168072767F30D2111601168876821F0CA
:104DD000F00139431160196801F00F01052933D33F
:104DE0001968042767F3030144F2B0151960C2F291
:104DF00000052C6841F28837196801F00F01042979
:104E000022D02968091BB94262D8196801F00F0144
:104E1000042919D02968091BB94259D8196801F029
:104E20000F01042910D02968091BB94250D819680C
:104E300001F00F01042907D02968091BB9424FF07E
:104E40000301D9D90846F0BD5FEA4C7105D5116858
:104E5000C36821F4E061194311605FEA0C7106D563
:104E60001168006921F4605141EAC00010601068C7
:104E700042F20041C0F2F40100F00C0004280846A0
:104E800029D0106800F00C00082843F20060C0F23E
:104E90006E1020D0136803F00C030C2B1AD153684A
:104EA000576803F00303C7F3031756680137032B52
:104EB00008BF0146B1FBF7F05168C6F30626C1F3FF
:104EC00041610223704303EB4101B0FBF1F002E0CA
:104ED0000320F0BD002011680DA2C1F30311515C45
:104EE00040F27C0201F01F0120FA01F144F2B410FB
:104EF000C2F200000078C2F2000200284FF0100059
:104F000018BF0F201160BDE8F040FEF74BBB00BF9B
:104F10000000000000000000010203040607080969
:104F2000F0B581B0002800F06781D0F800E041F2D0
:104F3000000504465FEACE70C4F2020554D15FEA70
:104F40008E7078D45FEA0E7000F1BB805FEA4E701D
:104F500000F1F9805FEA8E6000F16481E069002869
:104F600000F0B083A96801F00C010C2940F0268202
:104F7000012800F04181E868216A00F003028A42BA
:104F800040F03A81626A6FF00F0300F0F00103EB2A
:104F90000212914240F03081A16A00F4FE42B2EB6D
:104FA000012F40F02981E16A00F07842B2EBC16F35
:104FB00040F02281226B0023CFF6E07303EA025215
:104FC00000F4C001A2F50012914240F01581616B1E
:104FD0004FF07E4202EA016100F0C06001F17E41C3
:104FE000884240F009816DE3A86800F00C01E86890
:104FF000082900F09F80032281F00C0122EA0000C2
:105000000844B0FA80F0400940F09480606844F2AF
:10501000B012B0F5803FC2F2000207D0B0F5A02F69
:1050200040F06C81286840F480202860286840F4B3
:10503000803028606DE1A868E96800F00C00042861
:1050400000F0C08001F0030180F00C0081F002014B
:105050000844B0FA80F0400940F0B480E168286864
:10506000002900F07D8140F4807044F2B012286085
:10507000C2F2000213682868400500F1F68110684A
:10508000C01A022800F214832868400500F1ED815F
:105090001068C01A022800F20B832868400500F14E
:1050A000E4811068C01A022800F2028328684005D3
:1050B00000F1DB811068C01A02284FF00300DAD932
:1050C00001E36169D5F89400002900F0E48040F024
:1050D000010044F2B012C5F89400C2F20002136855
:1050E000D5F8940080073FF531AF1068C01A022848
:1050F00000F2DE82D5F8940080073FF527AF1068F4
:10510000C01A022800F2D482D5F8940080073FF537
:105110001DAF1068C01A022800F2CA82D5F89400A8
:1051200080073FF513AF1068C01A02284FF0030044
:10513000D6D9C8E2286880037FF501AF60680028EF
:105140007FF4FDAE58E0A86D10F0805C08D1A86D2A
:1051500040F08050A865A86D00F080500090009845
:1051600047F20003C4F200031868C00547D418686A
:1051700044F2B01240F480701860C2F2000211686C
:105180001868C0053BD41068401A022800F29082CB
:105190001868C00533D41068401A022800F28882CB
:1051A0001868C0052BD41068401A022800F28082CB
:1051B0001868C00523D41068401A02284FF0030075
:1051C000DED980E22868400501D5E068A0B16868B2
:1051D000216920F0FE4040EA0160686044F2B410AA
:1051E000C2F2000001781020002918BF0F20FEF73E
:1051F000D9F9002800F04181012001B0F0BDA0687C
:10520000012808D0052840F06E81D5F8900040F0C4
:105210000400C5F89000D5F8900040F00100C5F8F2
:1052200090006EE1A169D5F89800002900F028816E
:1052300040F0010044F2B011C5F89800C2F200013C
:105240000A68D5F8980080073FF588AE0868801A8C
:10525000022800F22D82D5F8980080073FF57EAE37
:105260000868801A022800F22382D5F89800800787
:105270003FF574AE0868801A022800F21982D5F84A
:10528000980080073FF56AAE0868801A02284FF040
:105290000300D6D917E220F0010044F2B012C5F89D
:1052A0009400C2F200021368D5F8940080077FF5DD
:1052B0004DAE1068C01A022800F2FA81D5F89400A9
:1052C00080077FF543AE1068C01A022800F2F08113
:1052D000D5F8940080077FF539AE1068C01A02280F
:1052E00000F2E681D5F8940080077FF52FAE1068B4
:1052F000C01A02284FF00300D6D9E4E1296800283B
:1053000021F480312960296821F48021296000F08E
:1053100025811368286880033FF511AE1068C01A14
:10532000642800F2C581286880033FF508AE106844
:10533000C01A642800F2BC81286880033FF5FFADE5
:105340001068C01A642800F2B381286880033FF512
:10535000F6AD1068C01A64284FF00300DAD9B2E144
:1053600020F4807044F2B0112860C2F200010A6893
:10537000286840057FF5E6AD0868801A022800F22B
:105380009781286840057FF5DDAD0868801A0228FE
:1053900000F28E81286840057FF5D4AD0868801A38
:1053A000022800F28581286840057FF5CBAD0868AA
:1053B000801A02284FF00300DAD984E12968022814
:1053C00021F08071296044F2B011C2F200010A6834
:1053D00025D12868800140F11B810868801A0228C5
:1053E00000F266812868800140F112810868801A05
:1053F000022800F25D812868800140F10981086877
:10540000801A022800F254812868800140F100814E
:105410000868801A02284FF00300DAD953E128689F
:10542000800140F148810868801A022800F240811A
:105430002868800140F13F810868801A022800F244
:1054400037812868800140F136810868801A022877
:1054500000F22E812868800140F12D810868801AB1
:1054600002284FF00300DAD92DE16868216920F0A5
:10547000FE4040EA0160686064E5D4F800E061E560
:1054800020F0010044F2B011C5F89800C2F200010A
:105490000A68D5F8980080077FF560AD0868801A23
:1054A000022800F20581D5F8980080077FF556ADF7
:1054B0000868801A022800F2FB80D5F8980080075F
:1054C0007FF54CAD0868801A022800F2F180D5F80B
:1054D000980080077FF542AD0868801A02284FF0D7
:1054E0000300D6D9EFE0D5F89010002821F0010193
:1054F000C5F89010D5F8901021F00401C5F890106F
:1055000053D044F2B013C2F200031A6841F288315A
:10551000D5F89000800772D41868801A884200F28B
:10552000C780D5F89000800769D41868801A88422F
:1055300000F2BE80D5F89000800760D41868801A09
:10554000884200F2B580D5F89000800757D41868DB
:10555000801A88424FF00300DAD9B4E01368286853
:1055600080037FF5ECAC1068C01A642800F2A080BC
:10557000286880037FF5E3AC1068C01A642800F245
:105580009780286880037FF5DAAC1068C01A642819
:1055900000F28E80286880037FF5D1AC1068C01AB5
:1055A00064284FF00300DAD98DE044F2B013C2F260
:1055B00000031A6841F28831D5F8900080071ED5A3
:1055C0001868801A884273D8D5F89000800716D5DD
:1055D0001868801A88426BD8D5F8900080070ED5DD
:1055E0001868801A884263D8D5F89000800706D5DD
:1055F0001868801A88424FF00300DDD963E0BCF1DF
:10560000000F7FF4A7ACA86D20F08050A865A1E43E
:10561000E86848F20C02C0F29F1200EA020CD4E9DA
:1056200008236FF00F07D4E90A0ED4E90C6407EBE6
:1056300003130027CFF6E07742EA0C0207EA06568A
:105640001A43A6F500164FF07E4742EA002007EA0B
:105650000464304304F17E4440EACE602043E860B5
:10566000286840F080702860E86840F08070E8604A
:105670000A682868800125D40868801A022817D88B
:10568000286880011ED40868801A022810D828686B
:10569000800117D40868801A022809D82868800178
:1056A00010D40868801A02284FF00300E1D90AE0FC
:1056B000032001B0F0BDE8684FF6FC71CFF6EE6153
:1056C0000840E860002001B0F0BD000070B504465D
:1056D00090F85D00012803D1002918BF002A00D1ED
:1056E00070BD94F85C00012808BF70BD012084F8EB
:1056F0005C000320002384F85D002366A163A28779
:10570000E2872364C4E91333A4F84430A4F8463094
:10571000A0682268B0F5004F07D1106820F0400063
:105720001060106840F480401060606D47F6514E84
:1057300047F6554547F61546C0F6000EC0F600057B
:10574000C0F60006C0E90B5EC0E90D63D4F80CC0DA
:105750005368BCF5E06F23F48043536015D8836928
:10576000B3F5806F11D1E68F5368F60705D123F4A6
:1057700080435360E38F5B0806E043F4804353604B
:10578000E38F012606EB5303E387E38F0C32FDF72B
:10579000C5FD38B1206E40F010002066002084F86E
:1057A0005C0070BD20680168490603D4016841F0BF
:1057B00040010160002184F85C10416841F0200143
:1057C0004160416841F00201416070BD002804BFA2
:1057D0000120704710B582B0044690F83D0010B328
:1057E000022084F83D002068211D02F075FC012094
:1057F00084F8480084F83E0084F83F0084F84000B4
:1058000084F8410084F8420084F8430084F844009E
:1058100084F8450084F8460084F8470084F83D0089
:10582000002002B010BD206844F60002C4F201025C
:105830000021904284F83C1039D041F20001C4F2BA
:1058400000018842CCD141F25800C4F20200016844
:105850004FF0FF3241F010010160006800F01000CD
:10586000019001984EF60C50CEF200000068C0F393
:10587000022080F00701042928BF0421033802FA1E
:1058800001F14FF0030238BF002022EA010101FAC2
:1058900000F04EF236410001CEF2000108704EF2E7
:1058A0000410CEF200004FF48001016098E741F24D
:1058B0005800C4F20200816841F480218160806850
:1058C00000F48020009000988AE7000080B503680B
:1058D000D3F80CC01A69910708D51CF0020105D055
:1058E0006FF002011961996900210177510708D50C
:1058F0001CF0040105D06FF00401196199690021C1
:105900000177110708D51CF0080105D06FF00801D8
:105910001961D96900210177D10608D51CF0100161
:1059200005D06FF010011961D96900210177D10705
:1059300018BF1CF0010109D112F4025F0CF08003C2
:1059400018BF002B28D1D1052ED432E042F66031A9
:10595000C2F200016FF0010E8842C3F810E00CD1D2
:1059600042F67C21C2F2000141F21C0E0968C2F22B
:10597000000E00238EF800304B63016841F20043B3
:10598000C4F200039942D7D144F2B011C2F200012F
:105990000B6801330B60CFE7D0F800E06FF40251E1
:1059A000CEF81010D10504D51BB101686FF48073D7
:1059B0000B61510606D51CF0400103D001686FF061
:1059C00040030B61910606D51CF0200103D001684D
:1059D0006FF020030B61D10206D51CF4801103D0B7
:1059E00001686FF480130B61910206D51CF400115D
:1059F00003D001686FF400130B61510206D51CF44B
:105A0000800103D001686FF480030B61110207D598
:105A10001CF4000108BF80BD00686FF40001016143
:105A200080BD0000F0B587B043F2FF31C4F2010140
:105A300088424FF000010691CDE90411CDE9021131
:105A400028DD43F20041C4F20101884245D044F20E
:105A50000001C4F2010188426DD044F60001C4F295
:105A60000101884240F09B8041F24C00C4F20200E8
:105A7000016841F0020101600068002100F00200AD
:105A8000019001982020029002200390CDE904109B
:105A90000A207BE0B0F1804F62D042F60041C4F2B0
:105AA000010188427BD141F24C00C4F2020001683E
:105AB0004FF0904441F0010101600068002100F0C6
:105AC0000100019001984FF4C070029002200390F1
:105AD000CDE90410062006905DE041F24C00C4F2CE
